{
	"lottery.sol/smart contract.sol": {
		"Lottery": {
			"abi": [
				{
					"inputs": [
						{
							"internalType": "uint256",
							"name": "_entryFee",
							"type": "uint256"
						},
						{
							"internalType": "uint256",
							"name": "_minimumPlayers",
							"type": "uint256"
						}
					],
					"stateMutability": "nonpayable",
					"type": "constructor"
				},
				{
					"inputs": [],
					"name": "enter",
					"outputs": [],
					"stateMutability": "payable",
					"type": "function"
				},
				{
					"inputs": [],
					"name": "entryFee",
					"outputs": [
						{
							"internalType": "uint256",
							"name": "",
							"type": "uint256"
						}
					],
					"stateMutability": "view",
					"type": "function"
				},
				{
					"inputs": [],
					"name": "manager",
					"outputs": [
						{
							"internalType": "address",
							"name": "",
							"type": "address"
						}
					],
					"stateMutability": "view",
					"type": "function"
				},
				{
					"inputs": [],
					"name": "minimumPlayers",
					"outputs": [
						{
							"internalType": "uint256",
							"name": "",
							"type": "uint256"
						}
					],
					"stateMutability": "view",
					"type": "function"
				},
				{
					"inputs": [],
					"name": "pickWinner",
					"outputs": [],
					"stateMutability": "nonpayable",
					"type": "function"
				},
				{
					"inputs": [
						{
							"internalType": "uint256",
							"name": "",
							"type": "uint256"
						}
					],
					"name": "players",
					"outputs": [
						{
							"internalType": "address payable",
							"name": "",
							"type": "address"
						}
					],
					"stateMutability": "view",
					"type": "function"
				},
				{
					"inputs": [],
					"name": "winnerIndex",
					"outputs": [
						{
							"internalType": "uint256",
							"name": "",
							"type": "uint256"
						}
					],
					"stateMutability": "view",
					"type": "function"
				}
			],
			"devdoc": {
				"kind": "dev",
				"methods": {},
				"version": 1
			},
			"evm": {
				"assembly": "    /* \"lottery.sol/smart contract.sol\":27:1407  contract Lottery {\r... */\n  mstore(0x40, 0x80)\n    /* \"lottery.sol/smart contract.sol\":350:513  constructor(uint _entryFee, uint _minimumPlayers) {\r... */\n  callvalue\n  dup1\n  iszero\n  tag_1\n  jumpi\n  0x00\n  dup1\n  revert\ntag_1:\n  pop\n  mload(0x40)\n  sub(codesize, bytecodeSize)\n  dup1\n  bytecodeSize\n  dup4\n  codecopy\n  dup2\n  dup2\n  add\n  0x40\n  mstore\n  dup2\n  add\n  swap1\n  tag_2\n  swap2\n  swap1\n  tag_3\n  jump\t// in\ntag_2:\n    /* \"lottery.sol/smart contract.sol\":421:431  msg.sender */\n  caller\n    /* \"lottery.sol/smart contract.sol\":411:418  manager */\n  0x01\n  0x00\n    /* \"lottery.sol/smart contract.sol\":411:431  manager = msg.sender */\n  0x0100\n  exp\n  dup2\n  sload\n  dup2\n  0xffffffffffffffffffffffffffffffffffffffff\n  mul\n  not\n  and\n  swap1\n  dup4\n  0xffffffffffffffffffffffffffffffffffffffff\n  and\n  mul\n  or\n  swap1\n  sstore\n  pop\n    /* \"lottery.sol/smart contract.sol\":453:462  _entryFee */\n  dup2\n    /* \"lottery.sol/smart contract.sol\":442:450  entryFee */\n  0x02\n    /* \"lottery.sol/smart contract.sol\":442:462  entryFee = _entryFee */\n  dup2\n  swap1\n  sstore\n  pop\n    /* \"lottery.sol/smart contract.sol\":490:505  _minimumPlayers */\n  dup1\n    /* \"lottery.sol/smart contract.sol\":473:487  minimumPlayers */\n  0x03\n    /* \"lottery.sol/smart contract.sol\":473:505  minimumPlayers = _minimumPlayers */\n  dup2\n  swap1\n  sstore\n  pop\n    /* \"lottery.sol/smart contract.sol\":350:513  constructor(uint _entryFee, uint _minimumPlayers) {\r... */\n  pop\n  pop\n    /* \"lottery.sol/smart contract.sol\":27:1407  contract Lottery {\r... */\n  jump(tag_6)\n    /* \"#utility.yul\":7:150   */\ntag_8:\n  0x00\n    /* \"#utility.yul\":95:101   */\n  dup2\n    /* \"#utility.yul\":89:102   */\n  mload\n    /* \"#utility.yul\":80:102   */\n  swap1\n  pop\n    /* \"#utility.yul\":111:144   */\n  tag_10\n    /* \"#utility.yul\":138:143   */\n  dup2\n    /* \"#utility.yul\":111:144   */\n  tag_11\n  jump\t// in\ntag_10:\n    /* \"#utility.yul\":70:150   */\n  swap3\n  swap2\n  pop\n  pop\n  jump\t// out\n    /* \"#utility.yul\":156:596   */\ntag_3:\n  0x00\n  dup1\n    /* \"#utility.yul\":292:294   */\n  0x40\n    /* \"#utility.yul\":280:289   */\n  dup4\n    /* \"#utility.yul\":271:278   */\n  dup6\n    /* \"#utility.yul\":267:290   */\n  sub\n    /* \"#utility.yul\":263:295   */\n  slt\n    /* \"#utility.yul\":260:262   */\n  iszero\n  tag_13\n  jumpi\n    /* \"#utility.yul\":308:309   */\n  0x00\n    /* \"#utility.yul\":305:306   */\n  dup1\n    /* \"#utility.yul\":298:310   */\n  revert\n    /* \"#utility.yul\":260:262   */\ntag_13:\n    /* \"#utility.yul\":351:352   */\n  0x00\n    /* \"#utility.yul\":376:440   */\n  tag_14\n    /* \"#utility.yul\":432:439   */\n  dup6\n    /* \"#utility.yul\":423:429   */\n  dup3\n    /* \"#utility.yul\":412:421   */\n  dup7\n    /* \"#utility.yul\":408:430   */\n  add\n    /* \"#utility.yul\":376:440   */\n  tag_8\n  jump\t// in\ntag_14:\n    /* \"#utility.yul\":366:440   */\n  swap3\n  pop\n    /* \"#utility.yul\":322:450   */\n  pop\n    /* \"#utility.yul\":489:491   */\n  0x20\n    /* \"#utility.yul\":515:579   */\n  tag_15\n    /* \"#utility.yul\":571:578   */\n  dup6\n    /* \"#utility.yul\":562:568   */\n  dup3\n    /* \"#utility.yul\":551:560   */\n  dup7\n    /* \"#utility.yul\":547:569   */\n  add\n    /* \"#utility.yul\":515:579   */\n  tag_8\n  jump\t// in\ntag_15:\n    /* \"#utility.yul\":505:579   */\n  swap2\n  pop\n    /* \"#utility.yul\":460:589   */\n  pop\n    /* \"#utility.yul\":250:596   */\n  swap3\n  pop\n  swap3\n  swap1\n  pop\n  jump\t// out\n    /* \"#utility.yul\":602:679   */\ntag_16:\n  0x00\n    /* \"#utility.yul\":668:673   */\n  dup2\n    /* \"#utility.yul\":657:673   */\n  swap1\n  pop\n    /* \"#utility.yul\":647:679   */\n  swap2\n  swap1\n  pop\n  jump\t// out\n    /* \"#utility.yul\":685:807   */\ntag_11:\n    /* \"#utility.yul\":758:782   */\n  tag_19\n    /* \"#utility.yul\":776:781   */\n  dup2\n    /* \"#utility.yul\":758:782   */\n  tag_16\n  jump\t// in\ntag_19:\n    /* \"#utility.yul\":751:756   */\n  dup2\n    /* \"#utility.yul\":748:783   */\n  eq\n    /* \"#utility.yul\":738:740   */\n  tag_20\n  jumpi\n    /* \"#utility.yul\":797:798   */\n  0x00\n    /* \"#utility.yul\":794:795   */\n  dup1\n    /* \"#utility.yul\":787:799   */\n  revert\n    /* \"#utility.yul\":738:740   */\ntag_20:\n    /* \"#utility.yul\":728:807   */\n  pop\n  jump\t// out\n    /* \"lottery.sol/smart contract.sol\":27:1407  contract Lottery {\r... */\ntag_6:\n  dataSize(sub_0)\n  dup1\n  dataOffset(sub_0)\n  0x00\n  codecopy\n  0x00\n  return\nstop\n\nsub_0: assembly {\n        /* \"lottery.sol/smart contract.sol\":27:1407  contract Lottery {\r... */\n      mstore(0x40, 0x80)\n      jumpi(tag_1, lt(calldatasize, 0x04))\n      shr(0xe0, calldataload(0x00))\n      dup1\n      0x8f00cbfa\n      gt\n      tag_9\n      jumpi\n      dup1\n      0x8f00cbfa\n      eq\n      tag_5\n      jumpi\n      dup1\n      0xe0764487\n      eq\n      tag_6\n      jumpi\n      dup1\n      0xe97dcb62\n      eq\n      tag_7\n      jumpi\n      dup1\n      0xf71d96cb\n      eq\n      tag_8\n      jumpi\n      jump(tag_1)\n    tag_9:\n      dup1\n      0x072ea61c\n      eq\n      tag_2\n      jumpi\n      dup1\n      0x481c6a75\n      eq\n      tag_3\n      jumpi\n      dup1\n      0x5d495aea\n      eq\n      tag_4\n      jumpi\n    tag_1:\n      0x00\n      dup1\n      revert\n        /* \"lottery.sol/smart contract.sol\":173:193  uint public entryFee */\n    tag_2:\n      callvalue\n      dup1\n      iszero\n      tag_10\n      jumpi\n      0x00\n      dup1\n      revert\n    tag_10:\n      pop\n      tag_11\n      tag_12\n      jump\t// in\n    tag_11:\n      mload(0x40)\n      tag_13\n      swap2\n      swap1\n      tag_14\n      jump\t// in\n    tag_13:\n      mload(0x40)\n      dup1\n      swap2\n      sub\n      swap1\n      return\n        /* \"lottery.sol/smart contract.sol\":118:140  address public manager */\n    tag_3:\n      callvalue\n      dup1\n      iszero\n      tag_15\n      jumpi\n      0x00\n      dup1\n      revert\n    tag_15:\n      pop\n      tag_16\n      tag_17\n      jump\t// in\n    tag_16:\n      mload(0x40)\n      tag_18\n      swap2\n      swap1\n      tag_19\n      jump\t// in\n    tag_18:\n      mload(0x40)\n      dup1\n      swap2\n      sub\n      swap1\n      return\n        /* \"lottery.sol/smart contract.sol\":777:1102  function pickWinner() public restricted {\r... */\n    tag_4:\n      callvalue\n      dup1\n      iszero\n      tag_20\n      jumpi\n      0x00\n      dup1\n      revert\n    tag_20:\n      pop\n      tag_21\n      tag_22\n      jump\t// in\n    tag_21:\n      stop\n        /* \"lottery.sol/smart contract.sol\":291:314  uint public winnerIndex */\n    tag_5:\n      callvalue\n      dup1\n      iszero\n      tag_23\n      jumpi\n      0x00\n      dup1\n      revert\n    tag_23:\n      pop\n      tag_24\n      tag_25\n      jump\t// in\n    tag_24:\n      mload(0x40)\n      tag_26\n      swap2\n      swap1\n      tag_14\n      jump\t// in\n    tag_26:\n      mload(0x40)\n      dup1\n      swap2\n      sub\n      swap1\n      return\n        /* \"lottery.sol/smart contract.sol\":220:246  uint public minimumPlayers */\n    tag_6:\n      callvalue\n      dup1\n      iszero\n      tag_27\n      jumpi\n      0x00\n      dup1\n      revert\n    tag_27:\n      pop\n      tag_28\n      tag_29\n      jump\t// in\n    tag_28:\n      mload(0x40)\n      tag_30\n      swap2\n      swap1\n      tag_14\n      jump\t// in\n    tag_30:\n      mload(0x40)\n      dup1\n      swap2\n      sub\n      swap1\n      return\n        /* \"lottery.sol/smart contract.sol\":525:765  function enter() public payable {\r... */\n    tag_7:\n      tag_31\n      tag_32\n      jump\t// in\n    tag_31:\n      stop\n        /* \"lottery.sol/smart contract.sol\":51:83  address payable[] public players */\n    tag_8:\n      callvalue\n      dup1\n      iszero\n      tag_33\n      jumpi\n      0x00\n      dup1\n      revert\n    tag_33:\n      pop\n      tag_34\n      0x04\n      dup1\n      calldatasize\n      sub\n      dup2\n      add\n      swap1\n      tag_35\n      swap2\n      swap1\n      tag_36\n      jump\t// in\n    tag_35:\n      tag_37\n      jump\t// in\n    tag_34:\n      mload(0x40)\n      tag_38\n      swap2\n      swap1\n      tag_39\n      jump\t// in\n    tag_38:\n      mload(0x40)\n      dup1\n      swap2\n      sub\n      swap1\n      return\n        /* \"lottery.sol/smart contract.sol\":173:193  uint public entryFee */\n    tag_12:\n      sload(0x02)\n      dup2\n      jump\t// out\n        /* \"lottery.sol/smart contract.sol\":118:140  address public manager */\n    tag_17:\n      0x01\n      0x00\n      swap1\n      sload\n      swap1\n      0x0100\n      exp\n      swap1\n      div\n      0xffffffffffffffffffffffffffffffffffffffff\n      and\n      dup2\n      jump\t// out\n        /* \"lottery.sol/smart contract.sol\":777:1102  function pickWinner() public restricted {\r... */\n    tag_22:\n        /* \"lottery.sol/smart contract.sol\":1337:1344  manager */\n      0x01\n      0x00\n      swap1\n      sload\n      swap1\n      0x0100\n      exp\n      swap1\n      div\n      0xffffffffffffffffffffffffffffffffffffffff\n      and\n        /* \"lottery.sol/smart contract.sol\":1323:1344  msg.sender == manager */\n      0xffffffffffffffffffffffffffffffffffffffff\n      and\n        /* \"lottery.sol/smart contract.sol\":1323:1333  msg.sender */\n      caller\n        /* \"lottery.sol/smart contract.sol\":1323:1344  msg.sender == manager */\n      0xffffffffffffffffffffffffffffffffffffffff\n      and\n      eq\n        /* \"lottery.sol/smart contract.sol\":1315:1384  require(msg.sender == manager, \"Only the manager can pick a winner.\") */\n      tag_41\n      jumpi\n      mload(0x40)\n      0x08c379a000000000000000000000000000000000000000000000000000000000\n      dup2\n      mstore\n      0x04\n      add\n      tag_42\n      swap1\n      tag_43\n      jump\t// in\n    tag_42:\n      mload(0x40)\n      dup1\n      swap2\n      sub\n      swap1\n      revert\n    tag_41:\n        /* \"lottery.sol/smart contract.sol\":854:868  minimumPlayers */\n      sload(0x03)\n        /* \"lottery.sol/smart contract.sol\":836:843  players */\n      0x00\n        /* \"lottery.sol/smart contract.sol\":836:850  players.length */\n      dup1\n      sload\n      swap1\n      pop\n        /* \"lottery.sol/smart contract.sol\":836:868  players.length >= minimumPlayers */\n      lt\n      iszero\n        /* \"lottery.sol/smart contract.sol\":828:909  require(players.length >= minimumPlayers, \"Not enough players to pick a winner.\") */\n      tag_45\n      jumpi\n      mload(0x40)\n      0x08c379a000000000000000000000000000000000000000000000000000000000\n      dup2\n      mstore\n      0x04\n      add\n      tag_46\n      swap1\n      tag_47\n      jump\t// in\n    tag_46:\n      mload(0x40)\n      dup1\n      swap2\n      sub\n      swap1\n      revert\n    tag_45:\n        /* \"lottery.sol/smart contract.sol\":945:952  players */\n      0x00\n        /* \"lottery.sol/smart contract.sol\":945:959  players.length */\n      dup1\n      sload\n      swap1\n      pop\n        /* \"lottery.sol/smart contract.sol\":934:942  random() */\n      tag_48\n        /* \"lottery.sol/smart contract.sol\":934:940  random */\n      tag_49\n        /* \"lottery.sol/smart contract.sol\":934:942  random() */\n      jump\t// in\n    tag_48:\n        /* \"lottery.sol/smart contract.sol\":934:959  random() % players.length */\n      tag_50\n      swap2\n      swap1\n      tag_51\n      jump\t// in\n    tag_50:\n        /* \"lottery.sol/smart contract.sol\":920:931  winnerIndex */\n      0x04\n        /* \"lottery.sol/smart contract.sol\":920:959  winnerIndex = random() % players.length */\n      dup2\n      swap1\n      sstore\n      pop\n        /* \"lottery.sol/smart contract.sol\":970:977  players */\n      0x00\n        /* \"lottery.sol/smart contract.sol\":978:989  winnerIndex */\n      sload(0x04)\n        /* \"lottery.sol/smart contract.sol\":970:990  players[winnerIndex] */\n      dup2\n      sload\n      dup2\n      lt\n      tag_52\n      jumpi\n      mstore(0x00, 0x4e487b7100000000000000000000000000000000000000000000000000000000)\n      mstore(0x04, 0x32)\n      revert(0x00, 0x24)\n    tag_52:\n      swap1\n      0x00\n      mstore\n      keccak256(0x00, 0x20)\n      add\n      0x00\n      swap1\n      sload\n      swap1\n      0x0100\n      exp\n      swap1\n      div\n      0xffffffffffffffffffffffffffffffffffffffff\n      and\n        /* \"lottery.sol/smart contract.sol\":970:999  players[winnerIndex].transfer */\n      0xffffffffffffffffffffffffffffffffffffffff\n      and\n        /* \"lottery.sol/smart contract.sol\":970:1022  players[winnerIndex].transfer(address(this).balance) */\n      0x08fc\n        /* \"lottery.sol/smart contract.sol\":1000:1021  address(this).balance */\n      selfbalance\n        /* \"lottery.sol/smart contract.sol\":970:1022  players[winnerIndex].transfer(address(this).balance) */\n      swap1\n      dup2\n      iszero\n      mul\n      swap1\n      mload(0x40)\n      0x00\n      mload(0x40)\n      dup1\n      dup4\n      sub\n      dup2\n      dup6\n      dup9\n      dup9\n      call\n      swap4\n      pop\n      pop\n      pop\n      pop\n      iszero\n      dup1\n      iszero\n      tag_55\n      jumpi\n      returndatasize\n      0x00\n      dup1\n      returndatacopy\n      revert(0x00, returndatasize)\n    tag_55:\n      pop\n        /* \"lottery.sol/smart contract.sol\":1065:1066  0 */\n      0x00\n        /* \"lottery.sol/smart contract.sol\":1043:1067  new address payable[](0) */\n      0xffffffffffffffff\n      dup2\n      gt\n      iszero\n      tag_56\n      jumpi\n      mstore(0x00, 0x4e487b7100000000000000000000000000000000000000000000000000000000)\n      mstore(0x04, 0x41)\n      revert(0x00, 0x24)\n    tag_56:\n      mload(0x40)\n      swap1\n      dup1\n      dup3\n      mstore\n      dup1\n      0x20\n      mul\n      0x20\n      add\n      dup3\n      add\n      0x40\n      mstore\n      dup1\n      iszero\n      tag_57\n      jumpi\n      dup2\n      0x20\n      add\n      0x20\n      dup3\n      mul\n      dup1\n      calldatasize\n      dup4\n      calldatacopy\n      dup1\n      dup3\n      add\n      swap2\n      pop\n      pop\n      swap1\n      pop\n    tag_57:\n      pop\n        /* \"lottery.sol/smart contract.sol\":1033:1040  players */\n      0x00\n        /* \"lottery.sol/smart contract.sol\":1033:1067  players = new address payable[](0) */\n      swap1\n      dup1\n      mload\n      swap1\n      0x20\n      add\n      swap1\n      tag_58\n      swap3\n      swap2\n      swap1\n      tag_59\n      jump\t// in\n    tag_58:\n      pop\n        /* \"lottery.sol/smart contract.sol\":777:1102  function pickWinner() public restricted {\r... */\n      jump\t// out\n        /* \"lottery.sol/smart contract.sol\":291:314  uint public winnerIndex */\n    tag_25:\n      sload(0x04)\n      dup2\n      jump\t// out\n        /* \"lottery.sol/smart contract.sol\":220:246  uint public minimumPlayers */\n    tag_29:\n      sload(0x03)\n      dup2\n      jump\t// out\n        /* \"lottery.sol/smart contract.sol\":525:765  function enter() public payable {\r... */\n    tag_32:\n        /* \"lottery.sol/smart contract.sol\":589:597  entryFee */\n      sload(0x02)\n        /* \"lottery.sol/smart contract.sol\":576:585  msg.value */\n      callvalue\n        /* \"lottery.sol/smart contract.sol\":576:597  msg.value == entryFee */\n      eq\n        /* \"lottery.sol/smart contract.sol\":568:636  require(msg.value == entryFee, \"Please send the correct entry fee.\") */\n      tag_61\n      jumpi\n      mload(0x40)\n      0x08c379a000000000000000000000000000000000000000000000000000000000\n      dup2\n      mstore\n      0x04\n      add\n      tag_62\n      swap1\n      tag_63\n      jump\t// in\n    tag_62:\n      mload(0x40)\n      dup1\n      swap2\n      sub\n      swap1\n      revert\n    tag_61:\n        /* \"lottery.sol/smart contract.sol\":672:674  10 */\n      0x0a\n        /* \"lottery.sol/smart contract.sol\":655:662  players */\n      0x00\n        /* \"lottery.sol/smart contract.sol\":655:669  players.length */\n      dup1\n      sload\n      swap1\n      pop\n        /* \"lottery.sol/smart contract.sol\":655:674  players.length < 10 */\n      lt\n        /* \"lottery.sol/smart contract.sol\":647:713  require(players.length < 10, \"Maximum number of players reached.\") */\n      tag_64\n      jumpi\n      mload(0x40)\n      0x08c379a000000000000000000000000000000000000000000000000000000000\n      dup2\n      mstore\n      0x04\n      add\n      tag_65\n      swap1\n      tag_66\n      jump\t// in\n    tag_65:\n      mload(0x40)\n      dup1\n      swap2\n      sub\n      swap1\n      revert\n    tag_64:\n        /* \"lottery.sol/smart contract.sol\":724:731  players */\n      0x00\n        /* \"lottery.sol/smart contract.sol\":745:755  msg.sender */\n      caller\n        /* \"lottery.sol/smart contract.sol\":724:757  players.push(payable(msg.sender)) */\n      swap1\n      dup1\n      0x01\n      dup2\n      sload\n      add\n      dup1\n      dup3\n      sstore\n      dup1\n      swap2\n      pop\n      pop\n      0x01\n      swap1\n      sub\n      swap1\n      0x00\n      mstore\n      keccak256(0x00, 0x20)\n      add\n      0x00\n      swap1\n      swap2\n      swap1\n      swap2\n      swap1\n      swap2\n      0x0100\n      exp\n      dup2\n      sload\n      dup2\n      0xffffffffffffffffffffffffffffffffffffffff\n      mul\n      not\n      and\n      swap1\n      dup4\n      0xffffffffffffffffffffffffffffffffffffffff\n      and\n      mul\n      or\n      swap1\n      sstore\n      pop\n        /* \"lottery.sol/smart contract.sol\":525:765  function enter() public payable {\r... */\n      jump\t// out\n        /* \"lottery.sol/smart contract.sol\":51:83  address payable[] public players */\n    tag_37:\n      0x00\n      dup2\n      dup2\n      sload\n      dup2\n      lt\n      tag_68\n      jumpi\n      0x00\n      dup1\n      revert\n    tag_68:\n      swap1\n      0x00\n      mstore\n      keccak256(0x00, 0x20)\n      add\n      0x00\n      swap2\n      pop\n      sload\n      swap1\n      0x0100\n      exp\n      swap1\n      div\n      0xffffffffffffffffffffffffffffffffffffffff\n      and\n      dup2\n      jump\t// out\n        /* \"lottery.sol/smart contract.sol\":1114:1270  function random() private view returns (uint) {\r... */\n    tag_49:\n        /* \"lottery.sol/smart contract.sol\":1154:1158  uint */\n      0x00\n        /* \"lottery.sol/smart contract.sol\":1210:1226  block.difficulty */\n      difficulty\n        /* \"lottery.sol/smart contract.sol\":1228:1243  block.timestamp */\n      timestamp\n        /* \"lottery.sol/smart contract.sol\":1245:1252  players */\n      0x00\n        /* \"lottery.sol/smart contract.sol\":1245:1259  players.length */\n      dup1\n      sload\n      swap1\n      pop\n        /* \"lottery.sol/smart contract.sol\":1193:1260  abi.encodePacked(block.difficulty, block.timestamp, players.length) */\n      add(0x20, mload(0x40))\n      tag_71\n      swap4\n      swap3\n      swap2\n      swap1\n      tag_72\n      jump\t// in\n    tag_71:\n      mload(0x40)\n      0x20\n      dup2\n      dup4\n      sub\n      sub\n      dup2\n      mstore\n      swap1\n      0x40\n      mstore\n        /* \"lottery.sol/smart contract.sol\":1183:1261  keccak256(abi.encodePacked(block.difficulty, block.timestamp, players.length)) */\n      dup1\n      mload\n      swap1\n      0x20\n      add\n      keccak256\n        /* \"lottery.sol/smart contract.sol\":1178:1262  uint(keccak256(abi.encodePacked(block.difficulty, block.timestamp, players.length))) */\n      0x00\n      shr\n        /* \"lottery.sol/smart contract.sol\":1171:1262  return uint(keccak256(abi.encodePacked(block.difficulty, block.timestamp, players.length))) */\n      swap1\n      pop\n        /* \"lottery.sol/smart contract.sol\":1114:1270  function random() private view returns (uint) {\r... */\n      swap1\n      jump\t// out\n    tag_59:\n      dup3\n      dup1\n      sload\n      dup3\n      dup3\n      sstore\n      swap1\n      0x00\n      mstore\n      keccak256(0x00, 0x20)\n      swap1\n      dup2\n      add\n      swap3\n      dup3\n      iszero\n      tag_73\n      jumpi\n      swap2\n      0x20\n      mul\n      dup3\n      add\n    tag_74:\n      dup3\n      dup2\n      gt\n      iszero\n      tag_75\n      jumpi\n      dup3\n      mload\n      dup3\n      exp(0x0100, 0x00)\n      dup2\n      sload\n      dup2\n      0xffffffffffffffffffffffffffffffffffffffff\n      mul\n      not\n      and\n      swap1\n      dup4\n      0xffffffffffffffffffffffffffffffffffffffff\n      and\n      mul\n      or\n      swap1\n      sstore\n      pop\n      swap2\n      0x20\n      add\n      swap2\n      swap1\n      0x01\n      add\n      swap1\n      jump(tag_74)\n    tag_75:\n    tag_73:\n      pop\n      swap1\n      pop\n      tag_76\n      swap2\n      swap1\n      tag_77\n      jump\t// in\n    tag_76:\n      pop\n      swap1\n      jump\t// out\n    tag_77:\n    tag_78:\n      dup1\n      dup3\n      gt\n      iszero\n      tag_79\n      jumpi\n      0x00\n      dup2\n      0x00\n      swap1\n      sstore\n      pop\n      0x01\n      add\n      jump(tag_78)\n    tag_79:\n      pop\n      swap1\n      jump\t// out\n        /* \"#utility.yul\":7:146   */\n    tag_81:\n      0x00\n        /* \"#utility.yul\":91:97   */\n      dup2\n        /* \"#utility.yul\":78:98   */\n      calldataload\n        /* \"#utility.yul\":69:98   */\n      swap1\n      pop\n        /* \"#utility.yul\":107:140   */\n      tag_83\n        /* \"#utility.yul\":134:139   */\n      dup2\n        /* \"#utility.yul\":107:140   */\n      tag_84\n      jump\t// in\n    tag_83:\n        /* \"#utility.yul\":59:146   */\n      swap3\n      swap2\n      pop\n      pop\n      jump\t// out\n        /* \"#utility.yul\":152:414   */\n    tag_36:\n      0x00\n        /* \"#utility.yul\":260:262   */\n      0x20\n        /* \"#utility.yul\":248:257   */\n      dup3\n        /* \"#utility.yul\":239:246   */\n      dup5\n        /* \"#utility.yul\":235:258   */\n      sub\n        /* \"#utility.yul\":231:263   */\n      slt\n        /* \"#utility.yul\":228:230   */\n      iszero\n      tag_86\n      jumpi\n        /* \"#utility.yul\":276:277   */\n      0x00\n        /* \"#utility.yul\":273:274   */\n      dup1\n        /* \"#utility.yul\":266:278   */\n      revert\n        /* \"#utility.yul\":228:230   */\n    tag_86:\n        /* \"#utility.yul\":319:320   */\n      0x00\n        /* \"#utility.yul\":344:397   */\n      tag_87\n        /* \"#utility.yul\":389:396   */\n      dup5\n        /* \"#utility.yul\":380:386   */\n      dup3\n        /* \"#utility.yul\":369:378   */\n      dup6\n        /* \"#utility.yul\":365:387   */\n      add\n        /* \"#utility.yul\":344:397   */\n      tag_81\n      jump\t// in\n    tag_87:\n        /* \"#utility.yul\":334:397   */\n      swap2\n      pop\n        /* \"#utility.yul\":290:407   */\n      pop\n        /* \"#utility.yul\":218:414   */\n      swap3\n      swap2\n      pop\n      pop\n      jump\t// out\n        /* \"#utility.yul\":420:562   */\n    tag_88:\n        /* \"#utility.yul\":523:555   */\n      tag_90\n        /* \"#utility.yul\":549:554   */\n      dup2\n        /* \"#utility.yul\":523:555   */\n      tag_91\n      jump\t// in\n    tag_90:\n        /* \"#utility.yul\":518:521   */\n      dup3\n        /* \"#utility.yul\":511:556   */\n      mstore\n        /* \"#utility.yul\":501:562   */\n      pop\n      pop\n      jump\t// out\n        /* \"#utility.yul\":568:686   */\n    tag_92:\n        /* \"#utility.yul\":655:679   */\n      tag_94\n        /* \"#utility.yul\":673:678   */\n      dup2\n        /* \"#utility.yul\":655:679   */\n      tag_95\n      jump\t// in\n    tag_94:\n        /* \"#utility.yul\":650:653   */\n      dup3\n        /* \"#utility.yul\":643:680   */\n      mstore\n        /* \"#utility.yul\":633:686   */\n      pop\n      pop\n      jump\t// out\n        /* \"#utility.yul\":692:1058   */\n    tag_96:\n      0x00\n        /* \"#utility.yul\":855:922   */\n      tag_98\n        /* \"#utility.yul\":919:921   */\n      0x22\n        /* \"#utility.yul\":914:917   */\n      dup4\n        /* \"#utility.yul\":855:922   */\n      tag_99\n      jump\t// in\n    tag_98:\n        /* \"#utility.yul\":848:922   */\n      swap2\n      pop\n        /* \"#utility.yul\":952:986   */\n      0x4d6178696d756d206e756d626572206f6620706c617965727320726561636865\n        /* \"#utility.yul\":948:949   */\n      0x00\n        /* \"#utility.yul\":943:946   */\n      dup4\n        /* \"#utility.yul\":939:950   */\n      add\n        /* \"#utility.yul\":932:987   */\n      mstore\n        /* \"#utility.yul\":1018:1022   */\n      0x642e000000000000000000000000000000000000000000000000000000000000\n        /* \"#utility.yul\":1013:1015   */\n      0x20\n        /* \"#utility.yul\":1008:1011   */\n      dup4\n        /* \"#utility.yul\":1004:1016   */\n      add\n        /* \"#utility.yul\":997:1023   */\n      mstore\n        /* \"#utility.yul\":1049:1051   */\n      0x40\n        /* \"#utility.yul\":1044:1047   */\n      dup3\n        /* \"#utility.yul\":1040:1052   */\n      add\n        /* \"#utility.yul\":1033:1052   */\n      swap1\n      pop\n        /* \"#utility.yul\":838:1058   */\n      swap2\n      swap1\n      pop\n      jump\t// out\n        /* \"#utility.yul\":1064:1431   */\n    tag_100:\n      0x00\n        /* \"#utility.yul\":1227:1294   */\n      tag_102\n        /* \"#utility.yul\":1291:1293   */\n      0x23\n        /* \"#utility.yul\":1286:1289   */\n      dup4\n        /* \"#utility.yul\":1227:1294   */\n      tag_99\n      jump\t// in\n    tag_102:\n        /* \"#utility.yul\":1220:1294   */\n      swap2\n      pop\n        /* \"#utility.yul\":1324:1358   */\n      0x4f6e6c7920746865206d616e616765722063616e207069636b20612077696e6e\n        /* \"#utility.yul\":1320:1321   */\n      0x00\n        /* \"#utility.yul\":1315:1318   */\n      dup4\n        /* \"#utility.yul\":1311:1322   */\n      add\n        /* \"#utility.yul\":1304:1359   */\n      mstore\n        /* \"#utility.yul\":1390:1395   */\n      0x65722e0000000000000000000000000000000000000000000000000000000000\n        /* \"#utility.yul\":1385:1387   */\n      0x20\n        /* \"#utility.yul\":1380:1383   */\n      dup4\n        /* \"#utility.yul\":1376:1388   */\n      add\n        /* \"#utility.yul\":1369:1396   */\n      mstore\n        /* \"#utility.yul\":1422:1424   */\n      0x40\n        /* \"#utility.yul\":1417:1420   */\n      dup3\n        /* \"#utility.yul\":1413:1425   */\n      add\n        /* \"#utility.yul\":1406:1425   */\n      swap1\n      pop\n        /* \"#utility.yul\":1210:1431   */\n      swap2\n      swap1\n      pop\n      jump\t// out\n        /* \"#utility.yul\":1437:1803   */\n    tag_103:\n      0x00\n        /* \"#utility.yul\":1600:1667   */\n      tag_105\n        /* \"#utility.yul\":1664:1666   */\n      0x22\n        /* \"#utility.yul\":1659:1662   */\n      dup4\n        /* \"#utility.yul\":1600:1667   */\n      tag_99\n      jump\t// in\n    tag_105:\n        /* \"#utility.yul\":1593:1667   */\n      swap2\n      pop\n        /* \"#utility.yul\":1697:1731   */\n      0x506c656173652073656e642074686520636f727265637420656e747279206665\n        /* \"#utility.yul\":1693:1694   */\n      0x00\n        /* \"#utility.yul\":1688:1691   */\n      dup4\n        /* \"#utility.yul\":1684:1695   */\n      add\n        /* \"#utility.yul\":1677:1732   */\n      mstore\n        /* \"#utility.yul\":1763:1767   */\n      0x652e000000000000000000000000000000000000000000000000000000000000\n        /* \"#utility.yul\":1758:1760   */\n      0x20\n        /* \"#utility.yul\":1753:1756   */\n      dup4\n        /* \"#utility.yul\":1749:1761   */\n      add\n        /* \"#utility.yul\":1742:1768   */\n      mstore\n        /* \"#utility.yul\":1794:1796   */\n      0x40\n        /* \"#utility.yul\":1789:1792   */\n      dup3\n        /* \"#utility.yul\":1785:1797   */\n      add\n        /* \"#utility.yul\":1778:1797   */\n      swap1\n      pop\n        /* \"#utility.yul\":1583:1803   */\n      swap2\n      swap1\n      pop\n      jump\t// out\n        /* \"#utility.yul\":1809:2177   */\n    tag_106:\n      0x00\n        /* \"#utility.yul\":1972:2039   */\n      tag_108\n        /* \"#utility.yul\":2036:2038   */\n      0x24\n        /* \"#utility.yul\":2031:2034   */\n      dup4\n        /* \"#utility.yul\":1972:2039   */\n      tag_99\n      jump\t// in\n    tag_108:\n        /* \"#utility.yul\":1965:2039   */\n      swap2\n      pop\n        /* \"#utility.yul\":2069:2103   */\n      0x4e6f7420656e6f75676820706c617965727320746f207069636b20612077696e\n        /* \"#utility.yul\":2065:2066   */\n      0x00\n        /* \"#utility.yul\":2060:2063   */\n      dup4\n        /* \"#utility.yul\":2056:2067   */\n      add\n        /* \"#utility.yul\":2049:2104   */\n      mstore\n        /* \"#utility.yul\":2135:2141   */\n      0x6e65722e00000000000000000000000000000000000000000000000000000000\n        /* \"#utility.yul\":2130:2132   */\n      0x20\n        /* \"#utility.yul\":2125:2128   */\n      dup4\n        /* \"#utility.yul\":2121:2133   */\n      add\n        /* \"#utility.yul\":2114:2142   */\n      mstore\n        /* \"#utility.yul\":2168:2170   */\n      0x40\n        /* \"#utility.yul\":2163:2166   */\n      dup3\n        /* \"#utility.yul\":2159:2171   */\n      add\n        /* \"#utility.yul\":2152:2171   */\n      swap1\n      pop\n        /* \"#utility.yul\":1955:2177   */\n      swap2\n      swap1\n      pop\n      jump\t// out\n        /* \"#utility.yul\":2183:2301   */\n    tag_109:\n        /* \"#utility.yul\":2270:2294   */\n      tag_111\n        /* \"#utility.yul\":2288:2293   */\n      dup2\n        /* \"#utility.yul\":2270:2294   */\n      tag_112\n      jump\t// in\n    tag_111:\n        /* \"#utility.yul\":2265:2268   */\n      dup3\n        /* \"#utility.yul\":2258:2295   */\n      mstore\n        /* \"#utility.yul\":2248:2301   */\n      pop\n      pop\n      jump\t// out\n        /* \"#utility.yul\":2307:2464   */\n    tag_113:\n        /* \"#utility.yul\":2412:2457   */\n      tag_115\n        /* \"#utility.yul\":2432:2456   */\n      tag_116\n        /* \"#utility.yul\":2450:2455   */\n      dup3\n        /* \"#utility.yul\":2432:2456   */\n      tag_112\n      jump\t// in\n    tag_116:\n        /* \"#utility.yul\":2412:2457   */\n      tag_117\n      jump\t// in\n    tag_115:\n        /* \"#utility.yul\":2407:2410   */\n      dup3\n        /* \"#utility.yul\":2400:2458   */\n      mstore\n        /* \"#utility.yul\":2390:2464   */\n      pop\n      pop\n      jump\t// out\n        /* \"#utility.yul\":2470:3008   */\n    tag_72:\n      0x00\n        /* \"#utility.yul\":2653:2728   */\n      tag_119\n        /* \"#utility.yul\":2724:2727   */\n      dup3\n        /* \"#utility.yul\":2715:2721   */\n      dup7\n        /* \"#utility.yul\":2653:2728   */\n      tag_113\n      jump\t// in\n    tag_119:\n        /* \"#utility.yul\":2753:2755   */\n      0x20\n        /* \"#utility.yul\":2748:2751   */\n      dup3\n        /* \"#utility.yul\":2744:2756   */\n      add\n        /* \"#utility.yul\":2737:2756   */\n      swap2\n      pop\n        /* \"#utility.yul\":2766:2841   */\n      tag_120\n        /* \"#utility.yul\":2837:2840   */\n      dup3\n        /* \"#utility.yul\":2828:2834   */\n      dup6\n        /* \"#utility.yul\":2766:2841   */\n      tag_113\n      jump\t// in\n    tag_120:\n        /* \"#utility.yul\":2866:2868   */\n      0x20\n        /* \"#utility.yul\":2861:2864   */\n      dup3\n        /* \"#utility.yul\":2857:2869   */\n      add\n        /* \"#utility.yul\":2850:2869   */\n      swap2\n      pop\n        /* \"#utility.yul\":2879:2954   */\n      tag_121\n        /* \"#utility.yul\":2950:2953   */\n      dup3\n        /* \"#utility.yul\":2941:2947   */\n      dup5\n        /* \"#utility.yul\":2879:2954   */\n      tag_113\n      jump\t// in\n    tag_121:\n        /* \"#utility.yul\":2979:2981   */\n      0x20\n        /* \"#utility.yul\":2974:2977   */\n      dup3\n        /* \"#utility.yul\":2970:2982   */\n      add\n        /* \"#utility.yul\":2963:2982   */\n      swap2\n      pop\n        /* \"#utility.yul\":2999:3002   */\n      dup2\n        /* \"#utility.yul\":2992:3002   */\n      swap1\n      pop\n        /* \"#utility.yul\":2642:3008   */\n      swap5\n      swap4\n      pop\n      pop\n      pop\n      pop\n      jump\t// out\n        /* \"#utility.yul\":3014:3236   */\n    tag_19:\n      0x00\n        /* \"#utility.yul\":3145:3147   */\n      0x20\n        /* \"#utility.yul\":3134:3143   */\n      dup3\n        /* \"#utility.yul\":3130:3148   */\n      add\n        /* \"#utility.yul\":3122:3148   */\n      swap1\n      pop\n        /* \"#utility.yul\":3158:3229   */\n      tag_123\n        /* \"#utility.yul\":3226:3227   */\n      0x00\n        /* \"#utility.yul\":3215:3224   */\n      dup4\n        /* \"#utility.yul\":3211:3228   */\n      add\n        /* \"#utility.yul\":3202:3208   */\n      dup5\n        /* \"#utility.yul\":3158:3229   */\n      tag_92\n      jump\t// in\n    tag_123:\n        /* \"#utility.yul\":3112:3236   */\n      swap3\n      swap2\n      pop\n      pop\n      jump\t// out\n        /* \"#utility.yul\":3242:3496   */\n    tag_39:\n      0x00\n        /* \"#utility.yul\":3389:3391   */\n      0x20\n        /* \"#utility.yul\":3378:3387   */\n      dup3\n        /* \"#utility.yul\":3374:3392   */\n      add\n        /* \"#utility.yul\":3366:3392   */\n      swap1\n      pop\n        /* \"#utility.yul\":3402:3489   */\n      tag_125\n        /* \"#utility.yul\":3486:3487   */\n      0x00\n        /* \"#utility.yul\":3475:3484   */\n      dup4\n        /* \"#utility.yul\":3471:3488   */\n      add\n        /* \"#utility.yul\":3462:3468   */\n      dup5\n        /* \"#utility.yul\":3402:3489   */\n      tag_88\n      jump\t// in\n    tag_125:\n        /* \"#utility.yul\":3356:3496   */\n      swap3\n      swap2\n      pop\n      pop\n      jump\t// out\n        /* \"#utility.yul\":3502:3921   */\n    tag_66:\n      0x00\n        /* \"#utility.yul\":3706:3708   */\n      0x20\n        /* \"#utility.yul\":3695:3704   */\n      dup3\n        /* \"#utility.yul\":3691:3709   */\n      add\n        /* \"#utility.yul\":3683:3709   */\n      swap1\n      pop\n        /* \"#utility.yul\":3755:3764   */\n      dup2\n        /* \"#utility.yul\":3749:3753   */\n      dup2\n        /* \"#utility.yul\":3745:3765   */\n      sub\n        /* \"#utility.yul\":3741:3742   */\n      0x00\n        /* \"#utility.yul\":3730:3739   */\n      dup4\n        /* \"#utility.yul\":3726:3743   */\n      add\n        /* \"#utility.yul\":3719:3766   */\n      mstore\n        /* \"#utility.yul\":3783:3914   */\n      tag_127\n        /* \"#utility.yul\":3909:3913   */\n      dup2\n        /* \"#utility.yul\":3783:3914   */\n      tag_96\n      jump\t// in\n    tag_127:\n        /* \"#utility.yul\":3775:3914   */\n      swap1\n      pop\n        /* \"#utility.yul\":3673:3921   */\n      swap2\n      swap1\n      pop\n      jump\t// out\n        /* \"#utility.yul\":3927:4346   */\n    tag_43:\n      0x00\n        /* \"#utility.yul\":4131:4133   */\n      0x20\n        /* \"#utility.yul\":4120:4129   */\n      dup3\n        /* \"#utility.yul\":4116:4134   */\n      add\n        /* \"#utility.yul\":4108:4134   */\n      swap1\n      pop\n        /* \"#utility.yul\":4180:4189   */\n      dup2\n        /* \"#utility.yul\":4174:4178   */\n      dup2\n        /* \"#utility.yul\":4170:4190   */\n      sub\n        /* \"#utility.yul\":4166:4167   */\n      0x00\n        /* \"#utility.yul\":4155:4164   */\n      dup4\n        /* \"#utility.yul\":4151:4168   */\n      add\n        /* \"#utility.yul\":4144:4191   */\n      mstore\n        /* \"#utility.yul\":4208:4339   */\n      tag_129\n        /* \"#utility.yul\":4334:4338   */\n      dup2\n        /* \"#utility.yul\":4208:4339   */\n      tag_100\n      jump\t// in\n    tag_129:\n        /* \"#utility.yul\":4200:4339   */\n      swap1\n      pop\n        /* \"#utility.yul\":4098:4346   */\n      swap2\n      swap1\n      pop\n      jump\t// out\n        /* \"#utility.yul\":4352:4771   */\n    tag_63:\n      0x00\n        /* \"#utility.yul\":4556:4558   */\n      0x20\n        /* \"#utility.yul\":4545:4554   */\n      dup3\n        /* \"#utility.yul\":4541:4559   */\n      add\n        /* \"#utility.yul\":4533:4559   */\n      swap1\n      pop\n        /* \"#utility.yul\":4605:4614   */\n      dup2\n        /* \"#utility.yul\":4599:4603   */\n      dup2\n        /* \"#utility.yul\":4595:4615   */\n      sub\n        /* \"#utility.yul\":4591:4592   */\n      0x00\n        /* \"#utility.yul\":4580:4589   */\n      dup4\n        /* \"#utility.yul\":4576:4593   */\n      add\n        /* \"#utility.yul\":4569:4616   */\n      mstore\n        /* \"#utility.yul\":4633:4764   */\n      tag_131\n        /* \"#utility.yul\":4759:4763   */\n      dup2\n        /* \"#utility.yul\":4633:4764   */\n      tag_103\n      jump\t// in\n    tag_131:\n        /* \"#utility.yul\":4625:4764   */\n      swap1\n      pop\n        /* \"#utility.yul\":4523:4771   */\n      swap2\n      swap1\n      pop\n      jump\t// out\n        /* \"#utility.yul\":4777:5196   */\n    tag_47:\n      0x00\n        /* \"#utility.yul\":4981:4983   */\n      0x20\n        /* \"#utility.yul\":4970:4979   */\n      dup3\n        /* \"#utility.yul\":4966:4984   */\n      add\n        /* \"#utility.yul\":4958:4984   */\n      swap1\n      pop\n        /* \"#utility.yul\":5030:5039   */\n      dup2\n        /* \"#utility.yul\":5024:5028   */\n      dup2\n        /* \"#utility.yul\":5020:5040   */\n      sub\n        /* \"#utility.yul\":5016:5017   */\n      0x00\n        /* \"#utility.yul\":5005:5014   */\n      dup4\n        /* \"#utility.yul\":5001:5018   */\n      add\n        /* \"#utility.yul\":4994:5041   */\n      mstore\n        /* \"#utility.yul\":5058:5189   */\n      tag_133\n        /* \"#utility.yul\":5184:5188   */\n      dup2\n        /* \"#utility.yul\":5058:5189   */\n      tag_106\n      jump\t// in\n    tag_133:\n        /* \"#utility.yul\":5050:5189   */\n      swap1\n      pop\n        /* \"#utility.yul\":4948:5196   */\n      swap2\n      swap1\n      pop\n      jump\t// out\n        /* \"#utility.yul\":5202:5424   */\n    tag_14:\n      0x00\n        /* \"#utility.yul\":5333:5335   */\n      0x20\n        /* \"#utility.yul\":5322:5331   */\n      dup3\n        /* \"#utility.yul\":5318:5336   */\n      add\n        /* \"#utility.yul\":5310:5336   */\n      swap1\n      pop\n        /* \"#utility.yul\":5346:5417   */\n      tag_135\n        /* \"#utility.yul\":5414:5415   */\n      0x00\n        /* \"#utility.yul\":5403:5412   */\n      dup4\n        /* \"#utility.yul\":5399:5416   */\n      add\n        /* \"#utility.yul\":5390:5396   */\n      dup5\n        /* \"#utility.yul\":5346:5417   */\n      tag_109\n      jump\t// in\n    tag_135:\n        /* \"#utility.yul\":5300:5424   */\n      swap3\n      swap2\n      pop\n      pop\n      jump\t// out\n        /* \"#utility.yul\":5430:5599   */\n    tag_99:\n      0x00\n        /* \"#utility.yul\":5548:5554   */\n      dup3\n        /* \"#utility.yul\":5543:5546   */\n      dup3\n        /* \"#utility.yul\":5536:5555   */\n      mstore\n        /* \"#utility.yul\":5588:5592   */\n      0x20\n        /* \"#utility.yul\":5583:5586   */\n      dup3\n        /* \"#utility.yul\":5579:5593   */\n      add\n        /* \"#utility.yul\":5564:5593   */\n      swap1\n      pop\n        /* \"#utility.yul\":5526:5599   */\n      swap3\n      swap2\n      pop\n      pop\n      jump\t// out\n        /* \"#utility.yul\":5605:5701   */\n    tag_95:\n      0x00\n        /* \"#utility.yul\":5671:5695   */\n      tag_138\n        /* \"#utility.yul\":5689:5694   */\n      dup3\n        /* \"#utility.yul\":5671:5695   */\n      tag_139\n      jump\t// in\n    tag_138:\n        /* \"#utility.yul\":5660:5695   */\n      swap1\n      pop\n        /* \"#utility.yul\":5650:5701   */\n      swap2\n      swap1\n      pop\n      jump\t// out\n        /* \"#utility.yul\":5707:5811   */\n    tag_91:\n      0x00\n        /* \"#utility.yul\":5781:5805   */\n      tag_141\n        /* \"#utility.yul\":5799:5804   */\n      dup3\n        /* \"#utility.yul\":5781:5805   */\n      tag_139\n      jump\t// in\n    tag_141:\n        /* \"#utility.yul\":5770:5805   */\n      swap1\n      pop\n        /* \"#utility.yul\":5760:5811   */\n      swap2\n      swap1\n      pop\n      jump\t// out\n        /* \"#utility.yul\":5817:5943   */\n    tag_139:\n      0x00\n        /* \"#utility.yul\":5894:5936   */\n      0xffffffffffffffffffffffffffffffffffffffff\n        /* \"#utility.yul\":5887:5892   */\n      dup3\n        /* \"#utility.yul\":5883:5937   */\n      and\n        /* \"#utility.yul\":5872:5937   */\n      swap1\n      pop\n        /* \"#utility.yul\":5862:5943   */\n      swap2\n      swap1\n      pop\n      jump\t// out\n        /* \"#utility.yul\":5949:6026   */\n    tag_112:\n      0x00\n        /* \"#utility.yul\":6015:6020   */\n      dup2\n        /* \"#utility.yul\":6004:6020   */\n      swap1\n      pop\n        /* \"#utility.yul\":5994:6026   */\n      swap2\n      swap1\n      pop\n      jump\t// out\n        /* \"#utility.yul\":6032:6111   */\n    tag_117:\n      0x00\n        /* \"#utility.yul\":6100:6105   */\n      dup2\n        /* \"#utility.yul\":6089:6105   */\n      swap1\n      pop\n        /* \"#utility.yul\":6079:6111   */\n      swap2\n      swap1\n      pop\n      jump\t// out\n        /* \"#utility.yul\":6117:6293   */\n    tag_51:\n      0x00\n        /* \"#utility.yul\":6166:6186   */\n      tag_146\n        /* \"#utility.yul\":6184:6185   */\n      dup3\n        /* \"#utility.yul\":6166:6186   */\n      tag_112\n      jump\t// in\n    tag_146:\n        /* \"#utility.yul\":6161:6186   */\n      swap2\n      pop\n        /* \"#utility.yul\":6200:6220   */\n      tag_147\n        /* \"#utility.yul\":6218:6219   */\n      dup4\n        /* \"#utility.yul\":6200:6220   */\n      tag_112\n      jump\t// in\n    tag_147:\n        /* \"#utility.yul\":6195:6220   */\n      swap3\n      pop\n        /* \"#utility.yul\":6239:6240   */\n      dup3\n        /* \"#utility.yul\":6229:6231   */\n      tag_148\n      jumpi\n        /* \"#utility.yul\":6244:6262   */\n      tag_149\n      tag_150\n      jump\t// in\n    tag_149:\n        /* \"#utility.yul\":6229:6231   */\n    tag_148:\n        /* \"#utility.yul\":6285:6286   */\n      dup3\n        /* \"#utility.yul\":6282:6283   */\n      dup3\n        /* \"#utility.yul\":6278:6287   */\n      mod\n        /* \"#utility.yul\":6273:6287   */\n      swap1\n      pop\n        /* \"#utility.yul\":6151:6293   */\n      swap3\n      swap2\n      pop\n      pop\n      jump\t// out\n        /* \"#utility.yul\":6299:6479   */\n    tag_150:\n        /* \"#utility.yul\":6347:6424   */\n      0x4e487b7100000000000000000000000000000000000000000000000000000000\n        /* \"#utility.yul\":6344:6345   */\n      0x00\n        /* \"#utility.yul\":6337:6425   */\n      mstore\n        /* \"#utility.yul\":6444:6448   */\n      0x12\n        /* \"#utility.yul\":6441:6442   */\n      0x04\n        /* \"#utility.yul\":6434:6449   */\n      mstore\n        /* \"#utility.yul\":6468:6472   */\n      0x24\n        /* \"#utility.yul\":6465:6466   */\n      0x00\n        /* \"#utility.yul\":6458:6473   */\n      revert\n        /* \"#utility.yul\":6485:6607   */\n    tag_84:\n        /* \"#utility.yul\":6558:6582   */\n      tag_153\n        /* \"#utility.yul\":6576:6581   */\n      dup2\n        /* \"#utility.yul\":6558:6582   */\n      tag_112\n      jump\t// in\n    tag_153:\n        /* \"#utility.yul\":6551:6556   */\n      dup2\n        /* \"#utility.yul\":6548:6583   */\n      eq\n        /* \"#utility.yul\":6538:6540   */\n      tag_154\n      jumpi\n        /* \"#utility.yul\":6597:6598   */\n      0x00\n        /* \"#utility.yul\":6594:6595   */\n      dup1\n        /* \"#utility.yul\":6587:6599   */\n      revert\n        /* \"#utility.yul\":6538:6540   */\n    tag_154:\n        /* \"#utility.yul\":6528:6607   */\n      pop\n      jump\t// out\n\n    auxdata: 0xa2646970667358221220a4f114117775eb78cab3bbcd3bfc31dd6f515f502f5b07062db1a9b0f249e02964736f6c63430008000033\n}\n",
				"bytecode": {
					"linkReferences": {},
					"object": "608060405234801561001057600080fd5b50604051610b3c380380610b3c8339818101604052810190610032919061009d565b33600160006101000a81548173ffffffffffffffffffffffffffffffffffffffff021916908373ffffffffffffffffffffffffffffffffffffffff160217905550816002819055508060038190555050506100fa565b600081519050610097816100e3565b92915050565b600080604083850312156100b057600080fd5b60006100be85828601610088565b92505060206100cf85828601610088565b9150509250929050565b6000819050919050565b6100ec816100d9565b81146100f757600080fd5b50565b610a33806101096000396000f3fe6080604052600436106100705760003560e01c80638f00cbfa1161004e5780638f00cbfa146100e2578063e07644871461010d578063e97dcb6214610138578063f71d96cb1461014257610070565b8063072ea61c14610075578063481c6a75146100a05780635d495aea146100cb575b600080fd5b34801561008157600080fd5b5061008a61017f565b6040516100979190610902565b60405180910390f35b3480156100ac57600080fd5b506100b5610185565b6040516100c2919061084c565b60405180910390f35b3480156100d757600080fd5b506100e06101ab565b005b3480156100ee57600080fd5b506100f76103d8565b6040516101049190610902565b60405180910390f35b34801561011957600080fd5b506101226103de565b60405161012f9190610902565b60405180910390f35b6101406103e4565b005b34801561014e57600080fd5b506101696004803603810190610164919061060a565b6104d5565b6040516101769190610867565b60405180910390f35b60025481565b600160009054906101000a900473ffffffffffffffffffffffffffffffffffffffff1681565b600160009054906101000a900473ffffffffffffffffffffffffffffffffffffffff1673ffffffffffffffffffffffffffffffffffffffff163373ffffffffffffffffffffffffffffffffffffffff161461023b576040517f08c379a0000000000000000000000000000000000000000000000000000000008152600401610232906108a2565b60405180910390fd5b6003546000805490501015610285576040517f08c379a000000000000000000000000000000000000000000000000000000000815260040161027c906108e2565b60405180910390fd5b600080549050610293610514565b61029d9190610986565b6004819055506000600454815481106102df577f4e487b7100000000000000000000000000000000000000000000000000000000600052603260045260246000fd5b9060005260206000200160009054906101000a900473ffffffffffffffffffffffffffffffffffffffff1673ffffffffffffffffffffffffffffffffffffffff166108fc479081150290604051600060405180830381858888f1935050505015801561034f573d6000803e3d6000fd5b50600067ffffffffffffffff811115610391577f4e487b7100000000000000000000000000000000000000000000000000000000600052604160045260246000fd5b6040519080825280602002602001820160405280156103bf5781602001602082028036833780820191505090505b50600090805190602001906103d592919061054e565b50565b60045481565b60035481565b6002543414610428576040517f08c379a000000000000000000000000000000000000000000000000000000000815260040161041f906108c2565b60405180910390fd5b600a60008054905010610470576040517f08c379a000000000000000000000000000000000000000000000000000000000815260040161046790610882565b60405180910390fd5b6000339080600181540180825580915050600190039060005260206000200160009091909190916101000a81548173ffffffffffffffffffffffffffffffffffffffff021916908373ffffffffffffffffffffffffffffffffffffffff160217905550565b600081815481106104e557600080fd5b906000526020600020016000915054906101000a900473ffffffffffffffffffffffffffffffffffffffff1681565b600044426000805490506040516020016105309392919061080f565b6040516020818303038152906040528051906020012060001c905090565b8280548282559060005260206000209081019282156105c7579160200282015b828111156105c65782518260006101000a81548173ffffffffffffffffffffffffffffffffffffffff021916908373ffffffffffffffffffffffffffffffffffffffff1602179055509160200191906001019061056e565b5b5090506105d491906105d8565b5090565b5b808211156105f15760008160009055506001016105d9565b5090565b600081359050610604816109e6565b92915050565b60006020828403121561061c57600080fd5b600061062a848285016105f5565b91505092915050565b61063c81610940565b82525050565b61064b8161092e565b82525050565b600061065e60228361091d565b91507f4d6178696d756d206e756d626572206f6620706c61796572732072656163686560008301527f642e0000000000000000000000000000000000000000000000000000000000006020830152604082019050919050565b60006106c460238361091d565b91507f4f6e6c7920746865206d616e616765722063616e207069636b20612077696e6e60008301527f65722e00000000000000000000000000000000000000000000000000000000006020830152604082019050919050565b600061072a60228361091d565b91507f506c656173652073656e642074686520636f727265637420656e74727920666560008301527f652e0000000000000000000000000000000000000000000000000000000000006020830152604082019050919050565b600061079060248361091d565b91507f4e6f7420656e6f75676820706c617965727320746f207069636b20612077696e60008301527f6e65722e000000000000000000000000000000000000000000000000000000006020830152604082019050919050565b6107f281610972565b82525050565b61080961080482610972565b61097c565b82525050565b600061081b82866107f8565b60208201915061082b82856107f8565b60208201915061083b82846107f8565b602082019150819050949350505050565b60006020820190506108616000830184610642565b92915050565b600060208201905061087c6000830184610633565b92915050565b6000602082019050818103600083015261089b81610651565b9050919050565b600060208201905081810360008301526108bb816106b7565b9050919050565b600060208201905081810360008301526108db8161071d565b9050919050565b600060208201905081810360008301526108fb81610783565b9050919050565b600060208201905061091760008301846107e9565b92915050565b600082825260208201905092915050565b600061093982610952565b9050919050565b600061094b82610952565b9050919050565b600073ffffffffffffffffffffffffffffffffffffffff82169050919050565b6000819050919050565b6000819050919050565b600061099182610972565b915061099c83610972565b9250826109ac576109ab6109b7565b5b828206905092915050565b7f4e487b7100000000000000000000000000000000000000000000000000000000600052601260045260246000fd5b6109ef81610972565b81146109fa57600080fd5b5056fea2646970667358221220a4f114117775eb78cab3bbcd3bfc31dd6f515f502f5b07062db1a9b0f249e02964736f6c63430008000033",
					"opcodes": "PUSH1 0x80 PUSH1 0x40 MSTORE CALLVALUE DUP1 ISZERO PUSH2 0x10 JUMPI PUSH1 0x0 DUP1 REVERT JUMPDEST POP PUSH1 0x40 MLOAD PUSH2 0xB3C CODESIZE SUB DUP1 PUSH2 0xB3C DUP4 CODECOPY DUP2 DUP2 ADD PUSH1 0x40 MSTORE DUP2 ADD SWAP1 PUSH2 0x32 SWAP2 SWAP1 PUSH2 0x9D JUMP JUMPDEST CALLER PUSH1 0x1 PUSH1 0x0 PUSH2 0x100 EXP DUP2 SLOAD DUP2 PUSH20 0xFFFFFFFFFFFFFFFFFFFFFFFFFFFFFFFFFFFFFFFF MUL NOT AND SWAP1 DUP4 PUSH20 0xFFFFFFFFFFFFFFFFFFFFFFFFFFFFFFFFFFFFFFFF AND MUL OR SWAP1 SSTORE POP DUP2 PUSH1 0x2 DUP2 SWAP1 SSTORE POP DUP1 PUSH1 0x3 DUP2 SWAP1 SSTORE POP POP POP PUSH2 0xFA JUMP JUMPDEST PUSH1 0x0 DUP2 MLOAD SWAP1 POP PUSH2 0x97 DUP2 PUSH2 0xE3 JUMP JUMPDEST SWAP3 SWAP2 POP POP JUMP JUMPDEST PUSH1 0x0 DUP1 PUSH1 0x40 DUP4 DUP6 SUB SLT ISZERO PUSH2 0xB0 JUMPI PUSH1 0x0 DUP1 REVERT JUMPDEST PUSH1 0x0 PUSH2 0xBE DUP6 DUP3 DUP7 ADD PUSH2 0x88 JUMP JUMPDEST SWAP3 POP POP PUSH1 0x20 PUSH2 0xCF DUP6 DUP3 DUP7 ADD PUSH2 0x88 JUMP JUMPDEST SWAP2 POP POP SWAP3 POP SWAP3 SWAP1 POP JUMP JUMPDEST PUSH1 0x0 DUP2 SWAP1 POP SWAP2 SWAP1 POP JUMP JUMPDEST PUSH2 0xEC DUP2 PUSH2 0xD9 JUMP JUMPDEST DUP2 EQ PUSH2 0xF7 JUMPI PUSH1 0x0 DUP1 REVERT JUMPDEST POP JUMP JUMPDEST PUSH2 0xA33 DUP1 PUSH2 0x109 PUSH1 0x0 CODECOPY PUSH1 0x0 RETURN INVALID PUSH1 0x80 PUSH1 0x40 MSTORE PUSH1 0x4 CALLDATASIZE LT PUSH2 0x70 JUMPI PUSH1 0x0 CALLDATALOAD PUSH1 0xE0 SHR DUP1 PUSH4 0x8F00CBFA GT PUSH2 0x4E JUMPI DUP1 PUSH4 0x8F00CBFA EQ PUSH2 0xE2 JUMPI DUP1 PUSH4 0xE0764487 EQ PUSH2 0x10D JUMPI DUP1 PUSH4 0xE97DCB62 EQ PUSH2 0x138 JUMPI DUP1 PUSH4 0xF71D96CB EQ PUSH2 0x142 JUMPI PUSH2 0x70 JUMP JUMPDEST DUP1 PUSH4 0x72EA61C EQ PUSH2 0x75 JUMPI DUP1 PUSH4 0x481C6A75 EQ PUSH2 0xA0 JUMPI DUP1 PUSH4 0x5D495AEA EQ PUSH2 0xCB JUMPI JUMPDEST PUSH1 0x0 DUP1 REVERT JUMPDEST CALLVALUE DUP1 ISZERO PUSH2 0x81 JUMPI PUSH1 0x0 DUP1 REVERT JUMPDEST POP PUSH2 0x8A PUSH2 0x17F JUMP JUMPDEST PUSH1 0x40 MLOAD PUSH2 0x97 SWAP2 SWAP1 PUSH2 0x902 JUMP JUMPDEST PUSH1 0x40 MLOAD DUP1 SWAP2 SUB SWAP1 RETURN JUMPDEST CALLVALUE DUP1 ISZERO PUSH2 0xAC JUMPI PUSH1 0x0 DUP1 REVERT JUMPDEST POP PUSH2 0xB5 PUSH2 0x185 JUMP JUMPDEST PUSH1 0x40 MLOAD PUSH2 0xC2 SWAP2 SWAP1 PUSH2 0x84C JUMP JUMPDEST PUSH1 0x40 MLOAD DUP1 SWAP2 SUB SWAP1 RETURN JUMPDEST CALLVALUE DUP1 ISZERO PUSH2 0xD7 JUMPI PUSH1 0x0 DUP1 REVERT JUMPDEST POP PUSH2 0xE0 PUSH2 0x1AB JUMP JUMPDEST STOP JUMPDEST CALLVALUE DUP1 ISZERO PUSH2 0xEE JUMPI PUSH1 0x0 DUP1 REVERT JUMPDEST POP PUSH2 0xF7 PUSH2 0x3D8 JUMP JUMPDEST PUSH1 0x40 MLOAD PUSH2 0x104 SWAP2 SWAP1 PUSH2 0x902 JUMP JUMPDEST PUSH1 0x40 MLOAD DUP1 SWAP2 SUB SWAP1 RETURN JUMPDEST CALLVALUE DUP1 ISZERO PUSH2 0x119 JUMPI PUSH1 0x0 DUP1 REVERT JUMPDEST POP PUSH2 0x122 PUSH2 0x3DE JUMP JUMPDEST PUSH1 0x40 MLOAD PUSH2 0x12F SWAP2 SWAP1 PUSH2 0x902 JUMP JUMPDEST PUSH1 0x40 MLOAD DUP1 SWAP2 SUB SWAP1 RETURN JUMPDEST PUSH2 0x140 PUSH2 0x3E4 JUMP JUMPDEST STOP JUMPDEST CALLVALUE DUP1 ISZERO PUSH2 0x14E JUMPI PUSH1 0x0 DUP1 REVERT JUMPDEST POP PUSH2 0x169 PUSH1 0x4 DUP1 CALLDATASIZE SUB DUP2 ADD SWAP1 PUSH2 0x164 SWAP2 SWAP1 PUSH2 0x60A JUMP JUMPDEST PUSH2 0x4D5 JUMP JUMPDEST PUSH1 0x40 MLOAD PUSH2 0x176 SWAP2 SWAP1 PUSH2 0x867 JUMP JUMPDEST PUSH1 0x40 MLOAD DUP1 SWAP2 SUB SWAP1 RETURN JUMPDEST PUSH1 0x2 SLOAD DUP2 JUMP JUMPDEST PUSH1 0x1 PUSH1 0x0 SWAP1 SLOAD SWAP1 PUSH2 0x100 EXP SWAP1 DIV PUSH20 0xFFFFFFFFFFFFFFFFFFFFFFFFFFFFFFFFFFFFFFFF AND DUP2 JUMP JUMPDEST PUSH1 0x1 PUSH1 0x0 SWAP1 SLOAD SWAP1 PUSH2 0x100 EXP SWAP1 DIV PUSH20 0xFFFFFFFFFFFFFFFFFFFFFFFFFFFFFFFFFFFFFFFF AND PUSH20 0xFFFFFFFFFFFFFFFFFFFFFFFFFFFFFFFFFFFFFFFF AND CALLER PUSH20 0xFFFFFFFFFFFFFFFFFFFFFFFFFFFFFFFFFFFFFFFF AND EQ PUSH2 0x23B JUMPI PUSH1 0x40 MLOAD PUSH32 0x8C379A000000000000000000000000000000000000000000000000000000000 DUP2 MSTORE PUSH1 0x4 ADD PUSH2 0x232 SWAP1 PUSH2 0x8A2 JUMP JUMPDEST PUSH1 0x40 MLOAD DUP1 SWAP2 SUB SWAP1 REVERT JUMPDEST PUSH1 0x3 SLOAD PUSH1 0x0 DUP1 SLOAD SWAP1 POP LT ISZERO PUSH2 0x285 JUMPI PUSH1 0x40 MLOAD PUSH32 0x8C379A000000000000000000000000000000000000000000000000000000000 DUP2 MSTORE PUSH1 0x4 ADD PUSH2 0x27C SWAP1 PUSH2 0x8E2 JUMP JUMPDEST PUSH1 0x40 MLOAD DUP1 SWAP2 SUB SWAP1 REVERT JUMPDEST PUSH1 0x0 DUP1 SLOAD SWAP1 POP PUSH2 0x293 PUSH2 0x514 JUMP JUMPDEST PUSH2 0x29D SWAP2 SWAP1 PUSH2 0x986 JUMP JUMPDEST PUSH1 0x4 DUP2 SWAP1 SSTORE POP PUSH1 0x0 PUSH1 0x4 SLOAD DUP2 SLOAD DUP2 LT PUSH2 0x2DF JUMPI PUSH32 0x4E487B7100000000000000000000000000000000000000000000000000000000 PUSH1 0x0 MSTORE PUSH1 0x32 PUSH1 0x4 MSTORE PUSH1 0x24 PUSH1 0x0 REVERT JUMPDEST SWAP1 PUSH1 0x0 MSTORE PUSH1 0x20 PUSH1 0x0 KECCAK256 ADD PUSH1 0x0 SWAP1 SLOAD SWAP1 PUSH2 0x100 EXP SWAP1 DIV PUSH20 0xFFFFFFFFFFFFFFFFFFFFFFFFFFFFFFFFFFFFFFFF AND PUSH20 0xFFFFFFFFFFFFFFFFFFFFFFFFFFFFFFFFFFFFFFFF AND PUSH2 0x8FC SELFBALANCE SWAP1 DUP2 ISZERO MUL SWAP1 PUSH1 0x40 MLOAD PUSH1 0x0 PUSH1 0x40 MLOAD DUP1 DUP4 SUB DUP2 DUP6 DUP9 DUP9 CALL SWAP4 POP POP POP POP ISZERO DUP1 ISZERO PUSH2 0x34F JUMPI RETURNDATASIZE PUSH1 0x0 DUP1 RETURNDATACOPY RETURNDATASIZE PUSH1 0x0 REVERT JUMPDEST POP PUSH1 0x0 PUSH8 0xFFFFFFFFFFFFFFFF DUP2 GT ISZERO PUSH2 0x391 JUMPI PUSH32 0x4E487B7100000000000000000000000000000000000000000000000000000000 PUSH1 0x0 MSTORE PUSH1 0x41 PUSH1 0x4 MSTORE PUSH1 0x24 PUSH1 0x0 REVERT JUMPDEST PUSH1 0x40 MLOAD SWAP1 DUP1 DUP3 MSTORE DUP1 PUSH1 0x20 MUL PUSH1 0x20 ADD DUP3 ADD PUSH1 0x40 MSTORE DUP1 ISZERO PUSH2 0x3BF JUMPI DUP2 PUSH1 0x20 ADD PUSH1 0x20 DUP3 MUL DUP1 CALLDATASIZE DUP4 CALLDATACOPY DUP1 DUP3 ADD SWAP2 POP POP SWAP1 POP JUMPDEST POP PUSH1 0x0 SWAP1 DUP1 MLOAD SWAP1 PUSH1 0x20 ADD SWAP1 PUSH2 0x3D5 SWAP3 SWAP2 SWAP1 PUSH2 0x54E JUMP JUMPDEST POP JUMP JUMPDEST PUSH1 0x4 SLOAD DUP2 JUMP JUMPDEST PUSH1 0x3 SLOAD DUP2 JUMP JUMPDEST PUSH1 0x2 SLOAD CALLVALUE EQ PUSH2 0x428 JUMPI PUSH1 0x40 MLOAD PUSH32 0x8C379A000000000000000000000000000000000000000000000000000000000 DUP2 MSTORE PUSH1 0x4 ADD PUSH2 0x41F SWAP1 PUSH2 0x8C2 JUMP JUMPDEST PUSH1 0x40 MLOAD DUP1 SWAP2 SUB SWAP1 REVERT JUMPDEST PUSH1 0xA PUSH1 0x0 DUP1 SLOAD SWAP1 POP LT PUSH2 0x470 JUMPI PUSH1 0x40 MLOAD PUSH32 0x8C379A000000000000000000000000000000000000000000000000000000000 DUP2 MSTORE PUSH1 0x4 ADD PUSH2 0x467 SWAP1 PUSH2 0x882 JUMP JUMPDEST PUSH1 0x40 MLOAD DUP1 SWAP2 SUB SWAP1 REVERT JUMPDEST PUSH1 0x0 CALLER SWAP1 DUP1 PUSH1 0x1 DUP2 SLOAD ADD DUP1 DUP3 SSTORE DUP1 SWAP2 POP POP PUSH1 0x1 SWAP1 SUB SWAP1 PUSH1 0x0 MSTORE PUSH1 0x20 PUSH1 0x0 KECCAK256 ADD PUSH1 0x0 SWAP1 SWAP2 SWAP1 SWAP2 SWAP1 SWAP2 PUSH2 0x100 EXP DUP2 SLOAD DUP2 PUSH20 0xFFFFFFFFFFFFFFFFFFFFFFFFFFFFFFFFFFFFFFFF MUL NOT AND SWAP1 DUP4 PUSH20 0xFFFFFFFFFFFFFFFFFFFFFFFFFFFFFFFFFFFFFFFF AND MUL OR SWAP1 SSTORE POP JUMP JUMPDEST PUSH1 0x0 DUP2 DUP2 SLOAD DUP2 LT PUSH2 0x4E5 JUMPI PUSH1 0x0 DUP1 REVERT JUMPDEST SWAP1 PUSH1 0x0 MSTORE PUSH1 0x20 PUSH1 0x0 KECCAK256 ADD PUSH1 0x0 SWAP2 POP SLOAD SWAP1 PUSH2 0x100 EXP SWAP1 DIV PUSH20 0xFFFFFFFFFFFFFFFFFFFFFFFFFFFFFFFFFFFFFFFF AND DUP2 JUMP JUMPDEST PUSH1 0x0 DIFFICULTY TIMESTAMP PUSH1 0x0 DUP1 SLOAD SWAP1 POP PUSH1 0x40 MLOAD PUSH1 0x20 ADD PUSH2 0x530 SWAP4 SWAP3 SWAP2 SWAP1 PUSH2 0x80F JUMP JUMPDEST PUSH1 0x40 MLOAD PUSH1 0x20 DUP2 DUP4 SUB SUB DUP2 MSTORE SWAP1 PUSH1 0x40 MSTORE DUP1 MLOAD SWAP1 PUSH1 0x20 ADD KECCAK256 PUSH1 0x0 SHR SWAP1 POP SWAP1 JUMP JUMPDEST DUP3 DUP1 SLOAD DUP3 DUP3 SSTORE SWAP1 PUSH1 0x0 MSTORE PUSH1 0x20 PUSH1 0x0 KECCAK256 SWAP1 DUP2 ADD SWAP3 DUP3 ISZERO PUSH2 0x5C7 JUMPI SWAP2 PUSH1 0x20 MUL DUP3 ADD JUMPDEST DUP3 DUP2 GT ISZERO PUSH2 0x5C6 JUMPI DUP3 MLOAD DUP3 PUSH1 0x0 PUSH2 0x100 EXP DUP2 SLOAD DUP2 PUSH20 0xFFFFFFFFFFFFFFFFFFFFFFFFFFFFFFFFFFFFFFFF MUL NOT AND SWAP1 DUP4 PUSH20 0xFFFFFFFFFFFFFFFFFFFFFFFFFFFFFFFFFFFFFFFF AND MUL OR SWAP1 SSTORE POP SWAP2 PUSH1 0x20 ADD SWAP2 SWAP1 PUSH1 0x1 ADD SWAP1 PUSH2 0x56E JUMP JUMPDEST JUMPDEST POP SWAP1 POP PUSH2 0x5D4 SWAP2 SWAP1 PUSH2 0x5D8 JUMP JUMPDEST POP SWAP1 JUMP JUMPDEST JUMPDEST DUP1 DUP3 GT ISZERO PUSH2 0x5F1 JUMPI PUSH1 0x0 DUP2 PUSH1 0x0 SWAP1 SSTORE POP PUSH1 0x1 ADD PUSH2 0x5D9 JUMP JUMPDEST POP SWAP1 JUMP JUMPDEST PUSH1 0x0 DUP2 CALLDATALOAD SWAP1 POP PUSH2 0x604 DUP2 PUSH2 0x9E6 JUMP JUMPDEST SWAP3 SWAP2 POP POP JUMP JUMPDEST PUSH1 0x0 PUSH1 0x20 DUP3 DUP5 SUB SLT ISZERO PUSH2 0x61C JUMPI PUSH1 0x0 DUP1 REVERT JUMPDEST PUSH1 0x0 PUSH2 0x62A DUP5 DUP3 DUP6 ADD PUSH2 0x5F5 JUMP JUMPDEST SWAP2 POP POP SWAP3 SWAP2 POP POP JUMP JUMPDEST PUSH2 0x63C DUP2 PUSH2 0x940 JUMP JUMPDEST DUP3 MSTORE POP POP JUMP JUMPDEST PUSH2 0x64B DUP2 PUSH2 0x92E JUMP JUMPDEST DUP3 MSTORE POP POP JUMP JUMPDEST PUSH1 0x0 PUSH2 0x65E PUSH1 0x22 DUP4 PUSH2 0x91D JUMP JUMPDEST SWAP2 POP PUSH32 0x4D6178696D756D206E756D626572206F6620706C617965727320726561636865 PUSH1 0x0 DUP4 ADD MSTORE PUSH32 0x642E000000000000000000000000000000000000000000000000000000000000 PUSH1 0x20 DUP4 ADD MSTORE PUSH1 0x40 DUP3 ADD SWAP1 POP SWAP2 SWAP1 POP JUMP JUMPDEST PUSH1 0x0 PUSH2 0x6C4 PUSH1 0x23 DUP4 PUSH2 0x91D JUMP JUMPDEST SWAP2 POP PUSH32 0x4F6E6C7920746865206D616E616765722063616E207069636B20612077696E6E PUSH1 0x0 DUP4 ADD MSTORE PUSH32 0x65722E0000000000000000000000000000000000000000000000000000000000 PUSH1 0x20 DUP4 ADD MSTORE PUSH1 0x40 DUP3 ADD SWAP1 POP SWAP2 SWAP1 POP JUMP JUMPDEST PUSH1 0x0 PUSH2 0x72A PUSH1 0x22 DUP4 PUSH2 0x91D JUMP JUMPDEST SWAP2 POP PUSH32 0x506C656173652073656E642074686520636F727265637420656E747279206665 PUSH1 0x0 DUP4 ADD MSTORE PUSH32 0x652E000000000000000000000000000000000000000000000000000000000000 PUSH1 0x20 DUP4 ADD MSTORE PUSH1 0x40 DUP3 ADD SWAP1 POP SWAP2 SWAP1 POP JUMP JUMPDEST PUSH1 0x0 PUSH2 0x790 PUSH1 0x24 DUP4 PUSH2 0x91D JUMP JUMPDEST SWAP2 POP PUSH32 0x4E6F7420656E6F75676820706C617965727320746F207069636B20612077696E PUSH1 0x0 DUP4 ADD MSTORE PUSH32 0x6E65722E00000000000000000000000000000000000000000000000000000000 PUSH1 0x20 DUP4 ADD MSTORE PUSH1 0x40 DUP3 ADD SWAP1 POP SWAP2 SWAP1 POP JUMP JUMPDEST PUSH2 0x7F2 DUP2 PUSH2 0x972 JUMP JUMPDEST DUP3 MSTORE POP POP JUMP JUMPDEST PUSH2 0x809 PUSH2 0x804 DUP3 PUSH2 0x972 JUMP JUMPDEST PUSH2 0x97C JUMP JUMPDEST DUP3 MSTORE POP POP JUMP JUMPDEST PUSH1 0x0 PUSH2 0x81B DUP3 DUP7 PUSH2 0x7F8 JUMP JUMPDEST PUSH1 0x20 DUP3 ADD SWAP2 POP PUSH2 0x82B DUP3 DUP6 PUSH2 0x7F8 JUMP JUMPDEST PUSH1 0x20 DUP3 ADD SWAP2 POP PUSH2 0x83B DUP3 DUP5 PUSH2 0x7F8 JUMP JUMPDEST PUSH1 0x20 DUP3 ADD SWAP2 POP DUP2 SWAP1 POP SWAP5 SWAP4 POP POP POP POP JUMP JUMPDEST PUSH1 0x0 PUSH1 0x20 DUP3 ADD SWAP1 POP PUSH2 0x861 PUSH1 0x0 DUP4 ADD DUP5 PUSH2 0x642 JUMP JUMPDEST SWAP3 SWAP2 POP POP JUMP JUMPDEST PUSH1 0x0 PUSH1 0x20 DUP3 ADD SWAP1 POP PUSH2 0x87C PUSH1 0x0 DUP4 ADD DUP5 PUSH2 0x633 JUMP JUMPDEST SWAP3 SWAP2 POP POP JUMP JUMPDEST PUSH1 0x0 PUSH1 0x20 DUP3 ADD SWAP1 POP DUP2 DUP2 SUB PUSH1 0x0 DUP4 ADD MSTORE PUSH2 0x89B DUP2 PUSH2 0x651 JUMP JUMPDEST SWAP1 POP SWAP2 SWAP1 POP JUMP JUMPDEST PUSH1 0x0 PUSH1 0x20 DUP3 ADD SWAP1 POP DUP2 DUP2 SUB PUSH1 0x0 DUP4 ADD MSTORE PUSH2 0x8BB DUP2 PUSH2 0x6B7 JUMP JUMPDEST SWAP1 POP SWAP2 SWAP1 POP JUMP JUMPDEST PUSH1 0x0 PUSH1 0x20 DUP3 ADD SWAP1 POP DUP2 DUP2 SUB PUSH1 0x0 DUP4 ADD MSTORE PUSH2 0x8DB DUP2 PUSH2 0x71D JUMP JUMPDEST SWAP1 POP SWAP2 SWAP1 POP JUMP JUMPDEST PUSH1 0x0 PUSH1 0x20 DUP3 ADD SWAP1 POP DUP2 DUP2 SUB PUSH1 0x0 DUP4 ADD MSTORE PUSH2 0x8FB DUP2 PUSH2 0x783 JUMP JUMPDEST SWAP1 POP SWAP2 SWAP1 POP JUMP JUMPDEST PUSH1 0x0 PUSH1 0x20 DUP3 ADD SWAP1 POP PUSH2 0x917 PUSH1 0x0 DUP4 ADD DUP5 PUSH2 0x7E9 JUMP JUMPDEST SWAP3 SWAP2 POP POP JUMP JUMPDEST PUSH1 0x0 DUP3 DUP3 MSTORE PUSH1 0x20 DUP3 ADD SWAP1 POP SWAP3 SWAP2 POP POP JUMP JUMPDEST PUSH1 0x0 PUSH2 0x939 DUP3 PUSH2 0x952 JUMP JUMPDEST SWAP1 POP SWAP2 SWAP1 POP JUMP JUMPDEST PUSH1 0x0 PUSH2 0x94B DUP3 PUSH2 0x952 JUMP JUMPDEST SWAP1 POP SWAP2 SWAP1 POP JUMP JUMPDEST PUSH1 0x0 PUSH20 0xFFFFFFFFFFFFFFFFFFFFFFFFFFFFFFFFFFFFFFFF DUP3 AND SWAP1 POP SWAP2 SWAP1 POP JUMP JUMPDEST PUSH1 0x0 DUP2 SWAP1 POP SWAP2 SWAP1 POP JUMP JUMPDEST PUSH1 0x0 DUP2 SWAP1 POP SWAP2 SWAP1 POP JUMP JUMPDEST PUSH1 0x0 PUSH2 0x991 DUP3 PUSH2 0x972 JUMP JUMPDEST SWAP2 POP PUSH2 0x99C DUP4 PUSH2 0x972 JUMP JUMPDEST SWAP3 POP DUP3 PUSH2 0x9AC JUMPI PUSH2 0x9AB PUSH2 0x9B7 JUMP JUMPDEST JUMPDEST DUP3 DUP3 MOD SWAP1 POP SWAP3 SWAP2 POP POP JUMP JUMPDEST PUSH32 0x4E487B7100000000000000000000000000000000000000000000000000000000 PUSH1 0x0 MSTORE PUSH1 0x12 PUSH1 0x4 MSTORE PUSH1 0x24 PUSH1 0x0 REVERT JUMPDEST PUSH2 0x9EF DUP2 PUSH2 0x972 JUMP JUMPDEST DUP2 EQ PUSH2 0x9FA JUMPI PUSH1 0x0 DUP1 REVERT JUMPDEST POP JUMP INVALID LOG2 PUSH5 0x6970667358 0x22 SLT KECCAK256 LOG4 CALL EQ GT PUSH24 0x75EB78CAB3BBCD3BFC31DD6F515F502F5B07062DB1A9B0F2 0x49 0xE0 0x29 PUSH5 0x736F6C6343 STOP ADDMOD STOP STOP CALLER "
				},
				"gasEstimates": {
					"creation": {
						"codeDepositCost": "522200",
						"executionCost": "infinite",
						"totalCost": "infinite"
					},
					"external": {
						"enter()": "43595",
						"entryFee()": "1130",
						"manager()": "1237",
						"minimumPlayers()": "1151",
						"pickWinner()": "infinite",
						"players(uint256)": "2422",
						"winnerIndex()": "1129"
					},
					"internal": {
						"random()": "infinite"
					}
				},
				"methodIdentifiers": {
					"enter()": "e97dcb62",
					"entryFee()": "072ea61c",
					"manager()": "481c6a75",
					"minimumPlayers()": "e0764487",
					"pickWinner()": "5d495aea",
					"players(uint256)": "f71d96cb",
					"winnerIndex()": "8f00cbfa"
				}
			},
			"storageLayout": {
				"storage": [
					{
						"astId": 4,
						"contract": "lottery.sol/smart contract.sol:Lottery",
						"label": "players",
						"offset": 0,
						"slot": "0",
						"type": "t_array(t_address_payable)dyn_storage"
					},
					{
						"astId": 6,
						"contract": "lottery.sol/smart contract.sol:Lottery",
						"label": "manager",
						"offset": 0,
						"slot": "1",
						"type": "t_address"
					},
					{
						"astId": 8,
						"contract": "lottery.sol/smart contract.sol:Lottery",
						"label": "entryFee",
						"offset": 0,
						"slot": "2",
						"type": "t_uint256"
					},
					{
						"astId": 10,
						"contract": "lottery.sol/smart contract.sol:Lottery",
						"label": "minimumPlayers",
						"offset": 0,
						"slot": "3",
						"type": "t_uint256"
					},
					{
						"astId": 12,
						"contract": "lottery.sol/smart contract.sol:Lottery",
						"label": "winnerIndex",
						"offset": 0,
						"slot": "4",
						"type": "t_uint256"
					}
				],
				"types": {
					"t_address": {
						"encoding": "inplace",
						"label": "address",
						"numberOfBytes": "20"
					},
					"t_address_payable": {
						"encoding": "inplace",
						"label": "address payable",
						"numberOfBytes": "20"
					},
					"t_array(t_address_payable)dyn_storage": {
						"base": "t_address_payable",
						"encoding": "dynamic_array",
						"label": "address payable[]",
						"numberOfBytes": "32"
					},
					"t_uint256": {
						"encoding": "inplace",
						"label": "uint256",
						"numberOfBytes": "32"
					}
				}
			},
			"userdoc": {
				"kind": "user",
				"methods": {},
				"version": 1
			}
		}
	}
}