{
	"time lock/smart contract.sol": {
		"TimeLock": {
			"abi": [
				{
					"inputs": [
						{
							"internalType": "uint256",
							"name": "_lockTime",
							"type": "uint256"
						},
						{
							"internalType": "address[]",
							"name": "_beneficiaries",
							"type": "address[]"
						}
					],
					"stateMutability": "payable",
					"type": "constructor"
				},
				{
					"inputs": [
						{
							"internalType": "address",
							"name": "_beneficiary",
							"type": "address"
						}
					],
					"name": "addBeneficiary",
					"outputs": [],
					"stateMutability": "nonpayable",
					"type": "function"
				},
				{
					"inputs": [
						{
							"internalType": "address",
							"name": "",
							"type": "address"
						}
					],
					"name": "beneficiaries",
					"outputs": [
						{
							"internalType": "bool",
							"name": "",
							"type": "bool"
						}
					],
					"stateMutability": "view",
					"type": "function"
				},
				{
					"inputs": [],
					"name": "creationTime",
					"outputs": [
						{
							"internalType": "uint256",
							"name": "",
							"type": "uint256"
						}
					],
					"stateMutability": "view",
					"type": "function"
				},
				{
					"inputs": [
						{
							"internalType": "uint256",
							"name": "_timeToAdd",
							"type": "uint256"
						}
					],
					"name": "extendLockTime",
					"outputs": [],
					"stateMutability": "nonpayable",
					"type": "function"
				},
				{
					"inputs": [],
					"name": "lockTime",
					"outputs": [
						{
							"internalType": "uint256",
							"name": "",
							"type": "uint256"
						}
					],
					"stateMutability": "view",
					"type": "function"
				},
				{
					"inputs": [],
					"name": "owner",
					"outputs": [
						{
							"internalType": "address",
							"name": "",
							"type": "address"
						}
					],
					"stateMutability": "view",
					"type": "function"
				},
				{
					"inputs": [],
					"name": "release",
					"outputs": [],
					"stateMutability": "nonpayable",
					"type": "function"
				},
				{
					"inputs": [
						{
							"internalType": "address",
							"name": "_beneficiary",
							"type": "address"
						}
					],
					"name": "removeBeneficiary",
					"outputs": [],
					"stateMutability": "nonpayable",
					"type": "function"
				},
				{
					"inputs": [
						{
							"internalType": "uint256",
							"name": "_newLockTime",
							"type": "uint256"
						}
					],
					"name": "setLockTime",
					"outputs": [],
					"stateMutability": "nonpayable",
					"type": "function"
				},
				{
					"inputs": [],
					"name": "totalAmount",
					"outputs": [
						{
							"internalType": "uint256",
							"name": "",
							"type": "uint256"
						}
					],
					"stateMutability": "view",
					"type": "function"
				},
				{
					"stateMutability": "payable",
					"type": "receive"
				}
			],
			"devdoc": {
				"kind": "dev",
				"methods": {},
				"version": 1
			},
			"evm": {
				"assembly": "    /* \"time lock/smart contract.sol\":27:1878  contract TimeLock {\r... */\n  mstore(0x40, 0x80)\n    /* \"time lock/smart contract.sol\":225:572  constructor(uint _lockTime, address[] memory _beneficiaries) payable {\r... */\n  mload(0x40)\n  sub(codesize, bytecodeSize)\n  dup1\n  bytecodeSize\n  dup4\n  codecopy\n  dup2\n  dup2\n  add\n  0x40\n  mstore\n  dup2\n  add\n  swap1\n  tag_1\n  swap2\n  swap1\n  tag_2\n  jump\t// in\ntag_1:\n    /* \"time lock/smart contract.sol\":313:323  msg.sender */\n  caller\n    /* \"time lock/smart contract.sol\":305:310  owner */\n  0x00\n  dup1\n    /* \"time lock/smart contract.sol\":305:323  owner = msg.sender */\n  0x0100\n  exp\n  dup2\n  sload\n  dup2\n  0xffffffffffffffffffffffffffffffffffffffff\n  mul\n  not\n  and\n  swap1\n  dup4\n  0xffffffffffffffffffffffffffffffffffffffff\n  and\n  mul\n  or\n  swap1\n  sstore\n  pop\n    /* \"time lock/smart contract.sol\":345:354  _lockTime */\n  dup2\n    /* \"time lock/smart contract.sol\":334:342  lockTime */\n  0x01\n    /* \"time lock/smart contract.sol\":334:354  lockTime = _lockTime */\n  dup2\n  swap1\n  sstore\n  pop\n    /* \"time lock/smart contract.sol\":380:395  block.timestamp */\n  timestamp\n    /* \"time lock/smart contract.sol\":365:377  creationTime */\n  0x02\n    /* \"time lock/smart contract.sol\":365:395  creationTime = block.timestamp */\n  dup2\n  swap1\n  sstore\n  pop\n    /* \"time lock/smart contract.sol\":420:429  msg.value */\n  callvalue\n    /* \"time lock/smart contract.sol\":406:417  totalAmount */\n  0x03\n    /* \"time lock/smart contract.sol\":406:429  totalAmount = msg.value */\n  dup2\n  swap1\n  sstore\n  pop\n    /* \"time lock/smart contract.sol\":455:461  uint i */\n  0x00\n    /* \"time lock/smart contract.sol\":450:565  for (uint i = 0; i < _beneficiaries.length; i++) {\r... */\ntag_5:\n    /* \"time lock/smart contract.sol\":471:485  _beneficiaries */\n  dup2\n    /* \"time lock/smart contract.sol\":471:492  _beneficiaries.length */\n  mload\n    /* \"time lock/smart contract.sol\":467:468  i */\n  dup2\n    /* \"time lock/smart contract.sol\":467:492  i < _beneficiaries.length */\n  lt\n    /* \"time lock/smart contract.sol\":450:565  for (uint i = 0; i < _beneficiaries.length; i++) {\r... */\n  iszero\n  tag_6\n  jumpi\n    /* \"time lock/smart contract.sol\":549:553  true */\n  0x01\n    /* \"time lock/smart contract.sol\":514:527  beneficiaries */\n  0x04\n    /* \"time lock/smart contract.sol\":514:546  beneficiaries[_beneficiaries[i]] */\n  0x00\n    /* \"time lock/smart contract.sol\":528:542  _beneficiaries */\n  dup5\n    /* \"time lock/smart contract.sol\":543:544  i */\n  dup5\n    /* \"time lock/smart contract.sol\":528:545  _beneficiaries[i] */\n  dup2\n  mload\n  dup2\n  lt\n  tag_8\n  jumpi\n  mstore(0x00, 0x4e487b7100000000000000000000000000000000000000000000000000000000)\n  mstore(0x04, 0x32)\n  revert(0x00, 0x24)\ntag_8:\n  0x20\n  mul\n  0x20\n  add\n  add\n  mload\n    /* \"time lock/smart contract.sol\":514:546  beneficiaries[_beneficiaries[i]] */\n  0xffffffffffffffffffffffffffffffffffffffff\n  and\n  0xffffffffffffffffffffffffffffffffffffffff\n  and\n  dup2\n  mstore\n  0x20\n  add\n  swap1\n  dup2\n  mstore\n  0x20\n  add\n  0x00\n  keccak256\n  0x00\n    /* \"time lock/smart contract.sol\":514:553  beneficiaries[_beneficiaries[i]] = true */\n  0x0100\n  exp\n  dup2\n  sload\n  dup2\n  0xff\n  mul\n  not\n  and\n  swap1\n  dup4\n  iszero\n  iszero\n  mul\n  or\n  swap1\n  sstore\n  pop\n    /* \"time lock/smart contract.sol\":494:497  i++ */\n  dup1\n  dup1\n  tag_9\n  swap1\n  tag_10\n  jump\t// in\ntag_9:\n  swap2\n  pop\n  pop\n    /* \"time lock/smart contract.sol\":450:565  for (uint i = 0; i < _beneficiaries.length; i++) {\r... */\n  jump(tag_5)\ntag_6:\n  pop\n    /* \"time lock/smart contract.sol\":225:572  constructor(uint _lockTime, address[] memory _beneficiaries) payable {\r... */\n  pop\n  pop\n    /* \"time lock/smart contract.sol\":27:1878  contract TimeLock {\r... */\n  jump(tag_11)\n    /* \"#utility.yul\":24:668   */\ntag_13:\n  0x00\n    /* \"#utility.yul\":156:236   */\n  tag_15\n    /* \"#utility.yul\":171:235   */\n  tag_16\n    /* \"#utility.yul\":228:234   */\n  dup5\n    /* \"#utility.yul\":171:235   */\n  tag_17\n  jump\t// in\ntag_16:\n    /* \"#utility.yul\":156:236   */\n  tag_18\n  jump\t// in\ntag_15:\n    /* \"#utility.yul\":147:236   */\n  swap1\n  pop\n    /* \"#utility.yul\":256:261   */\n  dup1\n    /* \"#utility.yul\":284:290   */\n  dup4\n    /* \"#utility.yul\":277:282   */\n  dup3\n    /* \"#utility.yul\":270:291   */\n  mstore\n    /* \"#utility.yul\":310:314   */\n  0x20\n    /* \"#utility.yul\":303:308   */\n  dup3\n    /* \"#utility.yul\":299:315   */\n  add\n    /* \"#utility.yul\":292:315   */\n  swap1\n  pop\n    /* \"#utility.yul\":335:341   */\n  dup3\n    /* \"#utility.yul\":385:388   */\n  dup6\n    /* \"#utility.yul\":377:381   */\n  0x20\n    /* \"#utility.yul\":369:375   */\n  dup7\n    /* \"#utility.yul\":365:382   */\n  mul\n    /* \"#utility.yul\":360:363   */\n  dup3\n    /* \"#utility.yul\":356:383   */\n  add\n    /* \"#utility.yul\":353:389   */\n  gt\n    /* \"#utility.yul\":350:352   */\n  iszero\n  tag_19\n  jumpi\n    /* \"#utility.yul\":402:403   */\n  0x00\n    /* \"#utility.yul\":399:400   */\n  dup1\n    /* \"#utility.yul\":392:404   */\n  revert\n    /* \"#utility.yul\":350:352   */\ntag_19:\n    /* \"#utility.yul\":430:431   */\n  0x00\n    /* \"#utility.yul\":415:662   */\ntag_20:\n    /* \"#utility.yul\":440:446   */\n  dup6\n    /* \"#utility.yul\":437:438   */\n  dup2\n    /* \"#utility.yul\":434:447   */\n  lt\n    /* \"#utility.yul\":415:662   */\n  iszero\n  tag_22\n  jumpi\n    /* \"#utility.yul\":507:510   */\n  dup2\n    /* \"#utility.yul\":535:583   */\n  tag_23\n    /* \"#utility.yul\":579:582   */\n  dup9\n    /* \"#utility.yul\":567:577   */\n  dup3\n    /* \"#utility.yul\":535:583   */\n  tag_24\n  jump\t// in\ntag_23:\n    /* \"#utility.yul\":530:533   */\n  dup5\n    /* \"#utility.yul\":523:584   */\n  mstore\n    /* \"#utility.yul\":613:617   */\n  0x20\n    /* \"#utility.yul\":608:611   */\n  dup5\n    /* \"#utility.yul\":604:618   */\n  add\n    /* \"#utility.yul\":597:618   */\n  swap4\n  pop\n    /* \"#utility.yul\":647:651   */\n  0x20\n    /* \"#utility.yul\":642:645   */\n  dup4\n    /* \"#utility.yul\":638:652   */\n  add\n    /* \"#utility.yul\":631:652   */\n  swap3\n  pop\n    /* \"#utility.yul\":475:662   */\n  pop\n    /* \"#utility.yul\":462:463   */\n  0x01\n    /* \"#utility.yul\":459:460   */\n  dup2\n    /* \"#utility.yul\":455:464   */\n  add\n    /* \"#utility.yul\":450:464   */\n  swap1\n  pop\n    /* \"#utility.yul\":415:662   */\n  jump(tag_20)\ntag_22:\n    /* \"#utility.yul\":419:433   */\n  pop\n    /* \"#utility.yul\":137:668   */\n  pop\n  pop\n  swap4\n  swap3\n  pop\n  pop\n  pop\n  jump\t// out\n    /* \"#utility.yul\":674:817   */\ntag_24:\n  0x00\n    /* \"#utility.yul\":762:768   */\n  dup2\n    /* \"#utility.yul\":756:769   */\n  mload\n    /* \"#utility.yul\":747:769   */\n  swap1\n  pop\n    /* \"#utility.yul\":778:811   */\n  tag_26\n    /* \"#utility.yul\":805:810   */\n  dup2\n    /* \"#utility.yul\":778:811   */\n  tag_27\n  jump\t// in\ntag_26:\n    /* \"#utility.yul\":737:817   */\n  swap3\n  swap2\n  pop\n  pop\n  jump\t// out\n    /* \"#utility.yul\":840:1158   */\ntag_28:\n  0x00\n    /* \"#utility.yul\":971:974   */\n  dup3\n    /* \"#utility.yul\":964:968   */\n  0x1f\n    /* \"#utility.yul\":956:962   */\n  dup4\n    /* \"#utility.yul\":952:969   */\n  add\n    /* \"#utility.yul\":948:975   */\n  slt\n    /* \"#utility.yul\":938:940   */\n  tag_30\n  jumpi\n    /* \"#utility.yul\":989:990   */\n  0x00\n    /* \"#utility.yul\":986:987   */\n  dup1\n    /* \"#utility.yul\":979:991   */\n  revert\n    /* \"#utility.yul\":938:940   */\ntag_30:\n    /* \"#utility.yul\":1022:1028   */\n  dup2\n    /* \"#utility.yul\":1016:1029   */\n  mload\n    /* \"#utility.yul\":1047:1152   */\n  tag_31\n    /* \"#utility.yul\":1148:1151   */\n  dup5\n    /* \"#utility.yul\":1140:1146   */\n  dup3\n    /* \"#utility.yul\":1133:1137   */\n  0x20\n    /* \"#utility.yul\":1125:1131   */\n  dup7\n    /* \"#utility.yul\":1121:1138   */\n  add\n    /* \"#utility.yul\":1047:1152   */\n  tag_13\n  jump\t// in\ntag_31:\n    /* \"#utility.yul\":1038:1152   */\n  swap2\n  pop\n    /* \"#utility.yul\":928:1158   */\n  pop\n  swap3\n  swap2\n  pop\n  pop\n  jump\t// out\n    /* \"#utility.yul\":1164:1307   */\ntag_32:\n  0x00\n    /* \"#utility.yul\":1252:1258   */\n  dup2\n    /* \"#utility.yul\":1246:1259   */\n  mload\n    /* \"#utility.yul\":1237:1259   */\n  swap1\n  pop\n    /* \"#utility.yul\":1268:1301   */\n  tag_34\n    /* \"#utility.yul\":1295:1300   */\n  dup2\n    /* \"#utility.yul\":1268:1301   */\n  tag_35\n  jump\t// in\ntag_34:\n    /* \"#utility.yul\":1227:1307   */\n  swap3\n  swap2\n  pop\n  pop\n  jump\t// out\n    /* \"#utility.yul\":1313:1889   */\ntag_2:\n  0x00\n  dup1\n    /* \"#utility.yul\":1474:1476   */\n  0x40\n    /* \"#utility.yul\":1462:1471   */\n  dup4\n    /* \"#utility.yul\":1453:1460   */\n  dup6\n    /* \"#utility.yul\":1449:1472   */\n  sub\n    /* \"#utility.yul\":1445:1477   */\n  slt\n    /* \"#utility.yul\":1442:1444   */\n  iszero\n  tag_37\n  jumpi\n    /* \"#utility.yul\":1490:1491   */\n  0x00\n    /* \"#utility.yul\":1487:1488   */\n  dup1\n    /* \"#utility.yul\":1480:1492   */\n  revert\n    /* \"#utility.yul\":1442:1444   */\ntag_37:\n    /* \"#utility.yul\":1533:1534   */\n  0x00\n    /* \"#utility.yul\":1558:1622   */\n  tag_38\n    /* \"#utility.yul\":1614:1621   */\n  dup6\n    /* \"#utility.yul\":1605:1611   */\n  dup3\n    /* \"#utility.yul\":1594:1603   */\n  dup7\n    /* \"#utility.yul\":1590:1612   */\n  add\n    /* \"#utility.yul\":1558:1622   */\n  tag_32\n  jump\t// in\ntag_38:\n    /* \"#utility.yul\":1548:1622   */\n  swap3\n  pop\n    /* \"#utility.yul\":1504:1632   */\n  pop\n    /* \"#utility.yul\":1692:1694   */\n  0x20\n    /* \"#utility.yul\":1681:1690   */\n  dup4\n    /* \"#utility.yul\":1677:1695   */\n  add\n    /* \"#utility.yul\":1671:1696   */\n  mload\n    /* \"#utility.yul\":1723:1741   */\n  0xffffffffffffffff\n    /* \"#utility.yul\":1715:1721   */\n  dup2\n    /* \"#utility.yul\":1712:1742   */\n  gt\n    /* \"#utility.yul\":1709:1711   */\n  iszero\n  tag_39\n  jumpi\n    /* \"#utility.yul\":1755:1756   */\n  0x00\n    /* \"#utility.yul\":1752:1753   */\n  dup1\n    /* \"#utility.yul\":1745:1757   */\n  revert\n    /* \"#utility.yul\":1709:1711   */\ntag_39:\n    /* \"#utility.yul\":1783:1872   */\n  tag_40\n    /* \"#utility.yul\":1864:1871   */\n  dup6\n    /* \"#utility.yul\":1855:1861   */\n  dup3\n    /* \"#utility.yul\":1844:1853   */\n  dup7\n    /* \"#utility.yul\":1840:1862   */\n  add\n    /* \"#utility.yul\":1783:1872   */\n  tag_28\n  jump\t// in\ntag_40:\n    /* \"#utility.yul\":1773:1872   */\n  swap2\n  pop\n    /* \"#utility.yul\":1642:1882   */\n  pop\n    /* \"#utility.yul\":1432:1889   */\n  swap3\n  pop\n  swap3\n  swap1\n  pop\n  jump\t// out\n    /* \"#utility.yul\":1895:2178   */\ntag_18:\n  0x00\n    /* \"#utility.yul\":1961:1963   */\n  0x40\n    /* \"#utility.yul\":1955:1964   */\n  mload\n    /* \"#utility.yul\":1945:1964   */\n  swap1\n  pop\n    /* \"#utility.yul\":2003:2007   */\n  dup2\n    /* \"#utility.yul\":1995:2001   */\n  dup2\n    /* \"#utility.yul\":1991:2008   */\n  add\n    /* \"#utility.yul\":2110:2116   */\n  dup2\n    /* \"#utility.yul\":2098:2108   */\n  dup2\n    /* \"#utility.yul\":2095:2117   */\n  lt\n    /* \"#utility.yul\":2074:2092   */\n  0xffffffffffffffff\n    /* \"#utility.yul\":2062:2072   */\n  dup3\n    /* \"#utility.yul\":2059:2093   */\n  gt\n    /* \"#utility.yul\":2056:2118   */\n  or\n    /* \"#utility.yul\":2053:2055   */\n  iszero\n  tag_42\n  jumpi\n    /* \"#utility.yul\":2121:2139   */\n  tag_43\n  tag_44\n  jump\t// in\ntag_43:\n    /* \"#utility.yul\":2053:2055   */\ntag_42:\n    /* \"#utility.yul\":2161:2171   */\n  dup1\n    /* \"#utility.yul\":2157:2159   */\n  0x40\n    /* \"#utility.yul\":2150:2172   */\n  mstore\n    /* \"#utility.yul\":1935:2178   */\n  pop\n  swap2\n  swap1\n  pop\n  jump\t// out\n    /* \"#utility.yul\":2184:2495   */\ntag_17:\n  0x00\n    /* \"#utility.yul\":2351:2369   */\n  0xffffffffffffffff\n    /* \"#utility.yul\":2343:2349   */\n  dup3\n    /* \"#utility.yul\":2340:2370   */\n  gt\n    /* \"#utility.yul\":2337:2339   */\n  iszero\n  tag_46\n  jumpi\n    /* \"#utility.yul\":2373:2391   */\n  tag_47\n  tag_44\n  jump\t// in\ntag_47:\n    /* \"#utility.yul\":2337:2339   */\ntag_46:\n    /* \"#utility.yul\":2423:2427   */\n  0x20\n    /* \"#utility.yul\":2415:2421   */\n  dup3\n    /* \"#utility.yul\":2411:2428   */\n  mul\n    /* \"#utility.yul\":2403:2428   */\n  swap1\n  pop\n    /* \"#utility.yul\":2483:2487   */\n  0x20\n    /* \"#utility.yul\":2477:2481   */\n  dup2\n    /* \"#utility.yul\":2473:2488   */\n  add\n    /* \"#utility.yul\":2465:2488   */\n  swap1\n  pop\n    /* \"#utility.yul\":2266:2495   */\n  swap2\n  swap1\n  pop\n  jump\t// out\n    /* \"#utility.yul\":2501:2597   */\ntag_48:\n  0x00\n    /* \"#utility.yul\":2567:2591   */\n  tag_50\n    /* \"#utility.yul\":2585:2590   */\n  dup3\n    /* \"#utility.yul\":2567:2591   */\n  tag_51\n  jump\t// in\ntag_50:\n    /* \"#utility.yul\":2556:2591   */\n  swap1\n  pop\n    /* \"#utility.yul\":2546:2597   */\n  swap2\n  swap1\n  pop\n  jump\t// out\n    /* \"#utility.yul\":2603:2729   */\ntag_51:\n  0x00\n    /* \"#utility.yul\":2680:2722   */\n  0xffffffffffffffffffffffffffffffffffffffff\n    /* \"#utility.yul\":2673:2678   */\n  dup3\n    /* \"#utility.yul\":2669:2723   */\n  and\n    /* \"#utility.yul\":2658:2723   */\n  swap1\n  pop\n    /* \"#utility.yul\":2648:2729   */\n  swap2\n  swap1\n  pop\n  jump\t// out\n    /* \"#utility.yul\":2735:2812   */\ntag_53:\n  0x00\n    /* \"#utility.yul\":2801:2806   */\n  dup2\n    /* \"#utility.yul\":2790:2806   */\n  swap1\n  pop\n    /* \"#utility.yul\":2780:2812   */\n  swap2\n  swap1\n  pop\n  jump\t// out\n    /* \"#utility.yul\":2818:3051   */\ntag_10:\n  0x00\n    /* \"#utility.yul\":2880:2904   */\n  tag_56\n    /* \"#utility.yul\":2898:2903   */\n  dup3\n    /* \"#utility.yul\":2880:2904   */\n  tag_53\n  jump\t// in\ntag_56:\n    /* \"#utility.yul\":2871:2904   */\n  swap2\n  pop\n    /* \"#utility.yul\":2926:2992   */\n  0xffffffffffffffffffffffffffffffffffffffffffffffffffffffffffffffff\n    /* \"#utility.yul\":2919:2924   */\n  dup3\n    /* \"#utility.yul\":2916:2993   */\n  eq\n    /* \"#utility.yul\":2913:2915   */\n  iszero\n  tag_57\n  jumpi\n    /* \"#utility.yul\":2996:3014   */\n  tag_58\n  tag_59\n  jump\t// in\ntag_58:\n    /* \"#utility.yul\":2913:2915   */\ntag_57:\n    /* \"#utility.yul\":3043:3044   */\n  0x01\n    /* \"#utility.yul\":3036:3041   */\n  dup3\n    /* \"#utility.yul\":3032:3045   */\n  add\n    /* \"#utility.yul\":3025:3045   */\n  swap1\n  pop\n    /* \"#utility.yul\":2861:3051   */\n  swap2\n  swap1\n  pop\n  jump\t// out\n    /* \"#utility.yul\":3057:3237   */\ntag_59:\n    /* \"#utility.yul\":3105:3182   */\n  0x4e487b7100000000000000000000000000000000000000000000000000000000\n    /* \"#utility.yul\":3102:3103   */\n  0x00\n    /* \"#utility.yul\":3095:3183   */\n  mstore\n    /* \"#utility.yul\":3202:3206   */\n  0x11\n    /* \"#utility.yul\":3199:3200   */\n  0x04\n    /* \"#utility.yul\":3192:3207   */\n  mstore\n    /* \"#utility.yul\":3226:3230   */\n  0x24\n    /* \"#utility.yul\":3223:3224   */\n  0x00\n    /* \"#utility.yul\":3216:3231   */\n  revert\n    /* \"#utility.yul\":3243:3423   */\ntag_44:\n    /* \"#utility.yul\":3291:3368   */\n  0x4e487b7100000000000000000000000000000000000000000000000000000000\n    /* \"#utility.yul\":3288:3289   */\n  0x00\n    /* \"#utility.yul\":3281:3369   */\n  mstore\n    /* \"#utility.yul\":3388:3392   */\n  0x41\n    /* \"#utility.yul\":3385:3386   */\n  0x04\n    /* \"#utility.yul\":3378:3393   */\n  mstore\n    /* \"#utility.yul\":3412:3416   */\n  0x24\n    /* \"#utility.yul\":3409:3410   */\n  0x00\n    /* \"#utility.yul\":3402:3417   */\n  revert\n    /* \"#utility.yul\":3429:3551   */\ntag_27:\n    /* \"#utility.yul\":3502:3526   */\n  tag_63\n    /* \"#utility.yul\":3520:3525   */\n  dup2\n    /* \"#utility.yul\":3502:3526   */\n  tag_48\n  jump\t// in\ntag_63:\n    /* \"#utility.yul\":3495:3500   */\n  dup2\n    /* \"#utility.yul\":3492:3527   */\n  eq\n    /* \"#utility.yul\":3482:3484   */\n  tag_64\n  jumpi\n    /* \"#utility.yul\":3541:3542   */\n  0x00\n    /* \"#utility.yul\":3538:3539   */\n  dup1\n    /* \"#utility.yul\":3531:3543   */\n  revert\n    /* \"#utility.yul\":3482:3484   */\ntag_64:\n    /* \"#utility.yul\":3472:3551   */\n  pop\n  jump\t// out\n    /* \"#utility.yul\":3557:3679   */\ntag_35:\n    /* \"#utility.yul\":3630:3654   */\n  tag_66\n    /* \"#utility.yul\":3648:3653   */\n  dup2\n    /* \"#utility.yul\":3630:3654   */\n  tag_53\n  jump\t// in\ntag_66:\n    /* \"#utility.yul\":3623:3628   */\n  dup2\n    /* \"#utility.yul\":3620:3655   */\n  eq\n    /* \"#utility.yul\":3610:3612   */\n  tag_67\n  jumpi\n    /* \"#utility.yul\":3669:3670   */\n  0x00\n    /* \"#utility.yul\":3666:3667   */\n  dup1\n    /* \"#utility.yul\":3659:3671   */\n  revert\n    /* \"#utility.yul\":3610:3612   */\ntag_67:\n    /* \"#utility.yul\":3600:3679   */\n  pop\n  jump\t// out\n    /* \"time lock/smart contract.sol\":27:1878  contract TimeLock {\r... */\ntag_11:\n  dataSize(sub_0)\n  dup1\n  dataOffset(sub_0)\n  0x00\n  codecopy\n  0x00\n  return\nstop\n\nsub_0: assembly {\n        /* \"time lock/smart contract.sol\":27:1878  contract TimeLock {\r... */\n      mstore(0x40, 0x80)\n      jumpi(tag_1, lt(calldatasize, 0x04))\n      shr(0xe0, calldataload(0x00))\n      dup1\n      0x828047a5\n      gt\n      tag_13\n      jumpi\n      dup1\n      0x828047a5\n      eq\n      tag_8\n      jumpi\n      dup1\n      0x86d1a69f\n      eq\n      tag_9\n      jumpi\n      dup1\n      0x8da5cb5b\n      eq\n      tag_10\n      jumpi\n      dup1\n      0xae04d45d\n      eq\n      tag_11\n      jumpi\n      dup1\n      0xd8270dce\n      eq\n      tag_12\n      jumpi\n      jump(tag_2)\n    tag_13:\n      dup1\n      0x01567739\n      eq\n      tag_3\n      jumpi\n      dup1\n      0x0d668087\n      eq\n      tag_4\n      jumpi\n      dup1\n      0x1a39d8ef\n      eq\n      tag_5\n      jumpi\n      dup1\n      0x5926651d\n      eq\n      tag_6\n      jumpi\n      dup1\n      0x59633a1c\n      eq\n      tag_7\n      jumpi\n      jump(tag_2)\n    tag_1:\n      jumpi(tag_2, calldatasize)\n        /* \"time lock/smart contract.sol\":1858:1867  msg.value */\n      callvalue\n        /* \"time lock/smart contract.sol\":1843:1854  totalAmount */\n      0x03\n      0x00\n        /* \"time lock/smart contract.sol\":1843:1867  totalAmount += msg.value */\n      dup3\n      dup3\n      sload\n      tag_16\n      swap2\n      swap1\n      tag_17\n      jump\t// in\n    tag_16:\n      swap3\n      pop\n      pop\n      dup2\n      swap1\n      sstore\n      pop\n        /* \"time lock/smart contract.sol\":27:1878  contract TimeLock {\r... */\n      stop\n    tag_2:\n      0x00\n      dup1\n      revert\n        /* \"time lock/smart contract.sol\":167:212  mapping(address => bool) public beneficiaries */\n    tag_3:\n      callvalue\n      dup1\n      iszero\n      tag_18\n      jumpi\n      0x00\n      dup1\n      revert\n    tag_18:\n      pop\n      tag_19\n      0x04\n      dup1\n      calldatasize\n      sub\n      dup2\n      add\n      swap1\n      tag_20\n      swap2\n      swap1\n      tag_21\n      jump\t// in\n    tag_20:\n      tag_22\n      jump\t// in\n    tag_19:\n      mload(0x40)\n      tag_23\n      swap2\n      swap1\n      tag_24\n      jump\t// in\n    tag_23:\n      mload(0x40)\n      dup1\n      swap2\n      sub\n      swap1\n      return\n        /* \"time lock/smart contract.sol\":79:99  uint public lockTime */\n    tag_4:\n      callvalue\n      dup1\n      iszero\n      tag_25\n      jumpi\n      0x00\n      dup1\n      revert\n    tag_25:\n      pop\n      tag_26\n      tag_27\n      jump\t// in\n    tag_26:\n      mload(0x40)\n      tag_28\n      swap2\n      swap1\n      tag_29\n      jump\t// in\n    tag_28:\n      mload(0x40)\n      dup1\n      swap2\n      sub\n      swap1\n      return\n        /* \"time lock/smart contract.sol\":137:160  uint public totalAmount */\n    tag_5:\n      callvalue\n      dup1\n      iszero\n      tag_30\n      jumpi\n      0x00\n      dup1\n      revert\n    tag_30:\n      pop\n      tag_31\n      tag_32\n      jump\t// in\n    tag_31:\n      mload(0x40)\n      tag_33\n      swap2\n      swap1\n      tag_29\n      jump\t// in\n    tag_33:\n      mload(0x40)\n      dup1\n      swap2\n      sub\n      swap1\n      return\n        /* \"time lock/smart contract.sol\":961:1146  function addBeneficiary(address _beneficiary) public {\r... */\n    tag_6:\n      callvalue\n      dup1\n      iszero\n      tag_34\n      jumpi\n      0x00\n      dup1\n      revert\n    tag_34:\n      pop\n      tag_35\n      0x04\n      dup1\n      calldatasize\n      sub\n      dup2\n      add\n      swap1\n      tag_36\n      swap2\n      swap1\n      tag_21\n      jump\t// in\n    tag_36:\n      tag_37\n      jump\t// in\n    tag_35:\n      stop\n        /* \"time lock/smart contract.sol\":1154:1346  function removeBeneficiary(address _beneficiary) public {\r... */\n    tag_7:\n      callvalue\n      dup1\n      iszero\n      tag_38\n      jumpi\n      0x00\n      dup1\n      revert\n    tag_38:\n      pop\n      tag_39\n      0x04\n      dup1\n      calldatasize\n      sub\n      dup2\n      add\n      swap1\n      tag_40\n      swap2\n      swap1\n      tag_21\n      jump\t// in\n    tag_40:\n      tag_41\n      jump\t// in\n    tag_39:\n      stop\n        /* \"time lock/smart contract.sol\":1626:1797  function extendLockTime(uint _timeToAdd) public {\r... */\n    tag_8:\n      callvalue\n      dup1\n      iszero\n      tag_42\n      jumpi\n      0x00\n      dup1\n      revert\n    tag_42:\n      pop\n      tag_43\n      0x04\n      dup1\n      calldatasize\n      sub\n      dup2\n      add\n      swap1\n      tag_44\n      swap2\n      swap1\n      tag_45\n      jump\t// in\n    tag_44:\n      tag_46\n      jump\t// in\n    tag_43:\n      stop\n        /* \"time lock/smart contract.sol\":580:953  function release() public {\r... */\n    tag_9:\n      callvalue\n      dup1\n      iszero\n      tag_47\n      jumpi\n      0x00\n      dup1\n      revert\n    tag_47:\n      pop\n      tag_48\n      tag_49\n      jump\t// in\n    tag_48:\n      stop\n        /* \"time lock/smart contract.sol\":52:72  address public owner */\n    tag_10:\n      callvalue\n      dup1\n      iszero\n      tag_50\n      jumpi\n      0x00\n      dup1\n      revert\n    tag_50:\n      pop\n      tag_51\n      tag_52\n      jump\t// in\n    tag_51:\n      mload(0x40)\n      tag_53\n      swap2\n      swap1\n      tag_54\n      jump\t// in\n    tag_53:\n      mload(0x40)\n      dup1\n      swap2\n      sub\n      swap1\n      return\n        /* \"time lock/smart contract.sol\":1354:1618  function setLockTime(uint _newLockTime) public {\r... */\n    tag_11:\n      callvalue\n      dup1\n      iszero\n      tag_55\n      jumpi\n      0x00\n      dup1\n      revert\n    tag_55:\n      pop\n      tag_56\n      0x04\n      dup1\n      calldatasize\n      sub\n      dup2\n      add\n      swap1\n      tag_57\n      swap2\n      swap1\n      tag_45\n      jump\t// in\n    tag_57:\n      tag_58\n      jump\t// in\n    tag_56:\n      stop\n        /* \"time lock/smart contract.sol\":106:130  uint public creationTime */\n    tag_12:\n      callvalue\n      dup1\n      iszero\n      tag_59\n      jumpi\n      0x00\n      dup1\n      revert\n    tag_59:\n      pop\n      tag_60\n      tag_61\n      jump\t// in\n    tag_60:\n      mload(0x40)\n      tag_62\n      swap2\n      swap1\n      tag_29\n      jump\t// in\n    tag_62:\n      mload(0x40)\n      dup1\n      swap2\n      sub\n      swap1\n      return\n        /* \"time lock/smart contract.sol\":167:212  mapping(address => bool) public beneficiaries */\n    tag_22:\n      mstore(0x20, 0x04)\n      dup1\n      0x00\n      mstore\n      keccak256(0x00, 0x40)\n      0x00\n      swap2\n      pop\n      sload\n      swap1\n      0x0100\n      exp\n      swap1\n      div\n      0xff\n      and\n      dup2\n      jump\t// out\n        /* \"time lock/smart contract.sol\":79:99  uint public lockTime */\n    tag_27:\n      sload(0x01)\n      dup2\n      jump\t// out\n        /* \"time lock/smart contract.sol\":137:160  uint public totalAmount */\n    tag_32:\n      sload(0x03)\n      dup2\n      jump\t// out\n        /* \"time lock/smart contract.sol\":961:1146  function addBeneficiary(address _beneficiary) public {\r... */\n    tag_37:\n        /* \"time lock/smart contract.sol\":1047:1052  owner */\n      0x00\n      dup1\n      sload\n      swap1\n      0x0100\n      exp\n      swap1\n      div\n      0xffffffffffffffffffffffffffffffffffffffff\n      and\n        /* \"time lock/smart contract.sol\":1033:1052  msg.sender == owner */\n      0xffffffffffffffffffffffffffffffffffffffff\n      and\n        /* \"time lock/smart contract.sol\":1033:1043  msg.sender */\n      caller\n        /* \"time lock/smart contract.sol\":1033:1052  msg.sender == owner */\n      0xffffffffffffffffffffffffffffffffffffffff\n      and\n      eq\n        /* \"time lock/smart contract.sol\":1025:1093  require(msg.sender == owner, \"Only the owner can add beneficiaries\") */\n      tag_64\n      jumpi\n      mload(0x40)\n      0x08c379a000000000000000000000000000000000000000000000000000000000\n      dup2\n      mstore\n      0x04\n      add\n      tag_65\n      swap1\n      tag_66\n      jump\t// in\n    tag_65:\n      mload(0x40)\n      dup1\n      swap2\n      sub\n      swap1\n      revert\n    tag_64:\n        /* \"time lock/smart contract.sol\":1134:1138  true */\n      0x01\n        /* \"time lock/smart contract.sol\":1104:1117  beneficiaries */\n      0x04\n        /* \"time lock/smart contract.sol\":1104:1131  beneficiaries[_beneficiary] */\n      0x00\n        /* \"time lock/smart contract.sol\":1118:1130  _beneficiary */\n      dup4\n        /* \"time lock/smart contract.sol\":1104:1131  beneficiaries[_beneficiary] */\n      0xffffffffffffffffffffffffffffffffffffffff\n      and\n      0xffffffffffffffffffffffffffffffffffffffff\n      and\n      dup2\n      mstore\n      0x20\n      add\n      swap1\n      dup2\n      mstore\n      0x20\n      add\n      0x00\n      keccak256\n      0x00\n        /* \"time lock/smart contract.sol\":1104:1138  beneficiaries[_beneficiary] = true */\n      0x0100\n      exp\n      dup2\n      sload\n      dup2\n      0xff\n      mul\n      not\n      and\n      swap1\n      dup4\n      iszero\n      iszero\n      mul\n      or\n      swap1\n      sstore\n      pop\n        /* \"time lock/smart contract.sol\":961:1146  function addBeneficiary(address _beneficiary) public {\r... */\n      pop\n      jump\t// out\n        /* \"time lock/smart contract.sol\":1154:1346  function removeBeneficiary(address _beneficiary) public {\r... */\n    tag_41:\n        /* \"time lock/smart contract.sol\":1243:1248  owner */\n      0x00\n      dup1\n      sload\n      swap1\n      0x0100\n      exp\n      swap1\n      div\n      0xffffffffffffffffffffffffffffffffffffffff\n      and\n        /* \"time lock/smart contract.sol\":1229:1248  msg.sender == owner */\n      0xffffffffffffffffffffffffffffffffffffffff\n      and\n        /* \"time lock/smart contract.sol\":1229:1239  msg.sender */\n      caller\n        /* \"time lock/smart contract.sol\":1229:1248  msg.sender == owner */\n      0xffffffffffffffffffffffffffffffffffffffff\n      and\n      eq\n        /* \"time lock/smart contract.sol\":1221:1292  require(msg.sender == owner, \"Only the owner can remove beneficiaries\") */\n      tag_68\n      jumpi\n      mload(0x40)\n      0x08c379a000000000000000000000000000000000000000000000000000000000\n      dup2\n      mstore\n      0x04\n      add\n      tag_69\n      swap1\n      tag_70\n      jump\t// in\n    tag_69:\n      mload(0x40)\n      dup1\n      swap2\n      sub\n      swap1\n      revert\n    tag_68:\n        /* \"time lock/smart contract.sol\":1333:1338  false */\n      0x00\n        /* \"time lock/smart contract.sol\":1303:1316  beneficiaries */\n      0x04\n        /* \"time lock/smart contract.sol\":1303:1330  beneficiaries[_beneficiary] */\n      0x00\n        /* \"time lock/smart contract.sol\":1317:1329  _beneficiary */\n      dup4\n        /* \"time lock/smart contract.sol\":1303:1330  beneficiaries[_beneficiary] */\n      0xffffffffffffffffffffffffffffffffffffffff\n      and\n      0xffffffffffffffffffffffffffffffffffffffff\n      and\n      dup2\n      mstore\n      0x20\n      add\n      swap1\n      dup2\n      mstore\n      0x20\n      add\n      0x00\n      keccak256\n      0x00\n        /* \"time lock/smart contract.sol\":1303:1338  beneficiaries[_beneficiary] = false */\n      0x0100\n      exp\n      dup2\n      sload\n      dup2\n      0xff\n      mul\n      not\n      and\n      swap1\n      dup4\n      iszero\n      iszero\n      mul\n      or\n      swap1\n      sstore\n      pop\n        /* \"time lock/smart contract.sol\":1154:1346  function removeBeneficiary(address _beneficiary) public {\r... */\n      pop\n      jump\t// out\n        /* \"time lock/smart contract.sol\":1626:1797  function extendLockTime(uint _timeToAdd) public {\r... */\n    tag_46:\n        /* \"time lock/smart contract.sol\":1707:1712  owner */\n      0x00\n      dup1\n      sload\n      swap1\n      0x0100\n      exp\n      swap1\n      div\n      0xffffffffffffffffffffffffffffffffffffffff\n      and\n        /* \"time lock/smart contract.sol\":1693:1712  msg.sender == owner */\n      0xffffffffffffffffffffffffffffffffffffffff\n      and\n        /* \"time lock/smart contract.sol\":1693:1703  msg.sender */\n      caller\n        /* \"time lock/smart contract.sol\":1693:1712  msg.sender == owner */\n      0xffffffffffffffffffffffffffffffffffffffff\n      and\n      eq\n        /* \"time lock/smart contract.sol\":1685:1756  require(msg.sender == owner, \"Only the owner can extend the lock time\") */\n      tag_72\n      jumpi\n      mload(0x40)\n      0x08c379a000000000000000000000000000000000000000000000000000000000\n      dup2\n      mstore\n      0x04\n      add\n      tag_73\n      swap1\n      tag_74\n      jump\t// in\n    tag_73:\n      mload(0x40)\n      dup1\n      swap2\n      sub\n      swap1\n      revert\n    tag_72:\n        /* \"time lock/smart contract.sol\":1779:1789  _timeToAdd */\n      dup1\n        /* \"time lock/smart contract.sol\":1767:1775  lockTime */\n      0x01\n      0x00\n        /* \"time lock/smart contract.sol\":1767:1789  lockTime += _timeToAdd */\n      dup3\n      dup3\n      sload\n      tag_75\n      swap2\n      swap1\n      tag_17\n      jump\t// in\n    tag_75:\n      swap3\n      pop\n      pop\n      dup2\n      swap1\n      sstore\n      pop\n        /* \"time lock/smart contract.sol\":1626:1797  function extendLockTime(uint _timeToAdd) public {\r... */\n      pop\n      jump\t// out\n        /* \"time lock/smart contract.sol\":580:953  function release() public {\r... */\n    tag_49:\n        /* \"time lock/smart contract.sol\":625:638  beneficiaries */\n      0x04\n        /* \"time lock/smart contract.sol\":625:650  beneficiaries[msg.sender] */\n      0x00\n        /* \"time lock/smart contract.sol\":639:649  msg.sender */\n      caller\n        /* \"time lock/smart contract.sol\":625:650  beneficiaries[msg.sender] */\n      0xffffffffffffffffffffffffffffffffffffffff\n      and\n      0xffffffffffffffffffffffffffffffffffffffff\n      and\n      dup2\n      mstore\n      0x20\n      add\n      swap1\n      dup2\n      mstore\n      0x20\n      add\n      0x00\n      keccak256\n      0x00\n      swap1\n      sload\n      swap1\n      0x0100\n      exp\n      swap1\n      div\n      0xff\n      and\n        /* \"time lock/smart contract.sol\":617:702  require(beneficiaries[msg.sender], \"Only designated beneficiaries can release funds\") */\n      tag_77\n      jumpi\n      mload(0x40)\n      0x08c379a000000000000000000000000000000000000000000000000000000000\n      dup2\n      mstore\n      0x04\n      add\n      tag_78\n      swap1\n      tag_79\n      jump\t// in\n    tag_78:\n      mload(0x40)\n      dup1\n      swap2\n      sub\n      swap1\n      revert\n    tag_77:\n        /* \"time lock/smart contract.sol\":755:763  lockTime */\n      sload(0x01)\n        /* \"time lock/smart contract.sol\":740:752  creationTime */\n      sload(0x02)\n        /* \"time lock/smart contract.sol\":740:763  creationTime + lockTime */\n      tag_80\n      swap2\n      swap1\n      tag_17\n      jump\t// in\n    tag_80:\n        /* \"time lock/smart contract.sol\":721:736  block.timestamp */\n      timestamp\n        /* \"time lock/smart contract.sol\":721:763  block.timestamp >= creationTime + lockTime */\n      lt\n      iszero\n        /* \"time lock/smart contract.sol\":713:799  require(block.timestamp >= creationTime + lockTime, \"Lock period has not expired yet\") */\n      tag_81\n      jumpi\n      mload(0x40)\n      0x08c379a000000000000000000000000000000000000000000000000000000000\n      dup2\n      mstore\n      0x04\n      add\n      tag_82\n      swap1\n      tag_83\n      jump\t// in\n    tag_82:\n      mload(0x40)\n      dup1\n      swap2\n      sub\n      swap1\n      revert\n    tag_81:\n        /* \"time lock/smart contract.sol\":810:821  uint amount */\n      0x00\n        /* \"time lock/smart contract.sol\":824:845  address(this).balance */\n      selfbalance\n        /* \"time lock/smart contract.sol\":810:845  uint amount = address(this).balance */\n      swap1\n      pop\n        /* \"time lock/smart contract.sol\":873:874  0 */\n      0x00\n        /* \"time lock/smart contract.sol\":864:870  amount */\n      dup2\n        /* \"time lock/smart contract.sol\":864:874  amount > 0 */\n      gt\n        /* \"time lock/smart contract.sol\":856:898  require(amount > 0, \"No ether to release\") */\n      tag_84\n      jumpi\n      mload(0x40)\n      0x08c379a000000000000000000000000000000000000000000000000000000000\n      dup2\n      mstore\n      0x04\n      add\n      tag_85\n      swap1\n      tag_86\n      jump\t// in\n    tag_85:\n      mload(0x40)\n      dup1\n      swap2\n      sub\n      swap1\n      revert\n    tag_84:\n        /* \"time lock/smart contract.sol\":917:927  msg.sender */\n      caller\n        /* \"time lock/smart contract.sol\":909:937  payable(msg.sender).transfer */\n      0xffffffffffffffffffffffffffffffffffffffff\n      and\n        /* \"time lock/smart contract.sol\":909:945  payable(msg.sender).transfer(amount) */\n      0x08fc\n        /* \"time lock/smart contract.sol\":938:944  amount */\n      dup3\n        /* \"time lock/smart contract.sol\":909:945  payable(msg.sender).transfer(amount) */\n      swap1\n      dup2\n      iszero\n      mul\n      swap1\n      mload(0x40)\n      0x00\n      mload(0x40)\n      dup1\n      dup4\n      sub\n      dup2\n      dup6\n      dup9\n      dup9\n      call\n      swap4\n      pop\n      pop\n      pop\n      pop\n      iszero\n      dup1\n      iszero\n      tag_88\n      jumpi\n      returndatasize\n      0x00\n      dup1\n      returndatacopy\n      revert(0x00, returndatasize)\n    tag_88:\n      pop\n        /* \"time lock/smart contract.sol\":580:953  function release() public {\r... */\n      pop\n      jump\t// out\n        /* \"time lock/smart contract.sol\":52:72  address public owner */\n    tag_52:\n      0x00\n      dup1\n      sload\n      swap1\n      0x0100\n      exp\n      swap1\n      div\n      0xffffffffffffffffffffffffffffffffffffffff\n      and\n      dup2\n      jump\t// out\n        /* \"time lock/smart contract.sol\":1354:1618  function setLockTime(uint _newLockTime) public {\r... */\n    tag_58:\n        /* \"time lock/smart contract.sol\":1434:1439  owner */\n      0x00\n      dup1\n      sload\n      swap1\n      0x0100\n      exp\n      swap1\n      div\n      0xffffffffffffffffffffffffffffffffffffffff\n      and\n        /* \"time lock/smart contract.sol\":1420:1439  msg.sender == owner */\n      0xffffffffffffffffffffffffffffffffffffffff\n      and\n        /* \"time lock/smart contract.sol\":1420:1430  msg.sender */\n      caller\n        /* \"time lock/smart contract.sol\":1420:1439  msg.sender == owner */\n      0xffffffffffffffffffffffffffffffffffffffff\n      and\n      eq\n        /* \"time lock/smart contract.sol\":1412:1480  require(msg.sender == owner, \"Only the owner can set the lock time\") */\n      tag_90\n      jumpi\n      mload(0x40)\n      0x08c379a000000000000000000000000000000000000000000000000000000000\n      dup2\n      mstore\n      0x04\n      add\n      tag_91\n      swap1\n      tag_92\n      jump\t// in\n    tag_91:\n      mload(0x40)\n      dup1\n      swap2\n      sub\n      swap1\n      revert\n    tag_90:\n        /* \"time lock/smart contract.sol\":1532:1540  lockTime */\n      sload(0x01)\n        /* \"time lock/smart contract.sol\":1517:1529  creationTime */\n      sload(0x02)\n        /* \"time lock/smart contract.sol\":1517:1540  creationTime + lockTime */\n      tag_93\n      swap2\n      swap1\n      tag_17\n      jump\t// in\n    tag_93:\n        /* \"time lock/smart contract.sol\":1499:1514  block.timestamp */\n      timestamp\n        /* \"time lock/smart contract.sol\":1499:1540  block.timestamp < creationTime + lockTime */\n      lt\n        /* \"time lock/smart contract.sol\":1491:1576  require(block.timestamp < creationTime + lockTime, \"Lock period has already expired\") */\n      tag_94\n      jumpi\n      mload(0x40)\n      0x08c379a000000000000000000000000000000000000000000000000000000000\n      dup2\n      mstore\n      0x04\n      add\n      tag_95\n      swap1\n      tag_96\n      jump\t// in\n    tag_95:\n      mload(0x40)\n      dup1\n      swap2\n      sub\n      swap1\n      revert\n    tag_94:\n        /* \"time lock/smart contract.sol\":1598:1610  _newLockTime */\n      dup1\n        /* \"time lock/smart contract.sol\":1587:1595  lockTime */\n      0x01\n        /* \"time lock/smart contract.sol\":1587:1610  lockTime = _newLockTime */\n      dup2\n      swap1\n      sstore\n      pop\n        /* \"time lock/smart contract.sol\":1354:1618  function setLockTime(uint _newLockTime) public {\r... */\n      pop\n      jump\t// out\n        /* \"time lock/smart contract.sol\":106:130  uint public creationTime */\n    tag_61:\n      sload(0x02)\n      dup2\n      jump\t// out\n        /* \"#utility.yul\":7:146   */\n    tag_98:\n      0x00\n        /* \"#utility.yul\":91:97   */\n      dup2\n        /* \"#utility.yul\":78:98   */\n      calldataload\n        /* \"#utility.yul\":69:98   */\n      swap1\n      pop\n        /* \"#utility.yul\":107:140   */\n      tag_100\n        /* \"#utility.yul\":134:139   */\n      dup2\n        /* \"#utility.yul\":107:140   */\n      tag_101\n      jump\t// in\n    tag_100:\n        /* \"#utility.yul\":59:146   */\n      swap3\n      swap2\n      pop\n      pop\n      jump\t// out\n        /* \"#utility.yul\":152:291   */\n    tag_102:\n      0x00\n        /* \"#utility.yul\":236:242   */\n      dup2\n        /* \"#utility.yul\":223:243   */\n      calldataload\n        /* \"#utility.yul\":214:243   */\n      swap1\n      pop\n        /* \"#utility.yul\":252:285   */\n      tag_104\n        /* \"#utility.yul\":279:284   */\n      dup2\n        /* \"#utility.yul\":252:285   */\n      tag_105\n      jump\t// in\n    tag_104:\n        /* \"#utility.yul\":204:291   */\n      swap3\n      swap2\n      pop\n      pop\n      jump\t// out\n        /* \"#utility.yul\":297:559   */\n    tag_21:\n      0x00\n        /* \"#utility.yul\":405:407   */\n      0x20\n        /* \"#utility.yul\":393:402   */\n      dup3\n        /* \"#utility.yul\":384:391   */\n      dup5\n        /* \"#utility.yul\":380:403   */\n      sub\n        /* \"#utility.yul\":376:408   */\n      slt\n        /* \"#utility.yul\":373:375   */\n      iszero\n      tag_107\n      jumpi\n        /* \"#utility.yul\":421:422   */\n      0x00\n        /* \"#utility.yul\":418:419   */\n      dup1\n        /* \"#utility.yul\":411:423   */\n      revert\n        /* \"#utility.yul\":373:375   */\n    tag_107:\n        /* \"#utility.yul\":464:465   */\n      0x00\n        /* \"#utility.yul\":489:542   */\n      tag_108\n        /* \"#utility.yul\":534:541   */\n      dup5\n        /* \"#utility.yul\":525:531   */\n      dup3\n        /* \"#utility.yul\":514:523   */\n      dup6\n        /* \"#utility.yul\":510:532   */\n      add\n        /* \"#utility.yul\":489:542   */\n      tag_98\n      jump\t// in\n    tag_108:\n        /* \"#utility.yul\":479:542   */\n      swap2\n      pop\n        /* \"#utility.yul\":435:552   */\n      pop\n        /* \"#utility.yul\":363:559   */\n      swap3\n      swap2\n      pop\n      pop\n      jump\t// out\n        /* \"#utility.yul\":565:827   */\n    tag_45:\n      0x00\n        /* \"#utility.yul\":673:675   */\n      0x20\n        /* \"#utility.yul\":661:670   */\n      dup3\n        /* \"#utility.yul\":652:659   */\n      dup5\n        /* \"#utility.yul\":648:671   */\n      sub\n        /* \"#utility.yul\":644:676   */\n      slt\n        /* \"#utility.yul\":641:643   */\n      iszero\n      tag_110\n      jumpi\n        /* \"#utility.yul\":689:690   */\n      0x00\n        /* \"#utility.yul\":686:687   */\n      dup1\n        /* \"#utility.yul\":679:691   */\n      revert\n        /* \"#utility.yul\":641:643   */\n    tag_110:\n        /* \"#utility.yul\":732:733   */\n      0x00\n        /* \"#utility.yul\":757:810   */\n      tag_111\n        /* \"#utility.yul\":802:809   */\n      dup5\n        /* \"#utility.yul\":793:799   */\n      dup3\n        /* \"#utility.yul\":782:791   */\n      dup6\n        /* \"#utility.yul\":778:800   */\n      add\n        /* \"#utility.yul\":757:810   */\n      tag_102\n      jump\t// in\n    tag_111:\n        /* \"#utility.yul\":747:810   */\n      swap2\n      pop\n        /* \"#utility.yul\":703:820   */\n      pop\n        /* \"#utility.yul\":631:827   */\n      swap3\n      swap2\n      pop\n      pop\n      jump\t// out\n        /* \"#utility.yul\":833:951   */\n    tag_112:\n        /* \"#utility.yul\":920:944   */\n      tag_114\n        /* \"#utility.yul\":938:943   */\n      dup2\n        /* \"#utility.yul\":920:944   */\n      tag_115\n      jump\t// in\n    tag_114:\n        /* \"#utility.yul\":915:918   */\n      dup3\n        /* \"#utility.yul\":908:945   */\n      mstore\n        /* \"#utility.yul\":898:951   */\n      pop\n      pop\n      jump\t// out\n        /* \"#utility.yul\":957:1066   */\n    tag_116:\n        /* \"#utility.yul\":1038:1059   */\n      tag_118\n        /* \"#utility.yul\":1053:1058   */\n      dup2\n        /* \"#utility.yul\":1038:1059   */\n      tag_119\n      jump\t// in\n    tag_118:\n        /* \"#utility.yul\":1033:1036   */\n      dup3\n        /* \"#utility.yul\":1026:1060   */\n      mstore\n        /* \"#utility.yul\":1016:1066   */\n      pop\n      pop\n      jump\t// out\n        /* \"#utility.yul\":1072:1389   */\n    tag_120:\n      0x00\n        /* \"#utility.yul\":1235:1302   */\n      tag_122\n        /* \"#utility.yul\":1299:1301   */\n      0x13\n        /* \"#utility.yul\":1294:1297   */\n      dup4\n        /* \"#utility.yul\":1235:1302   */\n      tag_123\n      jump\t// in\n    tag_122:\n        /* \"#utility.yul\":1228:1302   */\n      swap2\n      pop\n        /* \"#utility.yul\":1332:1353   */\n      0x4e6f20657468657220746f2072656c6561736500000000000000000000000000\n        /* \"#utility.yul\":1328:1329   */\n      0x00\n        /* \"#utility.yul\":1323:1326   */\n      dup4\n        /* \"#utility.yul\":1319:1330   */\n      add\n        /* \"#utility.yul\":1312:1354   */\n      mstore\n        /* \"#utility.yul\":1380:1382   */\n      0x20\n        /* \"#utility.yul\":1375:1378   */\n      dup3\n        /* \"#utility.yul\":1371:1383   */\n      add\n        /* \"#utility.yul\":1364:1383   */\n      swap1\n      pop\n        /* \"#utility.yul\":1218:1389   */\n      swap2\n      swap1\n      pop\n      jump\t// out\n        /* \"#utility.yul\":1395:1763   */\n    tag_124:\n      0x00\n        /* \"#utility.yul\":1558:1625   */\n      tag_126\n        /* \"#utility.yul\":1622:1624   */\n      0x24\n        /* \"#utility.yul\":1617:1620   */\n      dup4\n        /* \"#utility.yul\":1558:1625   */\n      tag_123\n      jump\t// in\n    tag_126:\n        /* \"#utility.yul\":1551:1625   */\n      swap2\n      pop\n        /* \"#utility.yul\":1655:1689   */\n      0x4f6e6c7920746865206f776e65722063616e206164642062656e656669636961\n        /* \"#utility.yul\":1651:1652   */\n      0x00\n        /* \"#utility.yul\":1646:1649   */\n      dup4\n        /* \"#utility.yul\":1642:1653   */\n      add\n        /* \"#utility.yul\":1635:1690   */\n      mstore\n        /* \"#utility.yul\":1721:1727   */\n      0x7269657300000000000000000000000000000000000000000000000000000000\n        /* \"#utility.yul\":1716:1718   */\n      0x20\n        /* \"#utility.yul\":1711:1714   */\n      dup4\n        /* \"#utility.yul\":1707:1719   */\n      add\n        /* \"#utility.yul\":1700:1728   */\n      mstore\n        /* \"#utility.yul\":1754:1756   */\n      0x40\n        /* \"#utility.yul\":1749:1752   */\n      dup3\n        /* \"#utility.yul\":1745:1757   */\n      add\n        /* \"#utility.yul\":1738:1757   */\n      swap1\n      pop\n        /* \"#utility.yul\":1541:1763   */\n      swap2\n      swap1\n      pop\n      jump\t// out\n        /* \"#utility.yul\":1769:2137   */\n    tag_127:\n      0x00\n        /* \"#utility.yul\":1932:1999   */\n      tag_129\n        /* \"#utility.yul\":1996:1998   */\n      0x24\n        /* \"#utility.yul\":1991:1994   */\n      dup4\n        /* \"#utility.yul\":1932:1999   */\n      tag_123\n      jump\t// in\n    tag_129:\n        /* \"#utility.yul\":1925:1999   */\n      swap2\n      pop\n        /* \"#utility.yul\":2029:2063   */\n      0x4f6e6c7920746865206f776e65722063616e2073657420746865206c6f636b20\n        /* \"#utility.yul\":2025:2026   */\n      0x00\n        /* \"#utility.yul\":2020:2023   */\n      dup4\n        /* \"#utility.yul\":2016:2027   */\n      add\n        /* \"#utility.yul\":2009:2064   */\n      mstore\n        /* \"#utility.yul\":2095:2101   */\n      0x74696d6500000000000000000000000000000000000000000000000000000000\n        /* \"#utility.yul\":2090:2092   */\n      0x20\n        /* \"#utility.yul\":2085:2088   */\n      dup4\n        /* \"#utility.yul\":2081:2093   */\n      add\n        /* \"#utility.yul\":2074:2102   */\n      mstore\n        /* \"#utility.yul\":2128:2130   */\n      0x40\n        /* \"#utility.yul\":2123:2126   */\n      dup3\n        /* \"#utility.yul\":2119:2131   */\n      add\n        /* \"#utility.yul\":2112:2131   */\n      swap1\n      pop\n        /* \"#utility.yul\":1915:2137   */\n      swap2\n      swap1\n      pop\n      jump\t// out\n        /* \"#utility.yul\":2143:2472   */\n    tag_130:\n      0x00\n        /* \"#utility.yul\":2306:2373   */\n      tag_132\n        /* \"#utility.yul\":2370:2372   */\n      0x1f\n        /* \"#utility.yul\":2365:2368   */\n      dup4\n        /* \"#utility.yul\":2306:2373   */\n      tag_123\n      jump\t// in\n    tag_132:\n        /* \"#utility.yul\":2299:2373   */\n      swap2\n      pop\n        /* \"#utility.yul\":2403:2436   */\n      0x4c6f636b20706572696f642068617320616c7265616479206578706972656400\n        /* \"#utility.yul\":2399:2400   */\n      0x00\n        /* \"#utility.yul\":2394:2397   */\n      dup4\n        /* \"#utility.yul\":2390:2401   */\n      add\n        /* \"#utility.yul\":2383:2437   */\n      mstore\n        /* \"#utility.yul\":2463:2465   */\n      0x20\n        /* \"#utility.yul\":2458:2461   */\n      dup3\n        /* \"#utility.yul\":2454:2466   */\n      add\n        /* \"#utility.yul\":2447:2466   */\n      swap1\n      pop\n        /* \"#utility.yul\":2289:2472   */\n      swap2\n      swap1\n      pop\n      jump\t// out\n        /* \"#utility.yul\":2478:2849   */\n    tag_133:\n      0x00\n        /* \"#utility.yul\":2641:2708   */\n      tag_135\n        /* \"#utility.yul\":2705:2707   */\n      0x27\n        /* \"#utility.yul\":2700:2703   */\n      dup4\n        /* \"#utility.yul\":2641:2708   */\n      tag_123\n      jump\t// in\n    tag_135:\n        /* \"#utility.yul\":2634:2708   */\n      swap2\n      pop\n        /* \"#utility.yul\":2738:2772   */\n      0x4f6e6c7920746865206f776e65722063616e20657874656e6420746865206c6f\n        /* \"#utility.yul\":2734:2735   */\n      0x00\n        /* \"#utility.yul\":2729:2732   */\n      dup4\n        /* \"#utility.yul\":2725:2736   */\n      add\n        /* \"#utility.yul\":2718:2773   */\n      mstore\n        /* \"#utility.yul\":2804:2813   */\n      0x636b2074696d6500000000000000000000000000000000000000000000000000\n        /* \"#utility.yul\":2799:2801   */\n      0x20\n        /* \"#utility.yul\":2794:2797   */\n      dup4\n        /* \"#utility.yul\":2790:2802   */\n      add\n        /* \"#utility.yul\":2783:2814   */\n      mstore\n        /* \"#utility.yul\":2840:2842   */\n      0x40\n        /* \"#utility.yul\":2835:2838   */\n      dup3\n        /* \"#utility.yul\":2831:2843   */\n      add\n        /* \"#utility.yul\":2824:2843   */\n      swap1\n      pop\n        /* \"#utility.yul\":2624:2849   */\n      swap2\n      swap1\n      pop\n      jump\t// out\n        /* \"#utility.yul\":2855:3184   */\n    tag_136:\n      0x00\n        /* \"#utility.yul\":3018:3085   */\n      tag_138\n        /* \"#utility.yul\":3082:3084   */\n      0x1f\n        /* \"#utility.yul\":3077:3080   */\n      dup4\n        /* \"#utility.yul\":3018:3085   */\n      tag_123\n      jump\t// in\n    tag_138:\n        /* \"#utility.yul\":3011:3085   */\n      swap2\n      pop\n        /* \"#utility.yul\":3115:3148   */\n      0x4c6f636b20706572696f6420686173206e6f7420657870697265642079657400\n        /* \"#utility.yul\":3111:3112   */\n      0x00\n        /* \"#utility.yul\":3106:3109   */\n      dup4\n        /* \"#utility.yul\":3102:3113   */\n      add\n        /* \"#utility.yul\":3095:3149   */\n      mstore\n        /* \"#utility.yul\":3175:3177   */\n      0x20\n        /* \"#utility.yul\":3170:3173   */\n      dup3\n        /* \"#utility.yul\":3166:3178   */\n      add\n        /* \"#utility.yul\":3159:3178   */\n      swap1\n      pop\n        /* \"#utility.yul\":3001:3184   */\n      swap2\n      swap1\n      pop\n      jump\t// out\n        /* \"#utility.yul\":3190:3569   */\n    tag_139:\n      0x00\n        /* \"#utility.yul\":3353:3420   */\n      tag_141\n        /* \"#utility.yul\":3417:3419   */\n      0x2f\n        /* \"#utility.yul\":3412:3415   */\n      dup4\n        /* \"#utility.yul\":3353:3420   */\n      tag_123\n      jump\t// in\n    tag_141:\n        /* \"#utility.yul\":3346:3420   */\n      swap2\n      pop\n        /* \"#utility.yul\":3450:3484   */\n      0x4f6e6c792064657369676e617465642062656e65666963696172696573206361\n        /* \"#utility.yul\":3446:3447   */\n      0x00\n        /* \"#utility.yul\":3441:3444   */\n      dup4\n        /* \"#utility.yul\":3437:3448   */\n      add\n        /* \"#utility.yul\":3430:3485   */\n      mstore\n        /* \"#utility.yul\":3516:3533   */\n      0x6e2072656c656173652066756e64730000000000000000000000000000000000\n        /* \"#utility.yul\":3511:3513   */\n      0x20\n        /* \"#utility.yul\":3506:3509   */\n      dup4\n        /* \"#utility.yul\":3502:3514   */\n      add\n        /* \"#utility.yul\":3495:3534   */\n      mstore\n        /* \"#utility.yul\":3560:3562   */\n      0x40\n        /* \"#utility.yul\":3555:3558   */\n      dup3\n        /* \"#utility.yul\":3551:3563   */\n      add\n        /* \"#utility.yul\":3544:3563   */\n      swap1\n      pop\n        /* \"#utility.yul\":3336:3569   */\n      swap2\n      swap1\n      pop\n      jump\t// out\n        /* \"#utility.yul\":3575:3946   */\n    tag_142:\n      0x00\n        /* \"#utility.yul\":3738:3805   */\n      tag_144\n        /* \"#utility.yul\":3802:3804   */\n      0x27\n        /* \"#utility.yul\":3797:3800   */\n      dup4\n        /* \"#utility.yul\":3738:3805   */\n      tag_123\n      jump\t// in\n    tag_144:\n        /* \"#utility.yul\":3731:3805   */\n      swap2\n      pop\n        /* \"#utility.yul\":3835:3869   */\n      0x4f6e6c7920746865206f776e65722063616e2072656d6f76652062656e656669\n        /* \"#utility.yul\":3831:3832   */\n      0x00\n        /* \"#utility.yul\":3826:3829   */\n      dup4\n        /* \"#utility.yul\":3822:3833   */\n      add\n        /* \"#utility.yul\":3815:3870   */\n      mstore\n        /* \"#utility.yul\":3901:3910   */\n      0x6369617269657300000000000000000000000000000000000000000000000000\n        /* \"#utility.yul\":3896:3898   */\n      0x20\n        /* \"#utility.yul\":3891:3894   */\n      dup4\n        /* \"#utility.yul\":3887:3899   */\n      add\n        /* \"#utility.yul\":3880:3911   */\n      mstore\n        /* \"#utility.yul\":3937:3939   */\n      0x40\n        /* \"#utility.yul\":3932:3935   */\n      dup3\n        /* \"#utility.yul\":3928:3940   */\n      add\n        /* \"#utility.yul\":3921:3940   */\n      swap1\n      pop\n        /* \"#utility.yul\":3721:3946   */\n      swap2\n      swap1\n      pop\n      jump\t// out\n        /* \"#utility.yul\":3952:4070   */\n    tag_145:\n        /* \"#utility.yul\":4039:4063   */\n      tag_147\n        /* \"#utility.yul\":4057:4062   */\n      dup2\n        /* \"#utility.yul\":4039:4063   */\n      tag_148\n      jump\t// in\n    tag_147:\n        /* \"#utility.yul\":4034:4037   */\n      dup3\n        /* \"#utility.yul\":4027:4064   */\n      mstore\n        /* \"#utility.yul\":4017:4070   */\n      pop\n      pop\n      jump\t// out\n        /* \"#utility.yul\":4076:4298   */\n    tag_54:\n      0x00\n        /* \"#utility.yul\":4207:4209   */\n      0x20\n        /* \"#utility.yul\":4196:4205   */\n      dup3\n        /* \"#utility.yul\":4192:4210   */\n      add\n        /* \"#utility.yul\":4184:4210   */\n      swap1\n      pop\n        /* \"#utility.yul\":4220:4291   */\n      tag_150\n        /* \"#utility.yul\":4288:4289   */\n      0x00\n        /* \"#utility.yul\":4277:4286   */\n      dup4\n        /* \"#utility.yul\":4273:4290   */\n      add\n        /* \"#utility.yul\":4264:4270   */\n      dup5\n        /* \"#utility.yul\":4220:4291   */\n      tag_112\n      jump\t// in\n    tag_150:\n        /* \"#utility.yul\":4174:4298   */\n      swap3\n      swap2\n      pop\n      pop\n      jump\t// out\n        /* \"#utility.yul\":4304:4514   */\n    tag_24:\n      0x00\n        /* \"#utility.yul\":4429:4431   */\n      0x20\n        /* \"#utility.yul\":4418:4427   */\n      dup3\n        /* \"#utility.yul\":4414:4432   */\n      add\n        /* \"#utility.yul\":4406:4432   */\n      swap1\n      pop\n        /* \"#utility.yul\":4442:4507   */\n      tag_152\n        /* \"#utility.yul\":4504:4505   */\n      0x00\n        /* \"#utility.yul\":4493:4502   */\n      dup4\n        /* \"#utility.yul\":4489:4506   */\n      add\n        /* \"#utility.yul\":4480:4486   */\n      dup5\n        /* \"#utility.yul\":4442:4507   */\n      tag_116\n      jump\t// in\n    tag_152:\n        /* \"#utility.yul\":4396:4514   */\n      swap3\n      swap2\n      pop\n      pop\n      jump\t// out\n        /* \"#utility.yul\":4520:4939   */\n    tag_86:\n      0x00\n        /* \"#utility.yul\":4724:4726   */\n      0x20\n        /* \"#utility.yul\":4713:4722   */\n      dup3\n        /* \"#utility.yul\":4709:4727   */\n      add\n        /* \"#utility.yul\":4701:4727   */\n      swap1\n      pop\n        /* \"#utility.yul\":4773:4782   */\n      dup2\n        /* \"#utility.yul\":4767:4771   */\n      dup2\n        /* \"#utility.yul\":4763:4783   */\n      sub\n        /* \"#utility.yul\":4759:4760   */\n      0x00\n        /* \"#utility.yul\":4748:4757   */\n      dup4\n        /* \"#utility.yul\":4744:4761   */\n      add\n        /* \"#utility.yul\":4737:4784   */\n      mstore\n        /* \"#utility.yul\":4801:4932   */\n      tag_154\n        /* \"#utility.yul\":4927:4931   */\n      dup2\n        /* \"#utility.yul\":4801:4932   */\n      tag_120\n      jump\t// in\n    tag_154:\n        /* \"#utility.yul\":4793:4932   */\n      swap1\n      pop\n        /* \"#utility.yul\":4691:4939   */\n      swap2\n      swap1\n      pop\n      jump\t// out\n        /* \"#utility.yul\":4945:5364   */\n    tag_66:\n      0x00\n        /* \"#utility.yul\":5149:5151   */\n      0x20\n        /* \"#utility.yul\":5138:5147   */\n      dup3\n        /* \"#utility.yul\":5134:5152   */\n      add\n        /* \"#utility.yul\":5126:5152   */\n      swap1\n      pop\n        /* \"#utility.yul\":5198:5207   */\n      dup2\n        /* \"#utility.yul\":5192:5196   */\n      dup2\n        /* \"#utility.yul\":5188:5208   */\n      sub\n        /* \"#utility.yul\":5184:5185   */\n      0x00\n        /* \"#utility.yul\":5173:5182   */\n      dup4\n        /* \"#utility.yul\":5169:5186   */\n      add\n        /* \"#utility.yul\":5162:5209   */\n      mstore\n        /* \"#utility.yul\":5226:5357   */\n      tag_156\n        /* \"#utility.yul\":5352:5356   */\n      dup2\n        /* \"#utility.yul\":5226:5357   */\n      tag_124\n      jump\t// in\n    tag_156:\n        /* \"#utility.yul\":5218:5357   */\n      swap1\n      pop\n        /* \"#utility.yul\":5116:5364   */\n      swap2\n      swap1\n      pop\n      jump\t// out\n        /* \"#utility.yul\":5370:5789   */\n    tag_92:\n      0x00\n        /* \"#utility.yul\":5574:5576   */\n      0x20\n        /* \"#utility.yul\":5563:5572   */\n      dup3\n        /* \"#utility.yul\":5559:5577   */\n      add\n        /* \"#utility.yul\":5551:5577   */\n      swap1\n      pop\n        /* \"#utility.yul\":5623:5632   */\n      dup2\n        /* \"#utility.yul\":5617:5621   */\n      dup2\n        /* \"#utility.yul\":5613:5633   */\n      sub\n        /* \"#utility.yul\":5609:5610   */\n      0x00\n        /* \"#utility.yul\":5598:5607   */\n      dup4\n        /* \"#utility.yul\":5594:5611   */\n      add\n        /* \"#utility.yul\":5587:5634   */\n      mstore\n        /* \"#utility.yul\":5651:5782   */\n      tag_158\n        /* \"#utility.yul\":5777:5781   */\n      dup2\n        /* \"#utility.yul\":5651:5782   */\n      tag_127\n      jump\t// in\n    tag_158:\n        /* \"#utility.yul\":5643:5782   */\n      swap1\n      pop\n        /* \"#utility.yul\":5541:5789   */\n      swap2\n      swap1\n      pop\n      jump\t// out\n        /* \"#utility.yul\":5795:6214   */\n    tag_96:\n      0x00\n        /* \"#utility.yul\":5999:6001   */\n      0x20\n        /* \"#utility.yul\":5988:5997   */\n      dup3\n        /* \"#utility.yul\":5984:6002   */\n      add\n        /* \"#utility.yul\":5976:6002   */\n      swap1\n      pop\n        /* \"#utility.yul\":6048:6057   */\n      dup2\n        /* \"#utility.yul\":6042:6046   */\n      dup2\n        /* \"#utility.yul\":6038:6058   */\n      sub\n        /* \"#utility.yul\":6034:6035   */\n      0x00\n        /* \"#utility.yul\":6023:6032   */\n      dup4\n        /* \"#utility.yul\":6019:6036   */\n      add\n        /* \"#utility.yul\":6012:6059   */\n      mstore\n        /* \"#utility.yul\":6076:6207   */\n      tag_160\n        /* \"#utility.yul\":6202:6206   */\n      dup2\n        /* \"#utility.yul\":6076:6207   */\n      tag_130\n      jump\t// in\n    tag_160:\n        /* \"#utility.yul\":6068:6207   */\n      swap1\n      pop\n        /* \"#utility.yul\":5966:6214   */\n      swap2\n      swap1\n      pop\n      jump\t// out\n        /* \"#utility.yul\":6220:6639   */\n    tag_74:\n      0x00\n        /* \"#utility.yul\":6424:6426   */\n      0x20\n        /* \"#utility.yul\":6413:6422   */\n      dup3\n        /* \"#utility.yul\":6409:6427   */\n      add\n        /* \"#utility.yul\":6401:6427   */\n      swap1\n      pop\n        /* \"#utility.yul\":6473:6482   */\n      dup2\n        /* \"#utility.yul\":6467:6471   */\n      dup2\n        /* \"#utility.yul\":6463:6483   */\n      sub\n        /* \"#utility.yul\":6459:6460   */\n      0x00\n        /* \"#utility.yul\":6448:6457   */\n      dup4\n        /* \"#utility.yul\":6444:6461   */\n      add\n        /* \"#utility.yul\":6437:6484   */\n      mstore\n        /* \"#utility.yul\":6501:6632   */\n      tag_162\n        /* \"#utility.yul\":6627:6631   */\n      dup2\n        /* \"#utility.yul\":6501:6632   */\n      tag_133\n      jump\t// in\n    tag_162:\n        /* \"#utility.yul\":6493:6632   */\n      swap1\n      pop\n        /* \"#utility.yul\":6391:6639   */\n      swap2\n      swap1\n      pop\n      jump\t// out\n        /* \"#utility.yul\":6645:7064   */\n    tag_83:\n      0x00\n        /* \"#utility.yul\":6849:6851   */\n      0x20\n        /* \"#utility.yul\":6838:6847   */\n      dup3\n        /* \"#utility.yul\":6834:6852   */\n      add\n        /* \"#utility.yul\":6826:6852   */\n      swap1\n      pop\n        /* \"#utility.yul\":6898:6907   */\n      dup2\n        /* \"#utility.yul\":6892:6896   */\n      dup2\n        /* \"#utility.yul\":6888:6908   */\n      sub\n        /* \"#utility.yul\":6884:6885   */\n      0x00\n        /* \"#utility.yul\":6873:6882   */\n      dup4\n        /* \"#utility.yul\":6869:6886   */\n      add\n        /* \"#utility.yul\":6862:6909   */\n      mstore\n        /* \"#utility.yul\":6926:7057   */\n      tag_164\n        /* \"#utility.yul\":7052:7056   */\n      dup2\n        /* \"#utility.yul\":6926:7057   */\n      tag_136\n      jump\t// in\n    tag_164:\n        /* \"#utility.yul\":6918:7057   */\n      swap1\n      pop\n        /* \"#utility.yul\":6816:7064   */\n      swap2\n      swap1\n      pop\n      jump\t// out\n        /* \"#utility.yul\":7070:7489   */\n    tag_79:\n      0x00\n        /* \"#utility.yul\":7274:7276   */\n      0x20\n        /* \"#utility.yul\":7263:7272   */\n      dup3\n        /* \"#utility.yul\":7259:7277   */\n      add\n        /* \"#utility.yul\":7251:7277   */\n      swap1\n      pop\n        /* \"#utility.yul\":7323:7332   */\n      dup2\n        /* \"#utility.yul\":7317:7321   */\n      dup2\n        /* \"#utility.yul\":7313:7333   */\n      sub\n        /* \"#utility.yul\":7309:7310   */\n      0x00\n        /* \"#utility.yul\":7298:7307   */\n      dup4\n        /* \"#utility.yul\":7294:7311   */\n      add\n        /* \"#utility.yul\":7287:7334   */\n      mstore\n        /* \"#utility.yul\":7351:7482   */\n      tag_166\n        /* \"#utility.yul\":7477:7481   */\n      dup2\n        /* \"#utility.yul\":7351:7482   */\n      tag_139\n      jump\t// in\n    tag_166:\n        /* \"#utility.yul\":7343:7482   */\n      swap1\n      pop\n        /* \"#utility.yul\":7241:7489   */\n      swap2\n      swap1\n      pop\n      jump\t// out\n        /* \"#utility.yul\":7495:7914   */\n    tag_70:\n      0x00\n        /* \"#utility.yul\":7699:7701   */\n      0x20\n        /* \"#utility.yul\":7688:7697   */\n      dup3\n        /* \"#utility.yul\":7684:7702   */\n      add\n        /* \"#utility.yul\":7676:7702   */\n      swap1\n      pop\n        /* \"#utility.yul\":7748:7757   */\n      dup2\n        /* \"#utility.yul\":7742:7746   */\n      dup2\n        /* \"#utility.yul\":7738:7758   */\n      sub\n        /* \"#utility.yul\":7734:7735   */\n      0x00\n        /* \"#utility.yul\":7723:7732   */\n      dup4\n        /* \"#utility.yul\":7719:7736   */\n      add\n        /* \"#utility.yul\":7712:7759   */\n      mstore\n        /* \"#utility.yul\":7776:7907   */\n      tag_168\n        /* \"#utility.yul\":7902:7906   */\n      dup2\n        /* \"#utility.yul\":7776:7907   */\n      tag_142\n      jump\t// in\n    tag_168:\n        /* \"#utility.yul\":7768:7907   */\n      swap1\n      pop\n        /* \"#utility.yul\":7666:7914   */\n      swap2\n      swap1\n      pop\n      jump\t// out\n        /* \"#utility.yul\":7920:8142   */\n    tag_29:\n      0x00\n        /* \"#utility.yul\":8051:8053   */\n      0x20\n        /* \"#utility.yul\":8040:8049   */\n      dup3\n        /* \"#utility.yul\":8036:8054   */\n      add\n        /* \"#utility.yul\":8028:8054   */\n      swap1\n      pop\n        /* \"#utility.yul\":8064:8135   */\n      tag_170\n        /* \"#utility.yul\":8132:8133   */\n      0x00\n        /* \"#utility.yul\":8121:8130   */\n      dup4\n        /* \"#utility.yul\":8117:8134   */\n      add\n        /* \"#utility.yul\":8108:8114   */\n      dup5\n        /* \"#utility.yul\":8064:8135   */\n      tag_145\n      jump\t// in\n    tag_170:\n        /* \"#utility.yul\":8018:8142   */\n      swap3\n      swap2\n      pop\n      pop\n      jump\t// out\n        /* \"#utility.yul\":8148:8317   */\n    tag_123:\n      0x00\n        /* \"#utility.yul\":8266:8272   */\n      dup3\n        /* \"#utility.yul\":8261:8264   */\n      dup3\n        /* \"#utility.yul\":8254:8273   */\n      mstore\n        /* \"#utility.yul\":8306:8310   */\n      0x20\n        /* \"#utility.yul\":8301:8304   */\n      dup3\n        /* \"#utility.yul\":8297:8311   */\n      add\n        /* \"#utility.yul\":8282:8311   */\n      swap1\n      pop\n        /* \"#utility.yul\":8244:8317   */\n      swap3\n      swap2\n      pop\n      pop\n      jump\t// out\n        /* \"#utility.yul\":8323:8628   */\n    tag_17:\n      0x00\n        /* \"#utility.yul\":8382:8402   */\n      tag_173\n        /* \"#utility.yul\":8400:8401   */\n      dup3\n        /* \"#utility.yul\":8382:8402   */\n      tag_148\n      jump\t// in\n    tag_173:\n        /* \"#utility.yul\":8377:8402   */\n      swap2\n      pop\n        /* \"#utility.yul\":8416:8436   */\n      tag_174\n        /* \"#utility.yul\":8434:8435   */\n      dup4\n        /* \"#utility.yul\":8416:8436   */\n      tag_148\n      jump\t// in\n    tag_174:\n        /* \"#utility.yul\":8411:8436   */\n      swap3\n      pop\n        /* \"#utility.yul\":8570:8571   */\n      dup3\n        /* \"#utility.yul\":8502:8568   */\n      0xffffffffffffffffffffffffffffffffffffffffffffffffffffffffffffffff\n        /* \"#utility.yul\":8498:8572   */\n      sub\n        /* \"#utility.yul\":8495:8496   */\n      dup3\n        /* \"#utility.yul\":8492:8573   */\n      gt\n        /* \"#utility.yul\":8489:8491   */\n      iszero\n      tag_175\n      jumpi\n        /* \"#utility.yul\":8576:8594   */\n      tag_176\n      tag_177\n      jump\t// in\n    tag_176:\n        /* \"#utility.yul\":8489:8491   */\n    tag_175:\n        /* \"#utility.yul\":8620:8621   */\n      dup3\n        /* \"#utility.yul\":8617:8618   */\n      dup3\n        /* \"#utility.yul\":8613:8622   */\n      add\n        /* \"#utility.yul\":8606:8622   */\n      swap1\n      pop\n        /* \"#utility.yul\":8367:8628   */\n      swap3\n      swap2\n      pop\n      pop\n      jump\t// out\n        /* \"#utility.yul\":8634:8730   */\n    tag_115:\n      0x00\n        /* \"#utility.yul\":8700:8724   */\n      tag_179\n        /* \"#utility.yul\":8718:8723   */\n      dup3\n        /* \"#utility.yul\":8700:8724   */\n      tag_180\n      jump\t// in\n    tag_179:\n        /* \"#utility.yul\":8689:8724   */\n      swap1\n      pop\n        /* \"#utility.yul\":8679:8730   */\n      swap2\n      swap1\n      pop\n      jump\t// out\n        /* \"#utility.yul\":8736:8826   */\n    tag_119:\n      0x00\n        /* \"#utility.yul\":8813:8818   */\n      dup2\n        /* \"#utility.yul\":8806:8819   */\n      iszero\n        /* \"#utility.yul\":8799:8820   */\n      iszero\n        /* \"#utility.yul\":8788:8820   */\n      swap1\n      pop\n        /* \"#utility.yul\":8778:8826   */\n      swap2\n      swap1\n      pop\n      jump\t// out\n        /* \"#utility.yul\":8832:8958   */\n    tag_180:\n      0x00\n        /* \"#utility.yul\":8909:8951   */\n      0xffffffffffffffffffffffffffffffffffffffff\n        /* \"#utility.yul\":8902:8907   */\n      dup3\n        /* \"#utility.yul\":8898:8952   */\n      and\n        /* \"#utility.yul\":8887:8952   */\n      swap1\n      pop\n        /* \"#utility.yul\":8877:8958   */\n      swap2\n      swap1\n      pop\n      jump\t// out\n        /* \"#utility.yul\":8964:9041   */\n    tag_148:\n      0x00\n        /* \"#utility.yul\":9030:9035   */\n      dup2\n        /* \"#utility.yul\":9019:9035   */\n      swap1\n      pop\n        /* \"#utility.yul\":9009:9041   */\n      swap2\n      swap1\n      pop\n      jump\t// out\n        /* \"#utility.yul\":9047:9227   */\n    tag_177:\n        /* \"#utility.yul\":9095:9172   */\n      0x4e487b7100000000000000000000000000000000000000000000000000000000\n        /* \"#utility.yul\":9092:9093   */\n      0x00\n        /* \"#utility.yul\":9085:9173   */\n      mstore\n        /* \"#utility.yul\":9192:9196   */\n      0x11\n        /* \"#utility.yul\":9189:9190   */\n      0x04\n        /* \"#utility.yul\":9182:9197   */\n      mstore\n        /* \"#utility.yul\":9216:9220   */\n      0x24\n        /* \"#utility.yul\":9213:9214   */\n      0x00\n        /* \"#utility.yul\":9206:9221   */\n      revert\n        /* \"#utility.yul\":9233:9355   */\n    tag_101:\n        /* \"#utility.yul\":9306:9330   */\n      tag_186\n        /* \"#utility.yul\":9324:9329   */\n      dup2\n        /* \"#utility.yul\":9306:9330   */\n      tag_115\n      jump\t// in\n    tag_186:\n        /* \"#utility.yul\":9299:9304   */\n      dup2\n        /* \"#utility.yul\":9296:9331   */\n      eq\n        /* \"#utility.yul\":9286:9288   */\n      tag_187\n      jumpi\n        /* \"#utility.yul\":9345:9346   */\n      0x00\n        /* \"#utility.yul\":9342:9343   */\n      dup1\n        /* \"#utility.yul\":9335:9347   */\n      revert\n        /* \"#utility.yul\":9286:9288   */\n    tag_187:\n        /* \"#utility.yul\":9276:9355   */\n      pop\n      jump\t// out\n        /* \"#utility.yul\":9361:9483   */\n    tag_105:\n        /* \"#utility.yul\":9434:9458   */\n      tag_189\n        /* \"#utility.yul\":9452:9457   */\n      dup2\n        /* \"#utility.yul\":9434:9458   */\n      tag_148\n      jump\t// in\n    tag_189:\n        /* \"#utility.yul\":9427:9432   */\n      dup2\n        /* \"#utility.yul\":9424:9459   */\n      eq\n        /* \"#utility.yul\":9414:9416   */\n      tag_190\n      jumpi\n        /* \"#utility.yul\":9473:9474   */\n      0x00\n        /* \"#utility.yul\":9470:9471   */\n      dup1\n        /* \"#utility.yul\":9463:9475   */\n      revert\n        /* \"#utility.yul\":9414:9416   */\n    tag_190:\n        /* \"#utility.yul\":9404:9483   */\n      pop\n      jump\t// out\n\n    auxdata: 0xa2646970667358221220a479bffb744cfa435910ecc70897f627794dbd5ade333ae563dee67ade43879664736f6c63430008000033\n}\n",
				"bytecode": {
					"linkReferences": {},
					"object": "60806040526040516200118138038062001181833981810160405281019062000029919062000213565b336000806101000a81548173ffffffffffffffffffffffffffffffffffffffff021916908373ffffffffffffffffffffffffffffffffffffffff16021790555081600181905550426002819055503460038190555060005b81518110156200013a57600160046000848481518110620000cb577f4e487b7100000000000000000000000000000000000000000000000000000000600052603260045260246000fd5b602002602001015173ffffffffffffffffffffffffffffffffffffffff1673ffffffffffffffffffffffffffffffffffffffff16815260200190815260200160002060006101000a81548160ff021916908315150217905550808062000131906200030e565b91505062000081565b505050620003ee565b60006200015a6200015484620002a1565b6200026d565b905080838252602082019050828560208602820111156200017a57600080fd5b60005b85811015620001ae5781620001938882620001b8565b8452602084019350602083019250506001810190506200017d565b5050509392505050565b600081519050620001c981620003ba565b92915050565b600082601f830112620001e157600080fd5b8151620001f384826020860162000143565b91505092915050565b6000815190506200020d81620003d4565b92915050565b600080604083850312156200022757600080fd5b60006200023785828601620001fc565b925050602083015167ffffffffffffffff8111156200025557600080fd5b6200026385828601620001cf565b9150509250929050565b6000604051905081810181811067ffffffffffffffff821117156200029757620002966200038b565b5b8060405250919050565b600067ffffffffffffffff821115620002bf57620002be6200038b565b5b602082029050602081019050919050565b6000620002dd82620002e4565b9050919050565b600073ffffffffffffffffffffffffffffffffffffffff82169050919050565b6000819050919050565b60006200031b8262000304565b91507fffffffffffffffffffffffffffffffffffffffffffffffffffffffffffffffff8214156200035157620003506200035c565b5b600182019050919050565b7f4e487b7100000000000000000000000000000000000000000000000000000000600052601160045260246000fd5b7f4e487b7100000000000000000000000000000000000000000000000000000000600052604160045260246000fd5b620003c581620002d0565b8114620003d157600080fd5b50565b620003df8162000304565b8114620003eb57600080fd5b50565b610d8380620003fe6000396000f3fe6080604052600436106100955760003560e01c8063828047a511610059578063828047a51461019f57806386d1a69f146101c85780638da5cb5b146101df578063ae04d45d1461020a578063d8270dce14610233576100b5565b806301567739146100ba5780630d668087146100f75780631a39d8ef146101225780635926651d1461014d57806359633a1c14610176576100b5565b366100b55734600360008282546100ac9190610c52565b92505081905550005b600080fd5b3480156100c657600080fd5b506100e160048036038101906100dc91906107b3565b61025e565b6040516100ee9190610b0b565b60405180910390f35b34801561010357600080fd5b5061010c61027e565b6040516101199190610c26565b60405180910390f35b34801561012e57600080fd5b50610137610284565b6040516101449190610c26565b60405180910390f35b34801561015957600080fd5b50610174600480360381019061016f91906107b3565b61028a565b005b34801561018257600080fd5b5061019d600480360381019061019891906107b3565b610373565b005b3480156101ab57600080fd5b506101c660048036038101906101c191906107dc565b61045c565b005b3480156101d457600080fd5b506101dd610506565b005b3480156101eb57600080fd5b506101f4610676565b6040516102019190610af0565b60405180910390f35b34801561021657600080fd5b50610231600480360381019061022c91906107dc565b61069a565b005b34801561023f57600080fd5b50610248610783565b6040516102559190610c26565b60405180910390f35b60046020528060005260406000206000915054906101000a900460ff1681565b60015481565b60035481565b60008054906101000a900473ffffffffffffffffffffffffffffffffffffffff1673ffffffffffffffffffffffffffffffffffffffff163373ffffffffffffffffffffffffffffffffffffffff1614610318576040517f08c379a000000000000000000000000000000000000000000000000000000000815260040161030f90610b46565b60405180910390fd5b6001600460008373ffffffffffffffffffffffffffffffffffffffff1673ffffffffffffffffffffffffffffffffffffffff16815260200190815260200160002060006101000a81548160ff02191690831515021790555050565b60008054906101000a900473ffffffffffffffffffffffffffffffffffffffff1673ffffffffffffffffffffffffffffffffffffffff163373ffffffffffffffffffffffffffffffffffffffff1614610401576040517f08c379a00000000000000000000000000000000000000000000000000000000081526004016103f890610c06565b60405180910390fd5b6000600460008373ffffffffffffffffffffffffffffffffffffffff1673ffffffffffffffffffffffffffffffffffffffff16815260200190815260200160002060006101000a81548160ff02191690831515021790555050565b60008054906101000a900473ffffffffffffffffffffffffffffffffffffffff1673ffffffffffffffffffffffffffffffffffffffff163373ffffffffffffffffffffffffffffffffffffffff16146104ea576040517f08c379a00000000000000000000000000000000000000000000000000000000081526004016104e190610ba6565b60405180910390fd5b80600160008282546104fc9190610c52565b9250508190555050565b600460003373ffffffffffffffffffffffffffffffffffffffff1673ffffffffffffffffffffffffffffffffffffffff16815260200190815260200160002060009054906101000a900460ff16610592576040517f08c379a000000000000000000000000000000000000000000000000000000000815260040161058990610be6565b60405180910390fd5b6001546002546105a29190610c52565b4210156105e4576040517f08c379a00000000000000000000000000000000000000000000000000000000081526004016105db90610bc6565b60405180910390fd5b60004790506000811161062c576040517f08c379a000000000000000000000000000000000000000000000000000000000815260040161062390610b26565b60405180910390fd5b3373ffffffffffffffffffffffffffffffffffffffff166108fc829081150290604051600060405180830381858888f19350505050158015610672573d6000803e3d6000fd5b5050565b60008054906101000a900473ffffffffffffffffffffffffffffffffffffffff1681565b60008054906101000a900473ffffffffffffffffffffffffffffffffffffffff1673ffffffffffffffffffffffffffffffffffffffff163373ffffffffffffffffffffffffffffffffffffffff1614610728576040517f08c379a000000000000000000000000000000000000000000000000000000000815260040161071f90610b66565b60405180910390fd5b6001546002546107389190610c52565b4210610779576040517f08c379a000000000000000000000000000000000000000000000000000000000815260040161077090610b86565b60405180910390fd5b8060018190555050565b60025481565b60008135905061079881610d1f565b92915050565b6000813590506107ad81610d36565b92915050565b6000602082840312156107c557600080fd5b60006107d384828501610789565b91505092915050565b6000602082840312156107ee57600080fd5b60006107fc8482850161079e565b91505092915050565b61080e81610ca8565b82525050565b61081d81610cba565b82525050565b6000610830601383610c41565b91507f4e6f20657468657220746f2072656c65617365000000000000000000000000006000830152602082019050919050565b6000610870602483610c41565b91507f4f6e6c7920746865206f776e65722063616e206164642062656e65666963696160008301527f72696573000000000000000000000000000000000000000000000000000000006020830152604082019050919050565b60006108d6602483610c41565b91507f4f6e6c7920746865206f776e65722063616e2073657420746865206c6f636b2060008301527f74696d65000000000000000000000000000000000000000000000000000000006020830152604082019050919050565b600061093c601f83610c41565b91507f4c6f636b20706572696f642068617320616c72656164792065787069726564006000830152602082019050919050565b600061097c602783610c41565b91507f4f6e6c7920746865206f776e65722063616e20657874656e6420746865206c6f60008301527f636b2074696d65000000000000000000000000000000000000000000000000006020830152604082019050919050565b60006109e2601f83610c41565b91507f4c6f636b20706572696f6420686173206e6f74206578706972656420796574006000830152602082019050919050565b6000610a22602f83610c41565b91507f4f6e6c792064657369676e617465642062656e6566696369617269657320636160008301527f6e2072656c656173652066756e647300000000000000000000000000000000006020830152604082019050919050565b6000610a88602783610c41565b91507f4f6e6c7920746865206f776e65722063616e2072656d6f76652062656e65666960008301527f63696172696573000000000000000000000000000000000000000000000000006020830152604082019050919050565b610aea81610ce6565b82525050565b6000602082019050610b056000830184610805565b92915050565b6000602082019050610b206000830184610814565b92915050565b60006020820190508181036000830152610b3f81610823565b9050919050565b60006020820190508181036000830152610b5f81610863565b9050919050565b60006020820190508181036000830152610b7f816108c9565b9050919050565b60006020820190508181036000830152610b9f8161092f565b9050919050565b60006020820190508181036000830152610bbf8161096f565b9050919050565b60006020820190508181036000830152610bdf816109d5565b9050919050565b60006020820190508181036000830152610bff81610a15565b9050919050565b60006020820190508181036000830152610c1f81610a7b565b9050919050565b6000602082019050610c3b6000830184610ae1565b92915050565b600082825260208201905092915050565b6000610c5d82610ce6565b9150610c6883610ce6565b9250827fffffffffffffffffffffffffffffffffffffffffffffffffffffffffffffffff03821115610c9d57610c9c610cf0565b5b828201905092915050565b6000610cb382610cc6565b9050919050565b60008115159050919050565b600073ffffffffffffffffffffffffffffffffffffffff82169050919050565b6000819050919050565b7f4e487b7100000000000000000000000000000000000000000000000000000000600052601160045260246000fd5b610d2881610ca8565b8114610d3357600080fd5b50565b610d3f81610ce6565b8114610d4a57600080fd5b5056fea2646970667358221220a479bffb744cfa435910ecc70897f627794dbd5ade333ae563dee67ade43879664736f6c63430008000033",
					"opcodes": "PUSH1 0x80 PUSH1 0x40 MSTORE PUSH1 0x40 MLOAD PUSH3 0x1181 CODESIZE SUB DUP1 PUSH3 0x1181 DUP4 CODECOPY DUP2 DUP2 ADD PUSH1 0x40 MSTORE DUP2 ADD SWAP1 PUSH3 0x29 SWAP2 SWAP1 PUSH3 0x213 JUMP JUMPDEST CALLER PUSH1 0x0 DUP1 PUSH2 0x100 EXP DUP2 SLOAD DUP2 PUSH20 0xFFFFFFFFFFFFFFFFFFFFFFFFFFFFFFFFFFFFFFFF MUL NOT AND SWAP1 DUP4 PUSH20 0xFFFFFFFFFFFFFFFFFFFFFFFFFFFFFFFFFFFFFFFF AND MUL OR SWAP1 SSTORE POP DUP2 PUSH1 0x1 DUP2 SWAP1 SSTORE POP TIMESTAMP PUSH1 0x2 DUP2 SWAP1 SSTORE POP CALLVALUE PUSH1 0x3 DUP2 SWAP1 SSTORE POP PUSH1 0x0 JUMPDEST DUP2 MLOAD DUP2 LT ISZERO PUSH3 0x13A JUMPI PUSH1 0x1 PUSH1 0x4 PUSH1 0x0 DUP5 DUP5 DUP2 MLOAD DUP2 LT PUSH3 0xCB JUMPI PUSH32 0x4E487B7100000000000000000000000000000000000000000000000000000000 PUSH1 0x0 MSTORE PUSH1 0x32 PUSH1 0x4 MSTORE PUSH1 0x24 PUSH1 0x0 REVERT JUMPDEST PUSH1 0x20 MUL PUSH1 0x20 ADD ADD MLOAD PUSH20 0xFFFFFFFFFFFFFFFFFFFFFFFFFFFFFFFFFFFFFFFF AND PUSH20 0xFFFFFFFFFFFFFFFFFFFFFFFFFFFFFFFFFFFFFFFF AND DUP2 MSTORE PUSH1 0x20 ADD SWAP1 DUP2 MSTORE PUSH1 0x20 ADD PUSH1 0x0 KECCAK256 PUSH1 0x0 PUSH2 0x100 EXP DUP2 SLOAD DUP2 PUSH1 0xFF MUL NOT AND SWAP1 DUP4 ISZERO ISZERO MUL OR SWAP1 SSTORE POP DUP1 DUP1 PUSH3 0x131 SWAP1 PUSH3 0x30E JUMP JUMPDEST SWAP2 POP POP PUSH3 0x81 JUMP JUMPDEST POP POP POP PUSH3 0x3EE JUMP JUMPDEST PUSH1 0x0 PUSH3 0x15A PUSH3 0x154 DUP5 PUSH3 0x2A1 JUMP JUMPDEST PUSH3 0x26D JUMP JUMPDEST SWAP1 POP DUP1 DUP4 DUP3 MSTORE PUSH1 0x20 DUP3 ADD SWAP1 POP DUP3 DUP6 PUSH1 0x20 DUP7 MUL DUP3 ADD GT ISZERO PUSH3 0x17A JUMPI PUSH1 0x0 DUP1 REVERT JUMPDEST PUSH1 0x0 JUMPDEST DUP6 DUP2 LT ISZERO PUSH3 0x1AE JUMPI DUP2 PUSH3 0x193 DUP9 DUP3 PUSH3 0x1B8 JUMP JUMPDEST DUP5 MSTORE PUSH1 0x20 DUP5 ADD SWAP4 POP PUSH1 0x20 DUP4 ADD SWAP3 POP POP PUSH1 0x1 DUP2 ADD SWAP1 POP PUSH3 0x17D JUMP JUMPDEST POP POP POP SWAP4 SWAP3 POP POP POP JUMP JUMPDEST PUSH1 0x0 DUP2 MLOAD SWAP1 POP PUSH3 0x1C9 DUP2 PUSH3 0x3BA JUMP JUMPDEST SWAP3 SWAP2 POP POP JUMP JUMPDEST PUSH1 0x0 DUP3 PUSH1 0x1F DUP4 ADD SLT PUSH3 0x1E1 JUMPI PUSH1 0x0 DUP1 REVERT JUMPDEST DUP2 MLOAD PUSH3 0x1F3 DUP5 DUP3 PUSH1 0x20 DUP7 ADD PUSH3 0x143 JUMP JUMPDEST SWAP2 POP POP SWAP3 SWAP2 POP POP JUMP JUMPDEST PUSH1 0x0 DUP2 MLOAD SWAP1 POP PUSH3 0x20D DUP2 PUSH3 0x3D4 JUMP JUMPDEST SWAP3 SWAP2 POP POP JUMP JUMPDEST PUSH1 0x0 DUP1 PUSH1 0x40 DUP4 DUP6 SUB SLT ISZERO PUSH3 0x227 JUMPI PUSH1 0x0 DUP1 REVERT JUMPDEST PUSH1 0x0 PUSH3 0x237 DUP6 DUP3 DUP7 ADD PUSH3 0x1FC JUMP JUMPDEST SWAP3 POP POP PUSH1 0x20 DUP4 ADD MLOAD PUSH8 0xFFFFFFFFFFFFFFFF DUP2 GT ISZERO PUSH3 0x255 JUMPI PUSH1 0x0 DUP1 REVERT JUMPDEST PUSH3 0x263 DUP6 DUP3 DUP7 ADD PUSH3 0x1CF JUMP JUMPDEST SWAP2 POP POP SWAP3 POP SWAP3 SWAP1 POP JUMP JUMPDEST PUSH1 0x0 PUSH1 0x40 MLOAD SWAP1 POP DUP2 DUP2 ADD DUP2 DUP2 LT PUSH8 0xFFFFFFFFFFFFFFFF DUP3 GT OR ISZERO PUSH3 0x297 JUMPI PUSH3 0x296 PUSH3 0x38B JUMP JUMPDEST JUMPDEST DUP1 PUSH1 0x40 MSTORE POP SWAP2 SWAP1 POP JUMP JUMPDEST PUSH1 0x0 PUSH8 0xFFFFFFFFFFFFFFFF DUP3 GT ISZERO PUSH3 0x2BF JUMPI PUSH3 0x2BE PUSH3 0x38B JUMP JUMPDEST JUMPDEST PUSH1 0x20 DUP3 MUL SWAP1 POP PUSH1 0x20 DUP2 ADD SWAP1 POP SWAP2 SWAP1 POP JUMP JUMPDEST PUSH1 0x0 PUSH3 0x2DD DUP3 PUSH3 0x2E4 JUMP JUMPDEST SWAP1 POP SWAP2 SWAP1 POP JUMP JUMPDEST PUSH1 0x0 PUSH20 0xFFFFFFFFFFFFFFFFFFFFFFFFFFFFFFFFFFFFFFFF DUP3 AND SWAP1 POP SWAP2 SWAP1 POP JUMP JUMPDEST PUSH1 0x0 DUP2 SWAP1 POP SWAP2 SWAP1 POP JUMP JUMPDEST PUSH1 0x0 PUSH3 0x31B DUP3 PUSH3 0x304 JUMP JUMPDEST SWAP2 POP PUSH32 0xFFFFFFFFFFFFFFFFFFFFFFFFFFFFFFFFFFFFFFFFFFFFFFFFFFFFFFFFFFFFFFFF DUP3 EQ ISZERO PUSH3 0x351 JUMPI PUSH3 0x350 PUSH3 0x35C JUMP JUMPDEST JUMPDEST PUSH1 0x1 DUP3 ADD SWAP1 POP SWAP2 SWAP1 POP JUMP JUMPDEST PUSH32 0x4E487B7100000000000000000000000000000000000000000000000000000000 PUSH1 0x0 MSTORE PUSH1 0x11 PUSH1 0x4 MSTORE PUSH1 0x24 PUSH1 0x0 REVERT JUMPDEST PUSH32 0x4E487B7100000000000000000000000000000000000000000000000000000000 PUSH1 0x0 MSTORE PUSH1 0x41 PUSH1 0x4 MSTORE PUSH1 0x24 PUSH1 0x0 REVERT JUMPDEST PUSH3 0x3C5 DUP2 PUSH3 0x2D0 JUMP JUMPDEST DUP2 EQ PUSH3 0x3D1 JUMPI PUSH1 0x0 DUP1 REVERT JUMPDEST POP JUMP JUMPDEST PUSH3 0x3DF DUP2 PUSH3 0x304 JUMP JUMPDEST DUP2 EQ PUSH3 0x3EB JUMPI PUSH1 0x0 DUP1 REVERT JUMPDEST POP JUMP JUMPDEST PUSH2 0xD83 DUP1 PUSH3 0x3FE PUSH1 0x0 CODECOPY PUSH1 0x0 RETURN INVALID PUSH1 0x80 PUSH1 0x40 MSTORE PUSH1 0x4 CALLDATASIZE LT PUSH2 0x95 JUMPI PUSH1 0x0 CALLDATALOAD PUSH1 0xE0 SHR DUP1 PUSH4 0x828047A5 GT PUSH2 0x59 JUMPI DUP1 PUSH4 0x828047A5 EQ PUSH2 0x19F JUMPI DUP1 PUSH4 0x86D1A69F EQ PUSH2 0x1C8 JUMPI DUP1 PUSH4 0x8DA5CB5B EQ PUSH2 0x1DF JUMPI DUP1 PUSH4 0xAE04D45D EQ PUSH2 0x20A JUMPI DUP1 PUSH4 0xD8270DCE EQ PUSH2 0x233 JUMPI PUSH2 0xB5 JUMP JUMPDEST DUP1 PUSH4 0x1567739 EQ PUSH2 0xBA JUMPI DUP1 PUSH4 0xD668087 EQ PUSH2 0xF7 JUMPI DUP1 PUSH4 0x1A39D8EF EQ PUSH2 0x122 JUMPI DUP1 PUSH4 0x5926651D EQ PUSH2 0x14D JUMPI DUP1 PUSH4 0x59633A1C EQ PUSH2 0x176 JUMPI PUSH2 0xB5 JUMP JUMPDEST CALLDATASIZE PUSH2 0xB5 JUMPI CALLVALUE PUSH1 0x3 PUSH1 0x0 DUP3 DUP3 SLOAD PUSH2 0xAC SWAP2 SWAP1 PUSH2 0xC52 JUMP JUMPDEST SWAP3 POP POP DUP2 SWAP1 SSTORE POP STOP JUMPDEST PUSH1 0x0 DUP1 REVERT JUMPDEST CALLVALUE DUP1 ISZERO PUSH2 0xC6 JUMPI PUSH1 0x0 DUP1 REVERT JUMPDEST POP PUSH2 0xE1 PUSH1 0x4 DUP1 CALLDATASIZE SUB DUP2 ADD SWAP1 PUSH2 0xDC SWAP2 SWAP1 PUSH2 0x7B3 JUMP JUMPDEST PUSH2 0x25E JUMP JUMPDEST PUSH1 0x40 MLOAD PUSH2 0xEE SWAP2 SWAP1 PUSH2 0xB0B JUMP JUMPDEST PUSH1 0x40 MLOAD DUP1 SWAP2 SUB SWAP1 RETURN JUMPDEST CALLVALUE DUP1 ISZERO PUSH2 0x103 JUMPI PUSH1 0x0 DUP1 REVERT JUMPDEST POP PUSH2 0x10C PUSH2 0x27E JUMP JUMPDEST PUSH1 0x40 MLOAD PUSH2 0x119 SWAP2 SWAP1 PUSH2 0xC26 JUMP JUMPDEST PUSH1 0x40 MLOAD DUP1 SWAP2 SUB SWAP1 RETURN JUMPDEST CALLVALUE DUP1 ISZERO PUSH2 0x12E JUMPI PUSH1 0x0 DUP1 REVERT JUMPDEST POP PUSH2 0x137 PUSH2 0x284 JUMP JUMPDEST PUSH1 0x40 MLOAD PUSH2 0x144 SWAP2 SWAP1 PUSH2 0xC26 JUMP JUMPDEST PUSH1 0x40 MLOAD DUP1 SWAP2 SUB SWAP1 RETURN JUMPDEST CALLVALUE DUP1 ISZERO PUSH2 0x159 JUMPI PUSH1 0x0 DUP1 REVERT JUMPDEST POP PUSH2 0x174 PUSH1 0x4 DUP1 CALLDATASIZE SUB DUP2 ADD SWAP1 PUSH2 0x16F SWAP2 SWAP1 PUSH2 0x7B3 JUMP JUMPDEST PUSH2 0x28A JUMP JUMPDEST STOP JUMPDEST CALLVALUE DUP1 ISZERO PUSH2 0x182 JUMPI PUSH1 0x0 DUP1 REVERT JUMPDEST POP PUSH2 0x19D PUSH1 0x4 DUP1 CALLDATASIZE SUB DUP2 ADD SWAP1 PUSH2 0x198 SWAP2 SWAP1 PUSH2 0x7B3 JUMP JUMPDEST PUSH2 0x373 JUMP JUMPDEST STOP JUMPDEST CALLVALUE DUP1 ISZERO PUSH2 0x1AB JUMPI PUSH1 0x0 DUP1 REVERT JUMPDEST POP PUSH2 0x1C6 PUSH1 0x4 DUP1 CALLDATASIZE SUB DUP2 ADD SWAP1 PUSH2 0x1C1 SWAP2 SWAP1 PUSH2 0x7DC JUMP JUMPDEST PUSH2 0x45C JUMP JUMPDEST STOP JUMPDEST CALLVALUE DUP1 ISZERO PUSH2 0x1D4 JUMPI PUSH1 0x0 DUP1 REVERT JUMPDEST POP PUSH2 0x1DD PUSH2 0x506 JUMP JUMPDEST STOP JUMPDEST CALLVALUE DUP1 ISZERO PUSH2 0x1EB JUMPI PUSH1 0x0 DUP1 REVERT JUMPDEST POP PUSH2 0x1F4 PUSH2 0x676 JUMP JUMPDEST PUSH1 0x40 MLOAD PUSH2 0x201 SWAP2 SWAP1 PUSH2 0xAF0 JUMP JUMPDEST PUSH1 0x40 MLOAD DUP1 SWAP2 SUB SWAP1 RETURN JUMPDEST CALLVALUE DUP1 ISZERO PUSH2 0x216 JUMPI PUSH1 0x0 DUP1 REVERT JUMPDEST POP PUSH2 0x231 PUSH1 0x4 DUP1 CALLDATASIZE SUB DUP2 ADD SWAP1 PUSH2 0x22C SWAP2 SWAP1 PUSH2 0x7DC JUMP JUMPDEST PUSH2 0x69A JUMP JUMPDEST STOP JUMPDEST CALLVALUE DUP1 ISZERO PUSH2 0x23F JUMPI PUSH1 0x0 DUP1 REVERT JUMPDEST POP PUSH2 0x248 PUSH2 0x783 JUMP JUMPDEST PUSH1 0x40 MLOAD PUSH2 0x255 SWAP2 SWAP1 PUSH2 0xC26 JUMP JUMPDEST PUSH1 0x40 MLOAD DUP1 SWAP2 SUB SWAP1 RETURN JUMPDEST PUSH1 0x4 PUSH1 0x20 MSTORE DUP1 PUSH1 0x0 MSTORE PUSH1 0x40 PUSH1 0x0 KECCAK256 PUSH1 0x0 SWAP2 POP SLOAD SWAP1 PUSH2 0x100 EXP SWAP1 DIV PUSH1 0xFF AND DUP2 JUMP JUMPDEST PUSH1 0x1 SLOAD DUP2 JUMP JUMPDEST PUSH1 0x3 SLOAD DUP2 JUMP JUMPDEST PUSH1 0x0 DUP1 SLOAD SWAP1 PUSH2 0x100 EXP SWAP1 DIV PUSH20 0xFFFFFFFFFFFFFFFFFFFFFFFFFFFFFFFFFFFFFFFF AND PUSH20 0xFFFFFFFFFFFFFFFFFFFFFFFFFFFFFFFFFFFFFFFF AND CALLER PUSH20 0xFFFFFFFFFFFFFFFFFFFFFFFFFFFFFFFFFFFFFFFF AND EQ PUSH2 0x318 JUMPI PUSH1 0x40 MLOAD PUSH32 0x8C379A000000000000000000000000000000000000000000000000000000000 DUP2 MSTORE PUSH1 0x4 ADD PUSH2 0x30F SWAP1 PUSH2 0xB46 JUMP JUMPDEST PUSH1 0x40 MLOAD DUP1 SWAP2 SUB SWAP1 REVERT JUMPDEST PUSH1 0x1 PUSH1 0x4 PUSH1 0x0 DUP4 PUSH20 0xFFFFFFFFFFFFFFFFFFFFFFFFFFFFFFFFFFFFFFFF AND PUSH20 0xFFFFFFFFFFFFFFFFFFFFFFFFFFFFFFFFFFFFFFFF AND DUP2 MSTORE PUSH1 0x20 ADD SWAP1 DUP2 MSTORE PUSH1 0x20 ADD PUSH1 0x0 KECCAK256 PUSH1 0x0 PUSH2 0x100 EXP DUP2 SLOAD DUP2 PUSH1 0xFF MUL NOT AND SWAP1 DUP4 ISZERO ISZERO MUL OR SWAP1 SSTORE POP POP JUMP JUMPDEST PUSH1 0x0 DUP1 SLOAD SWAP1 PUSH2 0x100 EXP SWAP1 DIV PUSH20 0xFFFFFFFFFFFFFFFFFFFFFFFFFFFFFFFFFFFFFFFF AND PUSH20 0xFFFFFFFFFFFFFFFFFFFFFFFFFFFFFFFFFFFFFFFF AND CALLER PUSH20 0xFFFFFFFFFFFFFFFFFFFFFFFFFFFFFFFFFFFFFFFF AND EQ PUSH2 0x401 JUMPI PUSH1 0x40 MLOAD PUSH32 0x8C379A000000000000000000000000000000000000000000000000000000000 DUP2 MSTORE PUSH1 0x4 ADD PUSH2 0x3F8 SWAP1 PUSH2 0xC06 JUMP JUMPDEST PUSH1 0x40 MLOAD DUP1 SWAP2 SUB SWAP1 REVERT JUMPDEST PUSH1 0x0 PUSH1 0x4 PUSH1 0x0 DUP4 PUSH20 0xFFFFFFFFFFFFFFFFFFFFFFFFFFFFFFFFFFFFFFFF AND PUSH20 0xFFFFFFFFFFFFFFFFFFFFFFFFFFFFFFFFFFFFFFFF AND DUP2 MSTORE PUSH1 0x20 ADD SWAP1 DUP2 MSTORE PUSH1 0x20 ADD PUSH1 0x0 KECCAK256 PUSH1 0x0 PUSH2 0x100 EXP DUP2 SLOAD DUP2 PUSH1 0xFF MUL NOT AND SWAP1 DUP4 ISZERO ISZERO MUL OR SWAP1 SSTORE POP POP JUMP JUMPDEST PUSH1 0x0 DUP1 SLOAD SWAP1 PUSH2 0x100 EXP SWAP1 DIV PUSH20 0xFFFFFFFFFFFFFFFFFFFFFFFFFFFFFFFFFFFFFFFF AND PUSH20 0xFFFFFFFFFFFFFFFFFFFFFFFFFFFFFFFFFFFFFFFF AND CALLER PUSH20 0xFFFFFFFFFFFFFFFFFFFFFFFFFFFFFFFFFFFFFFFF AND EQ PUSH2 0x4EA JUMPI PUSH1 0x40 MLOAD PUSH32 0x8C379A000000000000000000000000000000000000000000000000000000000 DUP2 MSTORE PUSH1 0x4 ADD PUSH2 0x4E1 SWAP1 PUSH2 0xBA6 JUMP JUMPDEST PUSH1 0x40 MLOAD DUP1 SWAP2 SUB SWAP1 REVERT JUMPDEST DUP1 PUSH1 0x1 PUSH1 0x0 DUP3 DUP3 SLOAD PUSH2 0x4FC SWAP2 SWAP1 PUSH2 0xC52 JUMP JUMPDEST SWAP3 POP POP DUP2 SWAP1 SSTORE POP POP JUMP JUMPDEST PUSH1 0x4 PUSH1 0x0 CALLER PUSH20 0xFFFFFFFFFFFFFFFFFFFFFFFFFFFFFFFFFFFFFFFF AND PUSH20 0xFFFFFFFFFFFFFFFFFFFFFFFFFFFFFFFFFFFFFFFF AND DUP2 MSTORE PUSH1 0x20 ADD SWAP1 DUP2 MSTORE PUSH1 0x20 ADD PUSH1 0x0 KECCAK256 PUSH1 0x0 SWAP1 SLOAD SWAP1 PUSH2 0x100 EXP SWAP1 DIV PUSH1 0xFF AND PUSH2 0x592 JUMPI PUSH1 0x40 MLOAD PUSH32 0x8C379A000000000000000000000000000000000000000000000000000000000 DUP2 MSTORE PUSH1 0x4 ADD PUSH2 0x589 SWAP1 PUSH2 0xBE6 JUMP JUMPDEST PUSH1 0x40 MLOAD DUP1 SWAP2 SUB SWAP1 REVERT JUMPDEST PUSH1 0x1 SLOAD PUSH1 0x2 SLOAD PUSH2 0x5A2 SWAP2 SWAP1 PUSH2 0xC52 JUMP JUMPDEST TIMESTAMP LT ISZERO PUSH2 0x5E4 JUMPI PUSH1 0x40 MLOAD PUSH32 0x8C379A000000000000000000000000000000000000000000000000000000000 DUP2 MSTORE PUSH1 0x4 ADD PUSH2 0x5DB SWAP1 PUSH2 0xBC6 JUMP JUMPDEST PUSH1 0x40 MLOAD DUP1 SWAP2 SUB SWAP1 REVERT JUMPDEST PUSH1 0x0 SELFBALANCE SWAP1 POP PUSH1 0x0 DUP2 GT PUSH2 0x62C JUMPI PUSH1 0x40 MLOAD PUSH32 0x8C379A000000000000000000000000000000000000000000000000000000000 DUP2 MSTORE PUSH1 0x4 ADD PUSH2 0x623 SWAP1 PUSH2 0xB26 JUMP JUMPDEST PUSH1 0x40 MLOAD DUP1 SWAP2 SUB SWAP1 REVERT JUMPDEST CALLER PUSH20 0xFFFFFFFFFFFFFFFFFFFFFFFFFFFFFFFFFFFFFFFF AND PUSH2 0x8FC DUP3 SWAP1 DUP2 ISZERO MUL SWAP1 PUSH1 0x40 MLOAD PUSH1 0x0 PUSH1 0x40 MLOAD DUP1 DUP4 SUB DUP2 DUP6 DUP9 DUP9 CALL SWAP4 POP POP POP POP ISZERO DUP1 ISZERO PUSH2 0x672 JUMPI RETURNDATASIZE PUSH1 0x0 DUP1 RETURNDATACOPY RETURNDATASIZE PUSH1 0x0 REVERT JUMPDEST POP POP JUMP JUMPDEST PUSH1 0x0 DUP1 SLOAD SWAP1 PUSH2 0x100 EXP SWAP1 DIV PUSH20 0xFFFFFFFFFFFFFFFFFFFFFFFFFFFFFFFFFFFFFFFF AND DUP2 JUMP JUMPDEST PUSH1 0x0 DUP1 SLOAD SWAP1 PUSH2 0x100 EXP SWAP1 DIV PUSH20 0xFFFFFFFFFFFFFFFFFFFFFFFFFFFFFFFFFFFFFFFF AND PUSH20 0xFFFFFFFFFFFFFFFFFFFFFFFFFFFFFFFFFFFFFFFF AND CALLER PUSH20 0xFFFFFFFFFFFFFFFFFFFFFFFFFFFFFFFFFFFFFFFF AND EQ PUSH2 0x728 JUMPI PUSH1 0x40 MLOAD PUSH32 0x8C379A000000000000000000000000000000000000000000000000000000000 DUP2 MSTORE PUSH1 0x4 ADD PUSH2 0x71F SWAP1 PUSH2 0xB66 JUMP JUMPDEST PUSH1 0x40 MLOAD DUP1 SWAP2 SUB SWAP1 REVERT JUMPDEST PUSH1 0x1 SLOAD PUSH1 0x2 SLOAD PUSH2 0x738 SWAP2 SWAP1 PUSH2 0xC52 JUMP JUMPDEST TIMESTAMP LT PUSH2 0x779 JUMPI PUSH1 0x40 MLOAD PUSH32 0x8C379A000000000000000000000000000000000000000000000000000000000 DUP2 MSTORE PUSH1 0x4 ADD PUSH2 0x770 SWAP1 PUSH2 0xB86 JUMP JUMPDEST PUSH1 0x40 MLOAD DUP1 SWAP2 SUB SWAP1 REVERT JUMPDEST DUP1 PUSH1 0x1 DUP2 SWAP1 SSTORE POP POP JUMP JUMPDEST PUSH1 0x2 SLOAD DUP2 JUMP JUMPDEST PUSH1 0x0 DUP2 CALLDATALOAD SWAP1 POP PUSH2 0x798 DUP2 PUSH2 0xD1F JUMP JUMPDEST SWAP3 SWAP2 POP POP JUMP JUMPDEST PUSH1 0x0 DUP2 CALLDATALOAD SWAP1 POP PUSH2 0x7AD DUP2 PUSH2 0xD36 JUMP JUMPDEST SWAP3 SWAP2 POP POP JUMP JUMPDEST PUSH1 0x0 PUSH1 0x20 DUP3 DUP5 SUB SLT ISZERO PUSH2 0x7C5 JUMPI PUSH1 0x0 DUP1 REVERT JUMPDEST PUSH1 0x0 PUSH2 0x7D3 DUP5 DUP3 DUP6 ADD PUSH2 0x789 JUMP JUMPDEST SWAP2 POP POP SWAP3 SWAP2 POP POP JUMP JUMPDEST PUSH1 0x0 PUSH1 0x20 DUP3 DUP5 SUB SLT ISZERO PUSH2 0x7EE JUMPI PUSH1 0x0 DUP1 REVERT JUMPDEST PUSH1 0x0 PUSH2 0x7FC DUP5 DUP3 DUP6 ADD PUSH2 0x79E JUMP JUMPDEST SWAP2 POP POP SWAP3 SWAP2 POP POP JUMP JUMPDEST PUSH2 0x80E DUP2 PUSH2 0xCA8 JUMP JUMPDEST DUP3 MSTORE POP POP JUMP JUMPDEST PUSH2 0x81D DUP2 PUSH2 0xCBA JUMP JUMPDEST DUP3 MSTORE POP POP JUMP JUMPDEST PUSH1 0x0 PUSH2 0x830 PUSH1 0x13 DUP4 PUSH2 0xC41 JUMP JUMPDEST SWAP2 POP PUSH32 0x4E6F20657468657220746F2072656C6561736500000000000000000000000000 PUSH1 0x0 DUP4 ADD MSTORE PUSH1 0x20 DUP3 ADD SWAP1 POP SWAP2 SWAP1 POP JUMP JUMPDEST PUSH1 0x0 PUSH2 0x870 PUSH1 0x24 DUP4 PUSH2 0xC41 JUMP JUMPDEST SWAP2 POP PUSH32 0x4F6E6C7920746865206F776E65722063616E206164642062656E656669636961 PUSH1 0x0 DUP4 ADD MSTORE PUSH32 0x7269657300000000000000000000000000000000000000000000000000000000 PUSH1 0x20 DUP4 ADD MSTORE PUSH1 0x40 DUP3 ADD SWAP1 POP SWAP2 SWAP1 POP JUMP JUMPDEST PUSH1 0x0 PUSH2 0x8D6 PUSH1 0x24 DUP4 PUSH2 0xC41 JUMP JUMPDEST SWAP2 POP PUSH32 0x4F6E6C7920746865206F776E65722063616E2073657420746865206C6F636B20 PUSH1 0x0 DUP4 ADD MSTORE PUSH32 0x74696D6500000000000000000000000000000000000000000000000000000000 PUSH1 0x20 DUP4 ADD MSTORE PUSH1 0x40 DUP3 ADD SWAP1 POP SWAP2 SWAP1 POP JUMP JUMPDEST PUSH1 0x0 PUSH2 0x93C PUSH1 0x1F DUP4 PUSH2 0xC41 JUMP JUMPDEST SWAP2 POP PUSH32 0x4C6F636B20706572696F642068617320616C7265616479206578706972656400 PUSH1 0x0 DUP4 ADD MSTORE PUSH1 0x20 DUP3 ADD SWAP1 POP SWAP2 SWAP1 POP JUMP JUMPDEST PUSH1 0x0 PUSH2 0x97C PUSH1 0x27 DUP4 PUSH2 0xC41 JUMP JUMPDEST SWAP2 POP PUSH32 0x4F6E6C7920746865206F776E65722063616E20657874656E6420746865206C6F PUSH1 0x0 DUP4 ADD MSTORE PUSH32 0x636B2074696D6500000000000000000000000000000000000000000000000000 PUSH1 0x20 DUP4 ADD MSTORE PUSH1 0x40 DUP3 ADD SWAP1 POP SWAP2 SWAP1 POP JUMP JUMPDEST PUSH1 0x0 PUSH2 0x9E2 PUSH1 0x1F DUP4 PUSH2 0xC41 JUMP JUMPDEST SWAP2 POP PUSH32 0x4C6F636B20706572696F6420686173206E6F7420657870697265642079657400 PUSH1 0x0 DUP4 ADD MSTORE PUSH1 0x20 DUP3 ADD SWAP1 POP SWAP2 SWAP1 POP JUMP JUMPDEST PUSH1 0x0 PUSH2 0xA22 PUSH1 0x2F DUP4 PUSH2 0xC41 JUMP JUMPDEST SWAP2 POP PUSH32 0x4F6E6C792064657369676E617465642062656E65666963696172696573206361 PUSH1 0x0 DUP4 ADD MSTORE PUSH32 0x6E2072656C656173652066756E64730000000000000000000000000000000000 PUSH1 0x20 DUP4 ADD MSTORE PUSH1 0x40 DUP3 ADD SWAP1 POP SWAP2 SWAP1 POP JUMP JUMPDEST PUSH1 0x0 PUSH2 0xA88 PUSH1 0x27 DUP4 PUSH2 0xC41 JUMP JUMPDEST SWAP2 POP PUSH32 0x4F6E6C7920746865206F776E65722063616E2072656D6F76652062656E656669 PUSH1 0x0 DUP4 ADD MSTORE PUSH32 0x6369617269657300000000000000000000000000000000000000000000000000 PUSH1 0x20 DUP4 ADD MSTORE PUSH1 0x40 DUP3 ADD SWAP1 POP SWAP2 SWAP1 POP JUMP JUMPDEST PUSH2 0xAEA DUP2 PUSH2 0xCE6 JUMP JUMPDEST DUP3 MSTORE POP POP JUMP JUMPDEST PUSH1 0x0 PUSH1 0x20 DUP3 ADD SWAP1 POP PUSH2 0xB05 PUSH1 0x0 DUP4 ADD DUP5 PUSH2 0x805 JUMP JUMPDEST SWAP3 SWAP2 POP POP JUMP JUMPDEST PUSH1 0x0 PUSH1 0x20 DUP3 ADD SWAP1 POP PUSH2 0xB20 PUSH1 0x0 DUP4 ADD DUP5 PUSH2 0x814 JUMP JUMPDEST SWAP3 SWAP2 POP POP JUMP JUMPDEST PUSH1 0x0 PUSH1 0x20 DUP3 ADD SWAP1 POP DUP2 DUP2 SUB PUSH1 0x0 DUP4 ADD MSTORE PUSH2 0xB3F DUP2 PUSH2 0x823 JUMP JUMPDEST SWAP1 POP SWAP2 SWAP1 POP JUMP JUMPDEST PUSH1 0x0 PUSH1 0x20 DUP3 ADD SWAP1 POP DUP2 DUP2 SUB PUSH1 0x0 DUP4 ADD MSTORE PUSH2 0xB5F DUP2 PUSH2 0x863 JUMP JUMPDEST SWAP1 POP SWAP2 SWAP1 POP JUMP JUMPDEST PUSH1 0x0 PUSH1 0x20 DUP3 ADD SWAP1 POP DUP2 DUP2 SUB PUSH1 0x0 DUP4 ADD MSTORE PUSH2 0xB7F DUP2 PUSH2 0x8C9 JUMP JUMPDEST SWAP1 POP SWAP2 SWAP1 POP JUMP JUMPDEST PUSH1 0x0 PUSH1 0x20 DUP3 ADD SWAP1 POP DUP2 DUP2 SUB PUSH1 0x0 DUP4 ADD MSTORE PUSH2 0xB9F DUP2 PUSH2 0x92F JUMP JUMPDEST SWAP1 POP SWAP2 SWAP1 POP JUMP JUMPDEST PUSH1 0x0 PUSH1 0x20 DUP3 ADD SWAP1 POP DUP2 DUP2 SUB PUSH1 0x0 DUP4 ADD MSTORE PUSH2 0xBBF DUP2 PUSH2 0x96F JUMP JUMPDEST SWAP1 POP SWAP2 SWAP1 POP JUMP JUMPDEST PUSH1 0x0 PUSH1 0x20 DUP3 ADD SWAP1 POP DUP2 DUP2 SUB PUSH1 0x0 DUP4 ADD MSTORE PUSH2 0xBDF DUP2 PUSH2 0x9D5 JUMP JUMPDEST SWAP1 POP SWAP2 SWAP1 POP JUMP JUMPDEST PUSH1 0x0 PUSH1 0x20 DUP3 ADD SWAP1 POP DUP2 DUP2 SUB PUSH1 0x0 DUP4 ADD MSTORE PUSH2 0xBFF DUP2 PUSH2 0xA15 JUMP JUMPDEST SWAP1 POP SWAP2 SWAP1 POP JUMP JUMPDEST PUSH1 0x0 PUSH1 0x20 DUP3 ADD SWAP1 POP DUP2 DUP2 SUB PUSH1 0x0 DUP4 ADD MSTORE PUSH2 0xC1F DUP2 PUSH2 0xA7B JUMP JUMPDEST SWAP1 POP SWAP2 SWAP1 POP JUMP JUMPDEST PUSH1 0x0 PUSH1 0x20 DUP3 ADD SWAP1 POP PUSH2 0xC3B PUSH1 0x0 DUP4 ADD DUP5 PUSH2 0xAE1 JUMP JUMPDEST SWAP3 SWAP2 POP POP JUMP JUMPDEST PUSH1 0x0 DUP3 DUP3 MSTORE PUSH1 0x20 DUP3 ADD SWAP1 POP SWAP3 SWAP2 POP POP JUMP JUMPDEST PUSH1 0x0 PUSH2 0xC5D DUP3 PUSH2 0xCE6 JUMP JUMPDEST SWAP2 POP PUSH2 0xC68 DUP4 PUSH2 0xCE6 JUMP JUMPDEST SWAP3 POP DUP3 PUSH32 0xFFFFFFFFFFFFFFFFFFFFFFFFFFFFFFFFFFFFFFFFFFFFFFFFFFFFFFFFFFFFFFFF SUB DUP3 GT ISZERO PUSH2 0xC9D JUMPI PUSH2 0xC9C PUSH2 0xCF0 JUMP JUMPDEST JUMPDEST DUP3 DUP3 ADD SWAP1 POP SWAP3 SWAP2 POP POP JUMP JUMPDEST PUSH1 0x0 PUSH2 0xCB3 DUP3 PUSH2 0xCC6 JUMP JUMPDEST SWAP1 POP SWAP2 SWAP1 POP JUMP JUMPDEST PUSH1 0x0 DUP2 ISZERO ISZERO SWAP1 POP SWAP2 SWAP1 POP JUMP JUMPDEST PUSH1 0x0 PUSH20 0xFFFFFFFFFFFFFFFFFFFFFFFFFFFFFFFFFFFFFFFF DUP3 AND SWAP1 POP SWAP2 SWAP1 POP JUMP JUMPDEST PUSH1 0x0 DUP2 SWAP1 POP SWAP2 SWAP1 POP JUMP JUMPDEST PUSH32 0x4E487B7100000000000000000000000000000000000000000000000000000000 PUSH1 0x0 MSTORE PUSH1 0x11 PUSH1 0x4 MSTORE PUSH1 0x24 PUSH1 0x0 REVERT JUMPDEST PUSH2 0xD28 DUP2 PUSH2 0xCA8 JUMP JUMPDEST DUP2 EQ PUSH2 0xD33 JUMPI PUSH1 0x0 DUP1 REVERT JUMPDEST POP JUMP JUMPDEST PUSH2 0xD3F DUP2 PUSH2 0xCE6 JUMP JUMPDEST DUP2 EQ PUSH2 0xD4A JUMPI PUSH1 0x0 DUP1 REVERT JUMPDEST POP JUMP INVALID LOG2 PUSH5 0x6970667358 0x22 SLT KECCAK256 LOG4 PUSH26 0xBFFB744CFA435910ECC70897F627794DBD5ADE333AE563DEE67A 0xDE NUMBER DUP8 SWAP7 PUSH5 0x736F6C6343 STOP ADDMOD STOP STOP CALLER "
				},
				"gasEstimates": {
					"creation": {
						"codeDepositCost": "691800",
						"executionCost": "infinite",
						"totalCost": "infinite"
					},
					"external": {
						"addBeneficiary(address)": "22346",
						"beneficiaries(address)": "1546",
						"creationTime()": "1217",
						"extendLockTime(uint256)": "infinite",
						"lockTime()": "1152",
						"owner()": "1255",
						"release()": "infinite",
						"removeBeneficiary(address)": "22368",
						"setLockTime(uint256)": "infinite",
						"totalAmount()": "1174"
					}
				},
				"methodIdentifiers": {
					"addBeneficiary(address)": "5926651d",
					"beneficiaries(address)": "01567739",
					"creationTime()": "d8270dce",
					"extendLockTime(uint256)": "828047a5",
					"lockTime()": "0d668087",
					"owner()": "8da5cb5b",
					"release()": "86d1a69f",
					"removeBeneficiary(address)": "59633a1c",
					"setLockTime(uint256)": "ae04d45d",
					"totalAmount()": "1a39d8ef"
				}
			},
			"storageLayout": {
				"storage": [
					{
						"astId": 3,
						"contract": "time lock/smart contract.sol:TimeLock",
						"label": "owner",
						"offset": 0,
						"slot": "0",
						"type": "t_address"
					},
					{
						"astId": 5,
						"contract": "time lock/smart contract.sol:TimeLock",
						"label": "lockTime",
						"offset": 0,
						"slot": "1",
						"type": "t_uint256"
					},
					{
						"astId": 7,
						"contract": "time lock/smart contract.sol:TimeLock",
						"label": "creationTime",
						"offset": 0,
						"slot": "2",
						"type": "t_uint256"
					},
					{
						"astId": 9,
						"contract": "time lock/smart contract.sol:TimeLock",
						"label": "totalAmount",
						"offset": 0,
						"slot": "3",
						"type": "t_uint256"
					},
					{
						"astId": 13,
						"contract": "time lock/smart contract.sol:TimeLock",
						"label": "beneficiaries",
						"offset": 0,
						"slot": "4",
						"type": "t_mapping(t_address,t_bool)"
					}
				],
				"types": {
					"t_address": {
						"encoding": "inplace",
						"label": "address",
						"numberOfBytes": "20"
					},
					"t_bool": {
						"encoding": "inplace",
						"label": "bool",
						"numberOfBytes": "1"
					},
					"t_mapping(t_address,t_bool)": {
						"encoding": "mapping",
						"key": "t_address",
						"label": "mapping(address => bool)",
						"numberOfBytes": "32",
						"value": "t_bool"
					},
					"t_uint256": {
						"encoding": "inplace",
						"label": "uint256",
						"numberOfBytes": "32"
					}
				}
			},
			"userdoc": {
				"kind": "user",
				"methods": {},
				"version": 1
			}
		}
	}
}